:020000040800F2
:1000000000000824A5970008D90C0008DB0C0008A4
:10001000DD0C0008DF0C0008E10C00080000000007
:10002000000000000000000000000000E30C0008D9
:10003000E50C000800000000E70C0008E90C0008CF
:10004000F9970008F9970008F9970008F997000850
:10005000F9970008F9970008F9970008F997000840
:10006000F9970008F9970008F9970008F10C0008C3
:10007000F9970008F9970008F9970008F997000820
:10008000F9970008F9970008F9970008F997000810
:10009000F9970008F9970008F9970008F997000800
:1000A000F9970008F9970008F9970008F9970008F0
:1000B000F9970008F9970008F9970008F9970008E0
:1000C000F9970008F9970008F9970008F9970008D0
:1000D000F9970008F9970008F9970008F9970008C0
:1000E000F9970008F997000800000000F997000848
:1000F000F9970008F9970008F9970008F9970008A0
:10010000F9970008F9970008F9970008F99700088F
:10011000F9970008F9970008F9970008F99700087F
:10012000F9970008F9970008F9970008F99700086F
:10013000F9970008F9970008F9970008F99700085F
:1001400000000000000000000000000000000000AF
:10015000F9970008F9970008F9970008F99700083F
:10016000F9970008F9970008F9970008F99700082F
:10017000F9970008F9970008010D00080000000039
:10018000F9970008F9970008F9970008F99700080F
:10019000F9970008F9970008F9970008F9970008FF
:1001A000F9970008F9970008F9970008F9970008EF
:1001B000F9970008F9970008F9970008F9970008DF
:1001C000F9970008F9970008F9970008F9970008CF
:1001D000F9970008F9970008F9970008F9970008BF
:1001E000F9970008F9970008F9970008F9970008AF
:1001F000F9970008F9970008F9970008F99700089F
:10020000F9970008F9970008F9970008F99700088E
:10021000F9970008F9970008F9970008F99700087E
:10022000F9970008F9970008F99700080000000006
:10023000F9970008F997000800000000F9970008F6
:10024000F9970008F9970008F9970008F99700084E
:10025000F9970008F9970008F9970008F99700083E
:10026000F9970008F9970008F9970008F99700082E
:10027000F9970008F9970008F997000800000000B6
:10028000F9970008F9970008F997000800000000A6
:0802900000000000F9970008CE
:1002A00001F0FF01102A2BDB10F0070F08D010F827
:1002B000013B013A8B422DD010F0070F42B3F6D12B
:1002C000F0B441EA012141EA014122F007047FF044
:1002D00000070023F0E80256083C85EA010586EA9B
:1002E000010685FA47F5A3FA87F586FA47F6A5FAD7
:1002F00087F68EB9EED1F0BC01F0FF0102F00702E3
:1003000032B110F8013B013A83EA010313B1F8D18D
:100310000020704701387047002D06BF354603386E
:10032000073815F0010F07D1013015F4807F02BFA7
:10033000013015F4C03F0130F0BC0138704700BFF8
:1003400053B94AB9002908BF00281CBF4FF0FF313C
:100350004FF0FF3000F00CB8ADF1080C6DE904CEA1
:1003600009F014FFDDF804E0DDE9022304B0704772
:10037000704700BF10B5054C237833B9044B13B157
:100380000448AFF300800123237010BD4001002416
:100390000000000084A4000808B5034B1BB103490A
:1003A0000348AFF3008008BD0000000044010024B2
:1003B00084A4000808B505F037FB144B1B68C01A6D
:1003C000B0F57A7F17D2124A136801331360114BCC
:1003D00001221A60104ABFF34F8F4FF416430F49A2
:1003E000C1F85C222032203B002BF8DCBFF34F8F9A
:1003F000BFF36F8F08BD05F017FB044B1860044B6B
:100400001968074A116000221A60DCE760010024C5
:100410005C010024680100248001002400ED00E05C
:100420006401002472B6FEE700B59DB04C220021A5
:1004300009A809F01FFA2022002101A809F01AFAE0
:10044000022005F059FA002300932A4BDA6A22F0C1
:100450000102DA62DB6A03F001030093264B9A691A
:1004600042F440429A619B6903F440430093009B2D
:10047000214B9B6913F4005FFAD0212309934FF4B9
:1004800080330A9301230F930223129313930522BF
:100490001492A022159216931422179218930823EF
:1004A000199300231A931B9309A800F011FFE8B9D0
:1004B0003F23019303230293002303930823049310
:1004C0004023059306934FF480620792089302211C
:1004D00001A801F003FD58B94FF480124FF080716C
:1004E000002001F031FB1DB05DF804FBFFF79AFF1F
:1004F000FFF798FF000400580048025800B583B089
:10050000424B5B6913F4003F13D1BFF34F8FBFF32E
:100510006F8F3E4B0022C3F85022BFF34F8FBFF3C3
:100520006F8F5A6942F400325A61BFF34F8FBFF3A5
:100530006F8F364B5B6913F4803F27D1334B00221A
:10054000C3F88420BFF34F8FD3F88040C4F34E30FC
:1005500000E01846C4F3C90243F6E07303EA40130F
:1005600043EA82732949C1F860321346013A002BED
:10057000F2D1431E0028ECD1BFF34F8F4B6943F4F7
:1005800080334B61BFF34F8FBFF36F8F05F012FACB
:10059000FFF74AFF00F04CF800F002FA00F098FA7A
:1005A00000F022F900F018FB00F016FA00220121F9
:1005B000174807F04FFF0921164808F03BF94FF4A0
:1005C000FA7005F037FA4FF41653134A0021134816
:1005D00000F08AFD124B1B68002BFBD00021104B52
:1005E00019600B4C0C4B019378250095A0230A460B
:1005F000204607F0DCFF0B4B1B6800930A4B2A4692
:100600003221204607F0AEFFE4E700BF00ED00E036
:1006100000000024C89A002480010024789A002455
:1006200068010024640100249CA4000870477047FE
:100630002DE9F0478CB007AD002407940894099485
:100640000A940B94634BD3F8E02042F01002C3F8F5
:10065000E020D3F8E02002F010020192019AD3F8D2
:10066000E02042F00402C3F8E020D3F8E02002F0DA
:1006700004020292029AD3F8E02042F08002C3F80A
:10068000E020D3F8E02002F080020392039AD3F82E
:10069000E02042F00102C3F8E020D3F8E02002F0AD
:1006A00001020492049AD3F8E02042F00202C3F857
:1006B000E020D3F8E02002F002020592059AD3F878
:1006C000E02042F00802C3F8E020D3F8E03003F065
:1006D00008030693069BDFF80481012207214046A8
:1006E00003F0F2FADFF8F8A022461821504603F092
:1006F000EBFADFF8F09022461021484603F0E4FAC6
:100700004FF68C73079303270897099429463248BC
:1007100003F010F94FF4005307930894012609964B
:100720002946404603F006F90723079308960996E1
:100730000A942946404603F0FDF841F638730793C2
:10074000089709942946404603F0F4F849F6AF03A8
:10075000079308970994A8F500682946404603F0D6
:10076000E9F84FF607430793089709942946484646
:1007700003F0E0F84FF6E7730793089709942946CA
:10078000504603F0D7F84FF4807307930223089381
:1007900009940A940B942946404603F0CBF8182399
:1007A0000793089609960A942946504603F0C2F822
:1007B00010230793089609960A942946484603F0A1
:1007C000B9F821464FF0806005F04EF90CB0BDE855
:1007D000F08700BF00440258001002580008025879
:1007E000000C02580004025808B50C480C4B03607A
:1007F00000234360202282608022C2600361436143
:100800008361036243628362C362036300F08CFB13
:1008100000B908BDFFF706FEFBE700BF789A002489
:10082000000002482DE9F0438BB0002305930693A6
:100830000793089309930268514B9A4202D00BB078
:10084000BDE8F08304464F4BD3F8DC2042F00102B0
:10085000C3F8DC20D3F8DC2002F001020092009AF9
:10086000D3F8E02042F01002C3F8E020D3F8E020F3
:1008700002F010020192019AD3F8E02042F0010246
:10088000C3F8E020D3F8E02002F001020292029ABD
:10089000D3F8E02042F00402C3F8E020D3F8E020CF
:1008A00002F004020392039AD3F8E02042F002021D
:1008B000C3F8E020D3F8E03003F002030493049B74
:1008C000732305930225069508954FF00D08CDF882
:1008D000248005AF39462C4803F02CF850230593AB
:1008E0000695002607960895CDF8248039462748B6
:1008F00003F020F84FF0C009CDF814900695079644
:100900000895CDF824803946214803F013F8CDF836
:100910001490069507960895CDF8248039461D4811
:1009200003F008F81C481D4B03604B2343608660AE
:10093000C6604FF4806303614FF4805343614FF40A
:10094000804383614FF48073C3614FF4403303628B
:100950000423436203238362C662066303F0E0FB61
:1009600058B90D4BA3649C63002201214E2000F076
:1009700045FA4E2000F066FA61E7FFF753FDF0E715
:1009800000000248004402580010025800000258BB
:100990000008025800040258009A00241000024087
:1009A00000B583B00B4BD3F8D82042F00102C3F856
:1009B000D820D3F8D83003F001030193019B002223
:1009C00011460B2000F01AFA0B2000F03BFA03B09E
:1009D0005DF804FB0044025808B51448144B03604A
:1009E00003F5BF0303F5F4437333436000238360CF
:1009F0000122C260036143618361C361036205F048
:100A0000B7FA50B90021094805F0D0FE40B90021DD
:100A1000064805F01FFF30B908BDFFF703FDF1E7F9
:100A2000FFF700FDF3E7FFF7FDFCF5E7C89A0024A8
:100A30000054004010B5B8B0044600213391349101
:100A4000359136913791C02202A808F013FF226831
:100A50001C4B9A4201D038B010BD08220023CDE9CA
:100A6000022302A801F084FE40BB174CD4F8E0300A
:100A700043F00203C4F8E030D4F8E03003F002039E
:100A80000093009B4FF4407333931223349301235C
:100A90003593002336930423379333A90B4802F090
:100AA00049FFD4F8E83043F40013C4F8E830D4F830
:100AB000E83003F400130193019BCCE7FFF7B2FC8D
:100AC000D3E700BF0054004000440258000402581D
:100AD00008B51848184B03604FF4800343604FF487
:100AE000C02383600723C3604FF0007303614FF09E
:100AF000807343614FF0806383614FF08053C36123
:100B00000023036243628362C3624FF08042426308
:100B10008363C363036443648364C36403654FF006
:100B200000424265836505F075FF00B908BDFFF717
:100B300079FCFBE71C9B00240014005810B5B8B0EA
:100B40000446002133913491359136913791C0227A
:100B500002A808F08FFE22681C4B9A4201D038B0E0
:100B600010BD4FF480420023CDE9022302A801F01A
:100B7000FFFD38BB164BD3F8F42042F02002C3F837
:100B8000F420D3F8F42002F020020092009AD3F867
:100B9000E02042F00202C3F8E020D3F8E03003F096
:100BA00002030193019B28233393022334930123EF
:100BB0003593032336930823379333A9054802F06E
:100BC000B9FECCE7FFF72EFCD4E700BF00140058B5
:100BD000004402580004025808B51748174B036038
:100BE0004FF4E133436000238360C36003610C2250
:100BF00042618361C36103624362836206F0ACFFBA
:100C000070B900210C4807F0A9F860B900210A4822
:100C100007F010F950B9084807F056F848B908BD70
:100C2000FFF700FCEDE7FFF7FDFBEFE7FFF7FAFB4F
:100C3000F1E7FFF7F7FBF2E7A49B00240010014067
:100C400010B5B8B0044600213391349135913691F6
:100C50003791C02202A808F00DFE22681B4B9A4271
:100C600001D038B010BD01220023CDE9022302A833
:100C700001F07EFD38BB164BD3F8F02042F0100295
:100C8000C3F8F020D3F8F02002F010020092009A8E
:100C9000D3F8E02042F00102C3F8E020D3F8E030BE
:100CA00003F001030193019B4FF4C06333930223CC
:100CB00034930023359336930723379333A905489C
:100CC00002F038FECDE7FFF7ADFBD4E7001001409E
:100CD0000044025800000258FEE7FEE7FEE7FEE788
:100CE000FEE770477047704708B504F091FE08BDF5
:100CF00008B5024803F09AFF08BD00BF009A00241F
:100D000008B5024800F08CFA08BD00BF789A0024AC
:100D100000B583B0094BD3F8F42042F00202C3F8C7
:100D2000F420D3F8F43003F002030193019B052073
:100D300000F046F803B05DF804FB00BF0044025821
:100D4000002807DB00F01F02400901239340024AFC
:100D500042F82030704700BF00E100E0002804DBCB
:100D60000901C9B2044B1954704700F00F00090182
:100D7000C9B2024B1954704700E400E014ED00E0E2
:100D800000B500F00700C0F1070CBCF1040F28BF4C
:100D90004FF0040C031D062B0FD9C31E4FF0FF3E6E
:100DA0000EFA0CF021EA000199400EFA03FE22EA45
:100DB0000E0241EA02005DF804FB0023EEE70000AA
:100DC00010B50446C31E042B0DD80949CB6823F483
:100DD000E0631B041B0C240204F4E0642343054A73
:100DE0001A43CA6010BD91210348FFF71FFCECE7CE
:100DF00000ED00E00000FA05A4A4000870B5064666
:100E00000C4615460F2A0ED80F2C11D80B4BD8685C
:100E10002A462146C0F30220FFF7B2FF01463046C2
:100E2000FFF79CFF70BDA9210548FFF7FFFBEBE72B
:100E3000AA210348FFF7FAFBE8E700BF00ED00E056
:100E4000A4A4000810B5041E03DB2046FFF778FFBA
:100E500010BDBD210148FFF7E9FBF6E7A4A4000897
:100E60000138B0F1807F0BD24FF0E0235861054A82
:100E7000F02182F823100020986107221A61704740
:100E80000120704700ED00E010B5846BA36B43B305
:100E9000A06C0268136803F40023A16B11F0010F2A
:100EA00000D143B9136813F4002F0FD0A26B236C49
:100EB0009A422BD010BDD368E16B002203EBC10135
:100EC00004F0D6FCA36B013BA363EFE71369E16B6E
:100ED000012203EBC10104F0CBFCA36B013BA36334
:100EE000E4E7A36C1B681A6812F4002F02D0626C4E
:100EF000DA60DBE71A6812F4002FD7D1626CE16B7D
:100F000002EB81021A61236CA363CFE72268D368E6
:100F100043F00103D36023681B6813F0020FC9D0AC
:100F2000012384F83530C5E7002800F0D58010B5DE
:100F300004460268694B9A4203D0BB216848FFF718
:100F400075FBA368002B18BF202B7DD1E368002B15
:100F500018BF802B7DD12369002B18BF402B7DD17A
:100F60006368002B18BF102B7DD16369002B18BF5D
:100F7000B3F5807F02D0B3F5007F79D1A369002B50
:100F800018BFB3F5806F05D0B3F5006F02D0B3F58D
:100F9000406F72D1236A002B18BF082B72D1636A8D
:100FA000002B18BFB3F5803F05D0B3F5003F02D04A
:100FB000B3F5403F6BD1A36A002B18BFB3F5802F68
:100FC0006AD1E36A002B18BFB3F5002F69D1236BF8
:100FD000002B18BFB3F5801F68D194F83530002B73
:100FE00069D0022384F83530A3690BB10023636212
:100FF000226811683B4B0B401360226811686368DC
:1010000060690343E068034320690343A068034326
:10101000A0690343206A0343606A0343A06A034351
:10102000E06A0343206B03430B4313606368102B98
:1010300045D02268D36843F01E03D3600020E064EB
:10104000012384F8353010BDBC212548FFF7EEFAA6
:101050007CE7BD212248FFF7E9FA7CE7BE21204862
:10106000FFF7E4FA7CE7BF211D48FFF7DFFA7CE7D2
:10107000C0211B48FFF7DAFA80E7C1211848FFF7C3
:10108000D5FA87E7C2211648FFF7D0FA87E7C421CF
:101090001348FFF7CBFA8EE7C5211148FFF7C6FAD0
:1010A0008FE7C6210E48FFF7C1FA90E7C7210C4829
:1010B000FFF7BCFA91E72046FFF7B4FB91E7237FE7
:1010C000627F43EA0223A27F43EA0243E17F226870
:1010D00043EA01639361ACE70120704700000248D6
:1010E000DCA4000807F0E0FFF0B583B004460D462D
:1010F00016461F46002918BF02292FD194F8343014
:10110000012B70D0012384F83430022384F8353069
:101110002268136843F4804313602268136823F045
:1011200002031360226813682B431360A36C2F4AD9
:10113000DA63A36C2E4ADA64A36C00221A65A263F8
:101140002264E2636264B7F5803F0DD3A36C274A43
:101150005A640123A363E76366641CE04FF4B8712B
:101160002448FFF763FAC9E721683B463246283135
:10117000A06C03F0C7FA18B34023E364012084F89D
:101180003500002384F8343022E0E36B5B08E3632E
:10119000A36B5B00A363E36BB3F5803FF5D2A36B56
:1011A000023BA363A36B2364E36B2168E26B0092B1
:1011B00006EB830332462831A06C04F025F948B9C8
:1011C0002268136843F001031360002084F83400A0
:1011D00003B0F0BD4023E364012084F83500002310
:1011E00084F83430F4E70220F2E700BF890E0008EB
:1011F000FB110008DCA40008704708B5806B836C05
:101200005B6D022B06D0012380F83530C36C43F0B0
:101210004003C364FFF7F0FF08BD7047704700004C
:1012200038B5044603681D6915F0040F20D115F088
:10123000020F2CD115F0100F3AD115F0080F3ED146
:1012400015F0010F13D023681A6812F0020F03D0B3
:10125000DA6822F01E02DA602268D36823F0010304
:10126000D360236801225A612046FFF7A3F838BDF6
:1012700004225A61C36C43F00203C36480F8352032
:10128000836C124A1A65806C03F09AFBCFE72368DF
:1012900002225A61E36C43F00103E364042384F8FF
:1012A0003530A36C094A1A65A06C03F089FBC1E7CD
:1012B000236810225A612046FFF7AFFFBDE723687D
:1012C00008225A612046FFF7A9FFB9E7FB11000881
:1012D000002800F01A8438B50446036813B113F0EF
:1012E0003F0F25D0236813F0010F3AD06368002B1D
:1012F00018BFB3F5803F02D0B3F5A02F1ED1A04A8E
:10130000136903F03803926A102B21D0182B1BD0DD
:101310006368B3F5803F57D0002B6BD1984B1A68A8
:1013200022F480321A601A6822F480221A6050E097
:1013300040F2A1119348FFF779F9D3E74FF4D37145
:101340009048FFF773F9DAE702F00302022ADFD1CF
:101350008B4B1B6813F4003F03D06368002B00F035
:10136000D683236813F0020F00F0B980E368092BDD
:1013700018BF012B03D9112B01D0192B60D1236980
:101380007F2B63D87E4A1369926A13F0380366D0C4
:10139000182B61D0E368002B00F0F68078490A68CA
:1013A00022F0190213430B6004F03EFB0546744B18
:1013B0001B6813F0040F40F0C18004F035FB401BA4
:1013C0000228F4D9032068E06D4A136843F480339F
:1013D000136063682BB304F027FB0546684B1B685A
:1013E00013F4003FBDD104F01FFB401B6428F5D966
:1013F000032052E0B3F5A02F09D0614B1A6822F404
:1014000080321A601A6822F480221A60E1E75C4B8D
:101410001A6842F480221A601A6842F480321A6014
:10142000D7E704F001FB0546554B1B6813F4003F5A
:1014300097D004F0F9FA401B6428F5D903202CE07A
:101440004FF4ED714F48FFF7F1F898E740F2DB11E8
:101450004C48FFF7EBF895E712F0030F9AD1484B91
:101460001B6813F0040F03D0E368002B00F05183D6
:10147000434A136823F01903E1680B43136004F037
:10148000D3FA05463E4B1B6813F0040F06D104F057
:10149000CBFA401B0228F5D9032038BD04F0DEFA50
:1014A00041F20303984212D82269402A07D03449F6
:1014B0004B6823F47C3343EA02334B600FE0304A3D
:1014C000536823F47C3343F40033536007E02C4A21
:1014D000536823F0FE43216943EA016353602368A4
:1014E00013F0100F00F09E80E369002B18BF802BD3
:1014F0005ED1236A3F2B61D8214A136903F0380378
:10150000926A082B64D0182B5ED0E369002B00F0A0
:10151000C9801B4A136843F08003136004F084FA07
:101520000546174B1B6813F4807F40F0998004F048
:101530007BFA401B0228F4D90320AEE704F08EFAB0
:1015400041F20303984212D82269402A07D00C497D
:101550004B6823F47C3343EA02334B60BFE7084A0D
:10156000536823F47C3343F400335360B7E7044AF1
:10157000536823F0FE43216943EA01635360AEE7F9
:101580000044025814A500089D4A136823F0010383
:10159000136004F049FA0546994B1B6813F0040FD9
:1015A0009DD004F041FA401B0228F5D9032074E7CE
:1015B00040F22B219348FFF739F89AE74FF40B716B
:1015C0009048FFF733F897E702F00302012A9CD115
:1015D0008B4B1B6813F4807F03D0E369802B40F0B2
:1015E0009A8204F03BFA41F20303984212D8226A2D
:1015F000202A07D082494B6823F0F84343EA8263EC
:101600004B600FE07E4A536823F0F84343F0804379
:10161000536007E07A4AD36823F07C53216A43EA97
:101620000163D360236813F0080F69D06369012B4D
:101630004CD86369002B4FD0714A536F43F00103BC
:10164000536704F0F1F905466D4B5B6F13F0020F21
:1016500056D104F0E9F9401B0228F5D903201CE714
:1016600004F0FCF941F20303984212D8226A202ABE
:1016700007D063494B6823F0F84343EA82634B6029
:10168000D0E75F4A536823F0F84343F08043536048
:10169000C8E75B4AD36823F07C53216A43EA0163BD
:1016A000D360BFE7564A136823F08003136004F049
:1016B000BBF90546524B1B6813F4807FB2D004F08F
:1016C000B3F9401B0228F5D90320E6E640F26D216C
:1016D0004C48FEF7ABFFACE7494A536F23F00103D8
:1016E000536704F0A1F90546454B5B6F13F0020FF9
:1016F00006D004F099F9401B0228F5D90320CCE666
:10170000236813F0200F32D0A369012B15D8A369E9
:10171000CBB13B4A136843F48053136004F084F95F
:101720000546374B1B6813F4005F20D104F07CF9A9
:10173000401B0228F5D90320AFE64FF4267131484B
:10174000FEF774FFE3E72E4A136823F48053136017
:1017500004F06AF905462A4B1B6813F4005F06D0B3
:1017600004F062F9401B0228F5D9032095E62368AE
:1017700013F0040F71D0A368052B18BF012B13D8E9
:10178000214A136843F48073136004F04DF9054651
:101790001D4B1B6813F4807F0CD104F045F9401BEE
:1017A0006428F5D9032078E640F2C2211548FEF7F7
:1017B0003DFFE5E7A368012B0AD03BBB104B1A6F36
:1017C00022F001021A671A6F22F004021A6704E07D
:1017D0000B4A136F43F001031367A36863B304F06C
:1017E00023F90546064B1B6F13F0020F35D104F0A9
:1017F0001BF9401B41F288339842F3D903204CE691
:101800000044025814A5000800480258052B09D0CE
:10181000924B1A6F22F001021A671A6F22F004022B
:101820001A67DAE78D4B1A6F42F004021A671A6FD3
:1018300042F001021A67D0E704F0F6F80546874B3C
:101840001B6F13F0020F08D004F0EEF8401B41F2BA
:1018500088339842F3D903201FE6636A022B4FD8DE
:10186000636A002B00F059817C4A126902F0380249
:10187000182A00F0F980022B40F0DA80A36A032BCB
:1018800018BF012B01D9022B40D1236C002B18BFAC
:10189000042B03D0082B01D00C2B3DD1636C002B03
:1018A00018BF022B3ED1E36A013B3E2B40D8236B8D
:1018B000043BB3F5FE7F41D8636B013B7F2B43D8DC
:1018C000A36B013B7F2B45D8E36B013B7F2B47D8B4
:1018D000A36CB3F5005F49D2604A136823F08073AC
:1018E000136004F0A1F805465C4B1B6813F0007F01
:1018F00042D004F099F8401B0228F5D90320CCE52A
:101900004FF43D715648FEF791FEA9E740F2FD21E4
:101910005348FEF78BFEB8E740F2FE215048FEF731
:1019200085FEBBE740F2FF214D48FEF77FFEBAE798
:101930004FF440714A48FEF779FEB8E740F20131B2
:101940004748FEF773FEB7E740F202314448FEF71E
:101950006DFEB5E740F203314148FEF767FEB3E79D
:101960004FF441713E48FEF761FEB1E740F20531A8
:101970003B48FEF75BFEAFE7384B996A394A0A40AD
:10198000A16AE06A41EA00110A439A62226B013AB5
:10199000C2F30802616B0139490289B20A43A16BA3
:1019A0000139090401F4FE010A43E16B013909061A
:1019B00001F0FE410A431A63DA6A22F00102DA6298
:1019C0005A6B6FF3CF02A16C42EAC1025A63DA6A22
:1019D00022F00C02216C0A43DA62DA6A22F0020277
:1019E000616C0A43DA62DA6A42F48032DA62DA6AF5
:1019F00042F40032DA62DA6A42F48022DA62DA6AA7
:101A000042F00102DA621A6842F080721A6004F051
:101A10000BF80446114B1B6813F0007F06D104F04D
:101A200003F8001B0228F5D9032036E5002034E531
:101A30000A4A136823F08073136003F0F5FF04462D
:101A4000064B1B6813F0007F06D003F0EDFF001B70
:101A50000228F5D9032020E500201EE500440258A5
:101A600014A500080CFCFFFF354A916A106B012B8E
:101A700055D001F00303A26A934252D1C1F305117C
:101A8000E36A99424FD1C0F30802236B013B9A42AB
:101A90004BD1C0F34622636B013B9A4247D1C0F35E
:101AA0000642A36B013B9A4243D1C0F30660E36B4D
:101AB000013B98423FD1224B5B6BC3F3CC03A26C3A
:101AC0009A423AD0B2F5005F19D21D4AD36A23F088
:101AD0000103D36203F0A8FF054603F0A5FFA84267
:101AE000FBD0174A536B6FF3CF03A16C43EAC103DA
:101AF0005363D36A43F00103D3620020CDE44FF473
:101B00005B711048FEF792FDDFE70120704701206E
:101B1000C3E40120C1E40120BFE40020BDE40120B2
:101B2000BBE40120B9E40120B7E40120B5E40120C1
:101B3000B3E40120B1E40120AFE40020ADE400BF34
:101B40000044025814A5000870B588B006460D463A
:101B5000144601286DD8B4F5802F18BFB4F5002FB6
:101B600032D0B4F5801318BF0123B4F5402F2BD029
:101B700053B3B4F5C01318BF0123B4F5A01F23D08D
:101B800013B3B4F5001318BF0123B4F5E01F1BD045
:101B9000D3B1B4F5201318BF0123B4F5101F13D02F
:101BA00093B1B4F5401318BF0123B4F5301F0BD027
:101BB00053B1B4F5601318BF0123B4F5501F03D01F
:101BC00013B1B4F5701F3AD1002E44D1002D18BFC7
:101BD000B5F5800F0AD0B5F5400318BF0123B5F560
:101BE000000F03D013B1B5F1807F2ED1394ED6F856
:101BF000E03043F00103C6F8E030D6F8E03003F0FF
:101C000001030193019B4FF4807303930223049318
:101C10000323069300230593079303A92E4801F09D
:101C200089FE336923F0FE732C431C43346108B0F2
:101C300070BD40F20A512948FEF7F8FC8BE740F2EC
:101C40000B512648FEF7F2FCBEE740F20F51234845
:101C5000FEF7ECFCCAE7002D18BFB5F1005F0FD00E
:101C6000B5F1C04318BF0123B5F1804F08D03BB197
:101C7000B5F1204318BF0123B5F1004F00D013BBCD
:101C8000144ED6F8E03043F00403C6F8E030D6F83E
:101C9000E03003F004030293029B4FF400730393BC
:101CA000022304930323069300230593079303A9B8
:101CB0000B4801F03FFE336923F07E4345EAC4152B
:101CC0002B433361B3E740F221510448FEF7AEFCE9
:101CD000D6E700BF004402580000025814A50008CF
:101CE00000080258754B1B6903F03803102B00F0F5
:101CF000DE80182B0FD0002B40F0DB806F4B1B6871
:101D000013F0200F00F0D7806C4B1B68C3F3C103A6
:101D10006B48D840704710B4684B9A6A02F00302CF
:101D20009C6AC4F30510D96A01F001015B6BC3F32F
:101D3000CC0301FB03F307EE903AF8EE677A14F454
:101D40007C7F77D0012A4AD0022A76D0002A40F040
:101D500091805A4B1B6813F0200F23D057490A6813
:101D6000C2F3C102564BD34007EE103AF8EE476A71
:101D700007EE100AB8EE476A86EE867A0B6BC3F35D
:101D8000080306EE903AF8EE666A9FED4E6A67EE3B
:101D9000867A76EEA77AF7EE006A77EEA67A27EED5
:101DA000277A38E007EE100AF8EE476A9FED466A98
:101DB00086EE267A414B1B6BC3F3080306EE903A7E
:101DC000F8EE666A9FED3F6A67EE867A76EEA77A4E
:101DD000F7EE006A77EEA67A27EE277A1BE007EE89
:101DE000100AF8EE476A9FED396A86EE267A334B81
:101DF0001B6BC3F3080306EE903AF8EE666A9FED9C
:101E0000316A67EE867A76EEA77AF7EE006A77EEA9
:101E1000A67A27EE277A294B1B6BC3F3462301339F
:101E200007EE903AF8EE677AC7EE276AFCEEE67A9C
:101E300017EE900A5DF8044B704707EE100AF8EEB3
:101E4000476A9FED236A86EE267A1C4B1B6BC3F311
:101E5000080306EE903AF8EE666A9FED1A6A67EE9E
:101E6000867A76EEA77AF7EE006A77EEA67A27EE04
:101E7000277AD0E707EE100AF8EE476A9FED136A5B
:101E800086EE267A0D4B1B6BC3F3080306EE903AE1
:101E9000F8EE666A9FED0B6A67EE867A76EEA77AB1
:101EA000F7EE006A77EEA67A27EE277AB3E70948BD
:101EB0007047094870470248704700BF0044025805
:101EC0000090D003000000390024744C0024744AB0
:101ED00020BCBE4B40787D0100093D00002800F089
:101EE0002A8270B50D4604460368013B3E2B00F282
:101EF000DD800F2D00F2E0809E4B1B6803F00F0386
:101F0000AB420BD29B4A136823F00F032B431360A1
:101F1000136803F00F03AB4240F00F82236813F005
:101F2000040F18D02269944B9B6903F070039A4206
:101F300011D9002A18BF402A06D0502A04D0602A9E
:101F400002D0702A40F0BE808B4A936923F0700360
:101F500021690B439361236813F0080F18D062695D
:101F6000854BDB6903F070039A4211D9002A18BF30
:101F7000402A06D0502A04D0602A02D0702A40F0AD
:101F8000A7807D4AD36923F0700361690B43D36155
:101F9000236813F0100F1CD0A269774BDB6903F4A0
:101FA000E0639A4215D9002A18BFB2F5806F09D0B4
:101FB000B2F5A06F06D0B2F5C06F03D0B2F5E06FF6
:101FC00040F08C806C4AD36923F4E063A1690B4331
:101FD000D361236813F0200F17D0E269664B1B6AA8
:101FE00003F070039A4210D9002A18BF402A05D086
:101FF000502A03D0602A01D0702A75D15E4A136A34
:1020000023F07003E1690B431362236813F0020F9E
:1020100014D0E268584B9B6903F00F039A420DD924
:10202000002A18BF082A02D0093A062A62D8524A62
:10203000936923F00F03E1680B439361236813F066
:10204000010F00F09D80A368002B18BFB3F5006F4F
:1020500014D0B3F5106F11D0B3F5206F0ED0B3F5D7
:10206000306F0BD0B3F5406F08D0B3F5506F05D08B
:10207000B3F5606F02D0B3F5706F41D16368032B85
:1020800044D83D4A936923F47063A1680B4393617C
:102090006368022B40D0032B5DD0012B62D0364AFF
:1020A000126812F0040F3CD1012025E140F2A73163
:1020B0003248FEF7BBFA1CE74FF46A712F48FEF76F
:1020C000B5FA19E74FF471712C48FEF7AFFA3BE708
:1020D00040F2D6312948FEF7A9FA52E740F2E7313B
:1020E0002648FEF7A3FA6DE740F2F9312348FEF7E0
:1020F0009DFA83E740F20C412048FEF797FA96E7F5
:1021000040F21C411D48FEF791FAB7E740F21D412D
:102110001A48FEF78BFAB4E7126812F4003F00F099
:102120000E8115490A6922F0070213430B6103F07F
:102130007BFC0646104B1B6903F038036268B3EB67
:10214000C20F1DD003F070FC801B41F2883398420F
:10215000F0D90320D0E0084A126812F0007FE0D1E5
:102160000120C9E0044A126812F4807FD9D101200D
:10217000C2E000BF002000520044025814A500082D
:10218000236813F0020F15D0E2686F4B9B6903F0D0
:102190000F039A420ED2002A18BF082A03D0093A28
:1021A000062A00F2AA80684A936923F00F03E168C7
:1021B0000B439361654B1B6803F00F03AB420BD9D4
:1021C000624A136823F00F032B431360136803F074
:1021D0000F03AB4240F0B580236813F0040F18D012
:1021E0002269594B9B6903F070039A4211D2002A6D
:1021F00018BF402A06D0502A04D0602A02D0702A84
:1022000040F08180504A936923F0700321690B43A9
:102210009361236813F0080F17D062694A4BDB699A
:1022200003F070039A4210D2002A18BF402A05D04A
:10223000502A03D0602A01D0702A6AD1424AD36959
:1022400023F0700361690B43D361236813F0100F0F
:102250001BD0A2693C4BDB6903F4E0639A4214D2C1
:10226000002A18BFB2F5806F08D0B2F5A06F05D074
:10227000B2F5C06F02D0B2F5E06F50D1324AD369E7
:1022800023F4E063A1690B43D361236813F0200FAB
:1022900017D0E2692C4B1B6A03F070039A4210D2EC
:1022A000002A18BF402A05D0502A03D0602A01D046
:1022B000702A3AD1244A136A23F07003E1690B4370
:1022C0001362FFF70FFD20498B69C3F30323204AF4
:1022D000D35C03F01F03D8408B6903F00F03D35C7A
:1022E00003F01F0320FA03F31A4A13601A4B186015
:1022F0001A4B186803F036FB70BD40F25E41184877
:10230000FEF794F94FE740F27F411548FEF78EF94A
:1023100078E740F291411248FEF788F98EE740F2E3
:10232000A3410F48FEF782F9A8E740F2B5410C48F7
:10233000FEF77CF9BEE7012070470120DCE70120B1
:10234000DAE70120D8E700BF00440258002000521D
:1023500008A8000860000024640000245C00002439
:1023600014A5000808B5FFF7BDFC0B4A9369C3F339
:1023700003230A49CB5C03F01F0320FA03F392699D
:1023800002F00F02885C00F01F0023FA00F0044AFC
:102390001060044A136008BD0044025808A80008F1
:1023A000600000246400002408B5FFF7DBFF054B44
:1023B000DB69C3F30213044AD35C03F01F03D84064
:1023C00008BD00BF0044025808A8000808B5FFF780
:1023D000C9FF054BDB69C3F30223044AD35C03F056
:1023E0001F03D84008BD00BF0044025808A80008D9
:1023F00070B504460E460368013B3E2B3DD863682A
:10240000043BB3F5FE7F3ED8A368013B7F2B40D849
:102410002369013B7F2B42D8E368013B7F2B44D8E3
:102420006369002B18BF402B03D0802B01D0C02B39
:1024300041D1A369002B18BF202B42D1E369B3F52A
:10244000005F44D2574B9B6A03F00303032B00F059
:10245000A780544A136823F08063136003F0E4FA02
:102460000546504B1B6813F0006F36D003F0DCFAC2
:10247000431B022BF5D9032093E040F672614A48D2
:10248000FEF7D4F8BBE740F673614748FEF7CEF895
:10249000BAE740F674614448FEF7C8F8B8E740F67A
:1024A00075614148FEF7C2F8B6E740F676613E48EE
:1024B000FEF7BCF8B4E740F677613B48FEF7B6F8A4
:1024C000B7E740F678613848FEF7B0F8B6E740F66F
:1024D00079613548FEF7AAF8B4E7324B9A6A22F4DC
:1024E0007C32216842EA01329A626268013AC2F3A0
:1024F0000802A1680139490289B20A43E168013939
:10250000090401F4FE010A4321690139090601F0B9
:10251000FE410A439A63DA6A22F0C00261690A4303
:10252000DA62DA6A22F02002A1690A43DA62DA6A20
:1025300022F01002DA62DA6B6FF3CF02E16942EA4D
:10254000C102DA63DA6A42F01002DA62C6B91A46E8
:10255000DB6A43F40023D362124A136843F08063BA
:10256000136003F061FA04460E4B1B6813F0006F12
:1025700014D103F059FA001B0228F5D9032010E00A
:10258000012E05D0074AD36A43F40013D362E3E770
:10259000044AD36A43F48013D362DDE7002000E0ED
:1025A000012070BD004402584CA5000870B50446D7
:1025B0000E460368013B3E2B41D86368043BB3F5EC
:1025C000FE7F42D8A368013B7F2B44D82369013B9F
:1025D0007F2B46D8E368013B7F2B48D86369002BEB
:1025E00018BFB3F5806F05D0B3F5006F02D0B3F517
:1025F000406F42D1A369002B18BFB3F5007F42D1D1
:10260000E369B3F5005F44D2574B9B6A03F00303C1
:10261000032B00F0A780544A136823F08053136003
:1026200003F002FA0546504B1B6813F0005F36D0EA
:1026300003F0FAF9431B022BF5D9032093E040F68F
:10264000DA614A48FDF7F2FFB7E740F6DB61474839
:10265000FDF7ECFFB6E740F6DC614448FDF7E6FF26
:10266000B4E740F6DD614148FDF7E0FFB2E740F630
:10267000DE613E48FDF7DAFFB0E740F6DF613B4838
:10268000FDF7D4FFB6E74FF46E613848FDF7CEFF93
:10269000B6E740F6E1613548FDF7C8FFB4E7324BD5
:1026A0009A6A22F07C72216842EA01529A62626858
:1026B000013AC2F30802A1680139490289B20A430A
:1026C000E1680139090401F4FE010A432169013975
:1026D000090601F0FE410A431A64DA6A22F44062F4
:1026E00061690A43DA62DA6A22F40072A1690A4374
:1026F000DA62DA6A22F48072DA625A6C6FF3CF021D
:10270000E16942EAC1025A64DA6A42F48072DA622A
:10271000C6B91A46DB6A43F48003D362124A1368CF
:1027200043F08053136003F07FF904460E4B1B689F
:1027300013F0005F14D103F077F9001B0228F5D9DC
:10274000032010E0012E05D0074AD36A43F08073BE
:10275000D362E3E7044AD36A43F40003D362DDE7BC
:10276000002000E0012070BD004402584CA5000884
:10277000F8B50446036813F0006F30D0836EB3F5EC
:10278000001F26D00ED8ABB1B3F5801F07D10221B0
:102790000830FFF72DFE054695B12E4621E00126B3
:1027A00035461EE0B3F5401F01D1002508E00126A3
:1027B000354616E0974AD36A43F40033D3620025C6
:1027C000944A136D23F44013A16E0B431365002646
:1027D00007E002212830FFF7E9FE0546DCE7002686
:1027E0003546236813F4807F14D0A36D042B31D8B1
:1027F000DFE803F0032229080800864AD36A43F47D
:102800000033D3624DBB834A136D23F00703A16DE0
:102810000B431365236813F4007F38D0E36D802BDE
:102820004AD01FD833B3402B19D1002104F108003E
:10283000FFF7DEFD054622E0002104F10800FFF766
:10284000D7FD0546DEE7002104F12800FFF7AEFEC4
:102850000546D7E701263546DCE72E46DAE70126AE
:10286000354614E0C02B0AD0B3F5807F07D001268F
:1028700035460CE0674AD36A43F40033D36215BB94
:10288000644A136D23F4E073E16D0B431365236811
:1028900013F4806F33D0D4F8A830B3F5800F43D051
:1028A00016D8F3B1B3F5001F0FD1002104F10800D1
:1028B000FFF79EFD054619E0002104F12800FFF70F
:1028C00075FE0546DBE72E46E1E70126354616E0B4
:1028D000B3F5C00F0AD0B3F5000F07D00126354677
:1028E0000DE04C4AD36A43F40033D3621DBB494A1E
:1028F000936D23F46003D4F8A8100B439365236809
:1029000013F4006F34D0D4F8AC30B3F1007F5BD057
:1029100016D8F3B1B3F1807F0FD1002104F1080084
:10292000FFF766FD054619E0002104F12800FFF7D6
:102930003DFE0546DAE72E46E1E70126354617E07B
:10294000B3F1407F0AD0B3F1806F07D0012635463E
:102950000EE0304AD36A43F40033D362002D3AD1FB
:102960002C4A936D23F0E063D4F8AC100B439365CD
:10297000236813F0007F13D0E36C202B35D02FD8C1
:1029800033B1102B29D1234AD36A43F40033D362E5
:1029900095BB204AD36C23F03003E16C0B43D36426
:1029A000236813F4805F44D0236EB3F5005F5CD0DE
:1029B00027D88BB3B3F5805F20D1002104F1080044
:1029C000FFF716FD05462CE0002104F12800FFF773
:1029D000EDFD0546C2E72E46CAE701263546DFE78C
:1029E000302BD5D001263546DAE7022104F1080064
:1029F000FFF7FEFC0546CBE72E46D1E7012635461C
:102A000017E0B3F5405F0CD0B3F5804F09D0012635
:102A100035460EE000440258584AD36A43F4003366
:102A2000D3624DBB554A136D23F4E043216E0B4333
:102A30001365236813F4005F37D0636EB3F5003F6E
:102A40002BD01ED843B1B3F5803F17D1012104F13B
:102A50000800FFF7CDFC054635BB484A136D23F44B
:102A6000E023616E0B4313651FE0002104F1280091
:102A7000FFF79CFD0546D4E72E46DAE701263546EA
:102A800013E0B3F5802FE7D0B3F5A02FE4D0B3F572
:102A9000403FE1D00126354607E0012104F128003E
:102AA000FFF784FD0546D7E72E46236813F4804FD1
:102AB00030D0D4F8B030B3F1005F23D016D843B192
:102AC000B3F1805F0FD1012104F10800FFF790FC02
:102AD0000546F5B9294A936D23F0E043D4F8B010C8
:102AE0000B43936516E00126354613E0B3F1804FA2
:102AF000EFD0B3F1A04FECD0B3F1405FE9D00126A5
:102B0000354607E0012104F12800FFF74FFD054697
:102B1000DFE72E46236813F4004F20D0236FB3F174
:102B2000805F06D0B3F1005F11D03BB1012635467E
:102B300015E0124AD36A43F40033D36275B90F4AE1
:102B4000136D23F04053216F0B43136507E0012100
:102B500004F10800FFF74CFC0546EFE72E4623681A
:102B600013F0807F1BD0A36C032B00F28981DFE878
:102B700013F00C00070080010C0000BF0044025855
:102B8000B74AD36A43F40033D362002D40F07B810F
:102B9000B34AD36C23F00303A16C0B43D3642368C3
:102BA00013F4800F00F08D81D4F8B430B3F5807F3A
:102BB00018BFB3F5007F00F00D81B3F50C5F00F096
:102BC0000981B3F54C5F00F00581B3F5864F00F045
:102BD0000181B3F5A64F00F0FD80B3F5C64F00F0BC
:102BE000F980B3F5E64F00F0F580B3F5034F00F040
:102BF000F180B3F5134F00F0ED80B3F5234F00F0F3
:102C0000E980B3F5334F00F0E580B3F5434F00F0B2
:102C1000E180B3F5534F00F0DD80B3F5634F00F072
:102C2000D980B3F5734F00F0D5808E4A934200F0FF
:102C3000D18002F58052934200F0CC8002F58052A0
:102C4000934200F0C78002F58052934200F0C280A8
:102C500002F58052934200F0BD8002F5805293420B
:102C600000F0B88002F58052934200F0B38002F584
:102C70008052934200F0AE8002F58052934200F001
:102C8000A98002F58052934200F0A48002F58052A0
:102C9000934200F09F8002F58052934200F09A80A8
:102CA00002F58052934200F0958002F580529342E3
:102CB00000F0908002F58052934200F08B8002F584
:102CC0008052934200F0868002F58052934200F0D9
:102CD000818002F5805293427CD002F5805293426B
:102CE00078D002F58052934274D002F5805293421C
:102CF00070D002F5805293426CD002F5805293421C
:102D000068D002F58052934264D002F5805293421B
:102D100060D002F5805293425CD002F5805293421B
:102D200058D002F58052934254D002F5805293421B
:102D300050D002F5805293424CD002F5805293421B
:102D400048D002F58052934244D002F5805293421B
:102D500040D002F5805293423CD002F5805293421B
:102D600038D002F58052934234D002F5805293421B
:102D700030D002F5805293422CD002F5805293421B
:102D800028D002F58052934224D002F5805293421B
:102D900020D002F5805293421CD002F5805293421B
:102DA00018D002F58052934214D002F5805293421B
:102DB00010D002F5805293420CD002F5805293421B
:102DC00008D002F58052934204D040F27D3126486B
:102DD000FDF72CFC254A136843F48073136002F05E
:102DE00023FE0746214B1B6813F4807F05D102F0B8
:102DF0001BFEC01B6428F5D90325002D60D1184B9C
:102E00001B6FD4F8B420534013F4407F0CD0144B04
:102E10001A6F22F44072196F41F480311967196FEB
:102E200021F4803119671A67D4F8B430B3F5807F84
:102E30002BD0002D63D1D4F8B43003F44072B2F536
:102E4000407F33D0064A136923F47C53136104494D
:102E50000B6FD4F8B420C2F30B0213430B6707E0E7
:102E600000440258000301004CA500080048025825
:102E700027E0022104F10800FFF7BAFA054684E6CC
:102E8000012635468BE62E4689E602F0CDFD074643
:102E9000844B1B6F13F0020FCBD102F0C5FDC01B9A
:102EA00041F288339842F3D90325C2E77D4802698D
:102EB00022F47C527C4901EA131313430361C6E7F1
:102EC0002E46236813F0010F33D0E36F282B2ED842
:102ED000DFE803F01D2D2D2D2D2D2D2D172D2D2D42
:102EE0002D2D2D2D262D2D2D2D2D2D2D1D2D2D2D29
:102EF0002D2D2D2D1D2D2D2D2D2D2D2D1D002E4635
:102F0000DFE7012104F10800FFF772FA0546E5B991
:102F1000644A536D23F03803E16F0B43536508E0B7
:102F2000012104F12800FFF741FB0546EFE70126E8
:102F30003546236813F0020F17D0A36F052B28D84E
:102F4000DFE803F00B05200B0B0B2E46F1E7012108
:102F500004F10800FFF74CFA0546EDB9514A536DEC
:102F600023F00703A16F0B435365236813F0040F8D
:102F700023D0D4F89430052B44D8DFE803F0150FA4
:102F80003C151515012104F12800FFF70FFB05463C
:102F9000E3E701263546E8E72E46E6E7012104F19E
:102FA0000800FFF725FA05467DBB3E4A936D23F0E6
:102FB0000703D4F894100B439365236813F0200F94
:102FC0003CD0D4F89030B3F1005F2FD022D843B179
:102FD000B3F1805F1BD1002104F10800FFF708FA6C
:102FE000054655BB2F4A536D23F0E043D4F89010AB
:102FF0000B43536522E0012104F12800FFF7D6FAC4
:103000000546D1E701263546D7E72E46D5E7012606
:10301000354613E0B3F1804FE3D0B3F1A04FE0D0D9
:10302000B3F1405FDDD00126354607E0022104F10F
:103030002800FFF7BBFA0546D3E72E46236813F0B6
:10304000400F34D0D4F89C30B3F5006F23D016D89D
:1030500043B1B3F5806F0FD1002104F10800FFF7F1
:10306000C7F9054615BB0F4A936D23F4E053D4F816
:103070009C100B4393651AE00126354617E0B3F523
:10308000805FEFD0B3F5A05FECD0B3F5406FE9D02F
:10309000012635460BE0022104F12800FFF786FAED
:1030A0000546DFE700440258CFFFFF002E462368A5
:1030B00013F0800F30D0D4F8A030B3F5804F23D078
:1030C00016D843B1B3F5005F0FD1002104F1080019
:1030D000FFF78EF90546F5B9934A936D23F46043E3
:1030E000D4F8A0100B43936516E00126354613E093
:1030F000B3F5004FEFD0B3F5204FECD0B3F5C04F90
:10310000E9D00126354607E0022104F12800FFF747
:103110004DFA0546DFE72E46236813F0080F18D056
:10312000D4F88430B3F5805F18BFB3F5005F03D0E7
:1031300013B1B3F5405F46D1D4F88430B3F5805F66
:1031400047D0794A536D23F44053D4F884100B438D
:103150005365236813F0100F18D0D4F89830B3F5E6
:10316000807F18BFB3F5007F03D013B1B3F5407F64
:1031700038D1D4F89830B3F5807F39D06A4A936D4E
:1031800023F44073D4F898100B439365236813F429
:10319000002F41D0D4F8A430B3F5803F31D0B3F53F
:1031A000003F06D0A3BB002104F10800FFF720F97F
:1031B000054685BB5C4A936D23F44033D4F8A410D4
:1031C0000B43936528E040F20D515848FDF72EFA65
:1031D000B2E7022104F12800FFF7E8F90028B0D097
:1031E0000126AEE74FF4A4615048FDF71FFAC0E78F
:1031F000022104F12800FFF7D9F90028BED00126EA
:10320000BCE7022104F12800FFF7D0F90546D0E71A
:103210000126354600E02E46236813F4802F24D083
:10322000D4F88830B3F5001F14D0B3F5401F07D091
:10323000B3F5801F15D13C4AD36A43F40033D362FF
:1032400095B9394A536D23F44013D4F888100B43D1
:1032500053650AE0012104F12800FFF7A7F90546AC
:10326000EEE70126354600E02E46236813F4803F42
:103270000CD0236D002B18BFB3F5803F1CD1236DFC
:1032800003B3B3F5803F2BD001263546236813F0F6
:10329000005F2ED1236813F4003F4AD0D4F8803069
:1032A000B3F5807F31D02DD9B3F5007F32D0B3F59F
:1032B000407F2FD001263CE040F286511B48FDF7AD
:1032C000B5F9DCE7184AD36A43F40033D36275B921
:1032D000154AD36C23F48033216D0B43D364D5E7B7
:1032E000022104F10800FFF783F80546EFE72E46B8
:1032F000CCE7022104F12800FFF758F90028C9D0D3
:103300000126C7E733B1012613E0074AD36A43F425
:103310000033D36265B9044A536D23F44073D4F883
:1033200080100B43536504E0004402584CA500088C
:103330002E46236813F4801F0DD0636F002B18BF37
:10334000B3F1004F40F085806F4A136D23F00043C6
:10335000616F0B431365236813F0805F0ED0D4F8C0
:10336000B830002B18BFB3F5804F78D1664A136987
:1033700023F48043D4F8B8100B431361236813F48B
:10338000001F0CD0E36E002B18BFB3F1807F6CD10F
:103390005D4A136D23F08073E16E0B431365236860
:1033A00013F0804F10D0D4F8BC30002B18BFB3F509
:1033B000004F60D1544B1A6922F400421A611A6915
:1033C000D4F8BC100A431A612368002B0FDA636D2E
:1033D000002B18BFB3F1805F02D0B3F1005F50D172
:1033E000494AD36C23F04053616D0B43D364236887
:1033F00013F4000F11D0D4F88C30002B18BFB3F5A4
:10340000800F02D0B3F5000F41D13F4A536D23F432
:103410004003D4F88C100B435365636813F0010F1D
:103420003BD1636813F0020F40D1636813F0040FBF
:1034300045D1636813F0080F4AD1636813F0100F89
:103440004FD1636813F0200F54D106B101263046E6
:10345000F8BD40F2E5512D48FDF7E8F874E740F279
:10346000EF512A48FDF7E2F880E740F2F95127488A
:10347000FDF7DCF88CE740F20F612448FDF7D6F841
:1034800098E740F219612148FDF7D0F8A8E740F22B
:1034900023611E48FDF7CAF8B7E7002104F10800D0
:1034A000FEF7A6FF0028BCD00646BAE7012104F1CA
:1034B0000800FEF79DFF0028B7D00646B5E70221B9
:1034C00004F10800FEF794FF0028B2D00646B0E7EA
:1034D000002104F12800FFF769F80028ADD0064666
:1034E000ABE7012104F12800FFF760F80028A8D01D
:1034F0000646A6E7022104F12800FFF757F8002846
:10350000A3D00126A3E700BF004402584CA5000841
:1035100008B5FEF727FF054B1B6AC3F30213044AE5
:10352000D35C03F01F03D84008BD00BF004402581D
:1035300008A8000810B4794B9A6A9C6AC4F3053C49
:10354000D96AC1F30011DB6BC3F3CC0301FB03F3B6
:1035500014F47C3F00F0DD8002F0030207EE903AA5
:10356000F8EE677A012A4BD0022A00F09880002AF0
:1035700040F0B280694B1B6813F0200F23D06749DD
:103580000A68C2F3C102664BD34007EE103AF8EE68
:10359000476A07EE10CAB8EE476A86EE867A8B6BEA
:1035A000C3F3080306EE903AF8EE666A9FED5D6A93
:1035B00067EE867A76EEA77AF7EE006A77EEA67A5D
:1035C00027EE277A38E007EE10CAF8EE476A9FED3B
:1035D000566A86EE267A514B9B6BC3F3080306EEC0
:1035E000903AF8EE666A9FED4F6A67EE867A76EE5D
:1035F000A77AF7EE006A77EEA67A27EE277A1BE025
:1036000007EE10CAF8EE476A9FED486A86EE267A02
:10361000424B9B6BC3F3080306EE903AF8EE666AE2
:103620009FED406A67EE867A76EEA77AF7EE006A3B
:1036300077EEA67A27EE277A384A936BC3F34623B0
:1036400007EE903AF8EE677AF7EE006A77EEA67A20
:1036500087EE276ABCEEC66A80ED006A936BC3F3FF
:10366000064307EE903AF8EE677A77EEA67A87EE91
:10367000276ABCEEC66A80ED016A936BC3F30663EA
:1036800007EE903AF8EE677A77EEA67AC7EE276AE9
:10369000FCEEE66AC0ED026A5DF8044B704707EE87
:1036A00010CAF8EE476A9FED226A86EE267A1B4B17
:1036B0009B6BC3F3080306EE903AF8EE666A9FED43
:1036C000196A67EE867A76EEA77AF7EE006A77EEE9
:1036D000A67A27EE277AAFE707EE10CAF8EE476A18
:1036E0009FED126A86EE267A0C4B9B6BC3F30803A0
:1036F00006EE903AF8EE666A9FED0A6A67EE867A01
:1037000076EEA77AF7EE006A77EEA67A27EE277AAA
:1037100092E70023036043608360BDE700440258E2
:103720000090D003000000390024744C0024744A37
:1037300020BCBE4B10B4794B9A6A9C6AC4F3055CFA
:10374000D96AC1F300215B6CC3F3CC0301FB03F323
:1037500014F07C7F00F0DD8002F0030207EE903A67
:10376000F8EE677A012A4BD0022A00F09880002AEE
:1037700040F0B280694B1B6813F0200F23D06749DB
:103780000A68C2F3C102664BD34007EE103AF8EE66
:10379000476A07EE10CAB8EE476A86EE867A0B6C67
:1037A000C3F3080306EE903AF8EE666A9FED5D6A91
:1037B00067EE867A76EEA77AF7EE006A77EEA67A5B
:1037C00027EE277A38E007EE10CAF8EE476A9FED39
:1037D000566A86EE267A514B1B6CC3F3080306EE3D
:1037E000903AF8EE666A9FED4F6A67EE867A76EE5B
:1037F000A77AF7EE006A77EEA67A27EE277A1BE023
:1038000007EE10CAF8EE476A9FED486A86EE267A00
:10381000424B1B6CC3F3080306EE903AF8EE666A5F
:103820009FED406A67EE867A76EEA77AF7EE006A39
:1038300077EEA67A27EE277A384A136CC3F346232D
:1038400007EE903AF8EE677AF7EE006A77EEA67A1E
:1038500087EE276ABCEEC66A80ED006A136CC3F37C
:10386000064307EE903AF8EE677A77EEA67A87EE8F
:10387000276ABCEEC66A80ED016A136CC3F3066367
:1038800007EE903AF8EE677A77EEA67AC7EE276AE7
:10389000FCEEE66AC0ED026A5DF8044B704707EE85
:1038A00010CAF8EE476A9FED226A86EE267A1B4B15
:1038B0001B6CC3F3080306EE903AF8EE666A9FEDC0
:1038C000196A67EE867A76EEA77AF7EE006A77EEE7
:1038D000A67A27EE277AAFE707EE10CAF8EE476A16
:1038E0009FED126A86EE267A0C4B1B6CC3F308031D
:1038F00006EE903AF8EE666A9FED0A6A67EE867AFF
:1039000076EEA77AF7EE006A77EEA67A27EE277AA8
:1039100092E70023036043608360BDE700440258E0
:103920000090D003000000390024744C0024744A35
:1039300020BCBE4B2DE9F04383B080460C466D4A57
:103940006D4B904218BF984214BF4FF001094FF0E1
:1039500000092BD003F50063C31A18BF012302F539
:103960000062904222D00BB3644BC31A18BF0123EC
:1039700002F50062904219D0C3B1614BC31A18BF5F
:10398000012302F50062904210D07BB15D4BC31A57
:1039900018BF012302F50062904207D033B15A4BA1
:1039A000984203D0B3215948FCF740FE23689AB2ED
:1039B00012B1B3F5803F03D3B4215448FCF736FE6F
:1039C0006368112B18BF012B20D9B3F5041F1DD03C
:1039D0000FD8B3F5881F19D007D8032B02D8022BB4
:1039E00014D20FE0122B11D00CE0B3F5901F0DD0C4
:1039F00008E0B3F5441F09D0B3F5481F06D0B3F56E
:103A0000081F03D0B5214148FCF710FE0025C1E096
:103A1000E368032B17D8D8F80820690003238B40EC
:103A200022EA0302E3688B401343C8F80830D8F851
:103A3000042022EA07026368C3F30013AB40134378
:103A4000C8F80430B6E0C4213048FCF7EFFDE2E7E7
:103A5000D6212E48FCF7EAFDB5E0B9F1000F2DD0D4
:103A60002B4BB8EB030318BF01232A4A904525D0FE
:103A700023B3224BB8EB030318BF012302F5006206
:103A800090451BD0D3B11E4BB8EB030318BF0123E5
:103A900002F50062904511D083B11A4BB8EB0303D5
:103AA00018BF012302F50062904507D033B1164BD1
:103AB000984503D0E3211548FCF7B8FD23690F2B87
:103AC00010D8EA08083258F8220005F007018900EA
:103AD0000F238B4020EA030023698B40034348F8FF
:103AE000223082E0E4210948FCF7A0FDE9E7092340
:103AF00013E000BF000002580004025800140258EE
:103B0000001C0258002402580028025884A500080E
:103B1000000C02580008025800238B400343023275
:103B2000664941F822304FF0B0431A68F34322EA65
:103B30000601606810F4801F01D046EA02014FF0D0
:103B4000B0421160526803EA0201606810F4001F7D
:103B500001D046EA02014FF0B0425160D2F8842011
:103B600003EA0201606810F4003F01D046EA020156
:103B70004FF0B042C2F88410D2F880201340616840
:103B800011F4803F01D046EA02034FF0B042C2F880
:103B900080300135266836FA05F200F08C80012766
:103BA000AF403E40F5D0636803F00303013B012BB7
:103BB0007FF62EAF636803F00303032B0FD0A368D7
:103BC000022B3FF645AFD8F80C20690003238B4049
:103BD00022EA0302A3688B401343C8F80C306368E1
:103BE00003F00303022B3FF438AFD8F8002069003C
:103BF00003238B4022EA0302636803F003038B4034
:103C00001343C8F80030636813F4403FC1D02C4B15
:103C1000D3F8F42042F00202C3F8F420D3F8F430D1
:103C200003F002030193019BAA08911C234B53F854
:103C3000210005F0030189000F238B4020EA0300D7
:103C4000204B98453FF468AF03F58063984522D038
:103C500003F58063984520D003F5806398451ED016
:103C600003F5806398451CD003F5806398451AD00E
:103C700003F58063984518D003F58063984516D006
:103C800003F58063984514D003F5806398453FF4AD
:103C90002EAF0A2341E701233FE702233DE7032339
:103CA0003BE7042339E7052337E7062335E70723F6
:103CB00033E7082331E703B0BDE8F0830004005880
:103CC000004402580000025870B5054614460E46DE
:103CD00021B1012C08D86CB1AE6170BD4FF4D57123
:103CE0000648FCF7A3FCF4E740F2AB110348FCF7ED
:103CF0009DFCF0E73604AE61EFE700BF84A5000845
:103D0000F0B4876D0468664E664DAC4218BFB4428D
:103D100042D01835AC423FD01835AC423CD01835B3
:103D2000AC4239D01835AC4236D01835AC4233D01D
:103D30001835AC4230D005F55675AC422CD018354C
:103D4000AC4229D01835AC4226D01835AC4223D02D
:103D50001835AC4220D01835AC421DD01835AC42D5
:103D60001AD01835AC4217D04F4DAC4214D0143590
:103D7000AC4211D01435AC420ED01435AC420BD04D
:103D80001435AC4208D01435AC4205D01435AC42E1
:103D900002D01435AC4207D1446E856E6560C46EA6
:103DA00014B1046F456F656004683D4E3D4DAC42F3
:103DB00018BFB44252D01835AC424FD01835AC427F
:103DC0004CD01835AC4249D01835AC4246D01835E5
:103DD000AC4243D01835AC4240D005F55675AC42E4
:103DE0003CD01835AC4239D01835AC4236D01835F5
:103DF000AC4233D01835AC4230D01835AC422DD05F
:103E00001835AC422AD01835AC4227D0264E274D63
:103E1000AC4218BFB44211D0254DAC420ED014357F
:103E2000AC420BD01435AC4208D01435AC4205D0AE
:103E30001435AC4202D01435AC4224D1C46D04F028
:103E40001F050124AC407C60046863608368402BDC
:103E500020D0036899600368DA6014E0C46D04F050
:103E60001F0C3F2404FA0CF4BC6005682C6824F491
:103E700080242C60046863608368402B05D003684D
:103E800099600368DA60F0BC704703689A60036861
:103E9000D960F8E703689A600368D960F3E700BF68
:103EA0001000024028000240085402581C540258D6
:103EB0003054025803682749274A934218BF8B425F
:103EC0002FD0183293422CD01832934229D0183276
:103ED000934226D01832934223D01832934220D0F6
:103EE000183293421DD002F55672934219D01832FF
:103EF000934216D01832934213D01832934210D006
:103F0000183293420DD0183293420AD0183293429D
:103F100007D01832934204D023F0FF038365806DED
:103F2000704710B4D9B210390C4AA2FB0142C2F357
:103F300002120B4CA25CC2655F2907D96FF309031B
:103F400004338365806D5DF8044B70476FF309039C
:103F50008365F7E71000024028000240ABAAAAAA36
:103F6000D8A7000883699BB9836A012B0AD0022B6A
:103F700002D00BB100207047C36A13F0807F2AD1B2
:103F800000207047C36AB3F1C07F26D0002070477D
:103F9000B3F5005F0AD0836A022B26D9032B26D102
:103FA000C36A13F0807F24D100207047836A032BFB
:103FB00003D8DFE803F01404140A00207047C36A32
:103FC00013F0807F0DD100207047C36AB3F1C07F2A
:103FD00009D0002070470120704701207047012060
:103FE0007047012070470120704701207047002072
:103FF000704701207047000003682149214A93421D
:1040000018BF8B4227D01432934224D014329342EB
:1040100021D0143293421ED0143293421BD014325A
:10402000934218D01432934215D0DAB2103A16499E
:10403000A1FB0212120915491944A8291ED9144BD3
:1040400013449B000366134B436602F01F020123D7
:10405000934083667047DBB2083B0F4AA2FB032301
:104060000E4A02EB1312920002660D4A4266C3F337
:104070000413012202FA03F3836670470832DEE775
:10408000085402581C540258ABAAAAAAF0FBFDBF60
:104090000082001080080240CDCCCCCC00960016E7
:1040A0008058025801794A1E072A2BD830B4036879
:1040B000154D164CA34218BFAB4218D01434A3427E
:1040C00015D01434A34212D01434A3420FD01434A8
:1040D000A3420CD01434A34209D01434A34206D016
:1040E0000B4B0B449B00C3660A4B036705E00A4B6E
:1040F0000B449B00C366094B03670123934043674E
:1041000030BC7047704700BF085402581C54025816
:104110003F820010400902403F9600164059025865
:1041200070B5044601F080FC002C00F0E0820546EA
:1041300023688849884A8B4218BF934246D0183278
:10414000934243D01832934240D0183293423DD02C
:10415000183293423AD01832934237D018329342F1
:1041600034D002F55672934230D0183293422DD09B
:10417000183293422AD01832934227D018329342F1
:1041800024D01832934221D0183293421ED01832D4
:1041900093421BD0714A934218D01432934215D0E7
:1041A0001432934212D0143293420FD014329342FD
:1041B0000CD01432934209D01432934206D01432F8
:1041C000934203D0E6216648FCF730FAA368002B3F
:1041D00018BF402B02D0802B40F09980E368B3F5E4
:1041E000007F18BF002B40F097802369B3F5806FE4
:1041F00018BF002B40F095806369002B18BFB3F502
:10420000006F03D0B3F5805F40F09080A369002B6E
:1042100018BFB3F5005F03D0B3F5804F40F08B803B
:10422000E369002B18BFB3F5807F08D0202B06D0A0
:10423000B3F5802F03D0B3F5402F40F08180236A7F
:10424000002B18BFB3F5803F05D0B3F5003F02D077
:10425000B3F5403F79D123683E493F4A934218BFA6
:104260008B4200F08380183293427FD01832934201
:104270007CD01832934279D01832934276D01832DB
:10428000934273D01832934270D002F55672934223
:104290006CD01832934269D01832934266D01832EB
:1042A000934263D01832934260D0183293425DD06B
:1042B000183293425AD01832934257D0274A29498C
:1042C0008B4218BF93420CBF0122002200F0AA814A
:1042D00025498B4200F0A68114318B4200F0A28167
:1042E00014318B4200F09E8114318B4200F09A8190
:1042F00014318B4200F0968114318B4200F0928190
:1043000040236365032384F835300120BDE0E721B5
:104310001348FCF78BF961E7E8211148FCF786F9AF
:1043200063E7E9210E48FCF781F965E7EA210C48CB
:10433000FCF77CF96AE7EB210948FCF777F96FE7AE
:10434000EC210748FCF772F979E7ED210448FCF706
:104350006DF980E71000024028000240085402581E
:10436000BCA500081C540258305402586368732BD3
:104370005ED8636A002B18BF042B5ED1636AD3B189
:10438000A36A032B5ED8E36A002B18BFB3F5000FB6
:1043900005D0B3F1807F02D0B3F1C07F57D1236B3A
:1043A000002B18BFB3F5001F05D0B3F5800F02D066
:1043B000B3F5C00F50D1022384F83530002384F8C0
:1043C000343023689049914A934218BF8B4248D0B9
:1043D0001832934245D01832934242D01832934259
:1043E0003FD0183293423CD01832934239D0183221
:1043F000934236D002F55672934232D0183293422D
:104400002FD0183293422CD01832934229D0183230
:10441000934226D01832934223D01832934220D0B0
:10442000183293421DD01A6822F001021A601CE073
:10443000F1217748FCF7FAF89BE7F2217448FCF782
:10444000F5F89BE7F7217248FCF7F0F89BE7F821B5
:104450006F48FCF7EBF8A2E7F9216D48FCF7E6F8A6
:10446000A9E71A6822F001021A6023681A6812F09C
:10447000010F0BD001F0D8FA401B0528F5D92023F5
:104480006365032384F83530012070BD1A686149E3
:104490001140A268E0680243206902436069024358
:1044A000A0690243E0690243206A02430A43616A49
:1044B000042900F09A80584909686FF30F01B1F19F
:1044C000005F10D361682E2940F2948052290AD8E7
:1044D0003F2908D33F39514820FA01F111F0010F6B
:1044E00001D042F480121A602668756925F007052C
:1044F000636A1D43042B08D1A36A1D43E36A23B1F9
:104500002046FFF72FFD002878D175612046FFF780
:10451000D1FCE36D03F01F023F23934083602368C7
:1045200039493A4A934218BF8B4242D018329342DB
:104530003FD0183293423CD01832934239D01832CF
:10454000934236D01832934233D01832934230D04F
:1045500002F5567293422CD01832934229D0183269
:10456000934226D01832934223D01832934220D05F
:10457000183293421DD0183293421AD01832934207
:1045800017D0274A934214D01432934211D01432D8
:1045900093420ED0143293420BD01432934208D07F
:1045A0001432934205D01432934202D01432934213
:1045B00015D12046FFF720FDA368802B00F08A80EC
:1045C000236E22791A60636EA26E5A606368013BA3
:1045D000072B40F282800023E36623676367002095
:1045E0006065012384F835304FE7E16A206B0143B1
:1045F0000A4360E72929FFF476AF72E74023636539
:10460000012084F8350040E71000024028000240F5
:10461000BCA500083F8010FE0010005C0F030F00D7
:10462000085402588AB9334A93420ED01432934246
:104630000BD01432934208D01432934205D0143276
:10464000934202D01432934202D16368112B36D8C0
:10465000022384F83530002384F8343021680A6856
:104660006FF31012A368402B32D0802B2DD0002383
:10467000E06843EAD003206943EAD003606943EA73
:10468000D003A06943EAD003E06943EAD003206A7B
:1046900043EA101313430B602268174B1344174A65
:1046A000A2FB03231B099B00E3652046FFF702FCE6
:1046B000E26D02F01F0101228A4042602FE740F2C2
:1046C0006B110F48FBF7B2FFC2E74FF48043CFE70F
:1046D0001023CDE70023636072E72046FFF7E2FC7A
:1046E000E36E00221A60236F626F5A6077E7012041
:1046F000CBE600BF30540258F8ABFDA7CDCCCCCCF4
:10470000BCA50008F8B504460F4616461D46581EBF
:104710004FF6FE73984216D8002C00F0448194F8AE
:104720003430012B00F04181012384F8343094F8B7
:104730003530012B0DD04FF400636365002384F8FE
:1047400034300120F8BD40F2AE219948FBF76EFFEE
:10475000E2E7022384F83530002363652368954936
:10476000954A934218BF8B422FD0183293422CD0D7
:104770001832934229D01832934226D018329342ED
:1047800023D01832934220D0183293421DD002F524
:104790005672934219D01832934216D0183293426F
:1047A00013D01832934210D0183293420DD01832E1
:1047B00093420AD01832934207D01832934204D061
:1047C0001A6822F001021A6003E01A6822F001025E
:1047D0001A602B46324639462046FFF791FA236885
:1047E0007449754A934218BF8B4238D018329342AD
:1047F00035D01832934232D0183293422FD018322B
:1048000093422CD01832934229D01832934226D0AA
:1048100002F55672934222D0183293421FD01832BA
:1048200093421CD01832934219D01832934216D0BA
:104830001832934213D01832934210D01832934258
:104840000DD01A6822F00E0242F00A021A60236CA0
:1048500093B12268136843F0040313600CE01A68F4
:1048600022F01E0242F016021A60236C23B1226865
:10487000136843F00803136023684E494E4A93427D
:1048800018BF8B4242D0183293423FD01832934225
:104890003CD01832934239D01832934236D0183275
:1048A000934233D01832934230D002F5567293427D
:1048B0002CD01832934229D01832934226D0183285
:1048C000934223D01832934220D0183293421DD005
:1048D000183293421AD01832934217D0374A934273
:1048E00014D01432934211D0143293420ED01432A9
:1048F00093420BD01432934208D01432934205D025
:104900001432934202D0143293420ED1236E1A68AD
:1049100012F4803F03D01A6842F480721A60E36E8A
:104920001BB11A6842F480721A6023682149224A36
:10493000934218BF8B4230D0183293422DD0183298
:1049400093422AD01832934227D01832934224D06F
:104950001832934221D0183293421ED002F556727B
:1049600093421AD01832934217D01832934214D07F
:104970001832934211D0183293420ED0183293421B
:104980000BD01832934208D01832934205D01A68DF
:1049900042F001021A600020D4E61A6842F00102D7
:1049A0001A600020CEE60120CCE60220CAE600BF55
:1049B000BCA500081000024028000240085402581C
:1049C000002800F0278108B5024690F83530022B08
:1049D00003D080234365012008BD03688F489049B8
:1049E0008B4218BF83420CBF0120002065D01831D4
:1049F0008B4262D018318B425FD018318B425CD031
:104A000018318B4259D018318B4256D018318B4215
:104A100053D001F556718B424FD018318B424CD098
:104A200018318B4249D018318B4246D018318B4215
:104A300043D018318B4240D018318B423DD01831D1
:104A40008B423AD0196821F00E011960136873483F
:104A500073498B4218BF83426AD072498B4267D038
:104A600018318B4264D018318B4261D018318B429F
:104A70005ED018318B425BD018318B4258D001F593
:104A800056718B4254D018318B4251D018318B4221
:104A90004ED018318B424BD018318B4248D0183150
:104AA0008B4245D018318B4242D018318B423FD0D7
:104AB000196821F0010119603EE0042182F83510E7
:104AC00080BB584A93422DD0183293422AD01832D4
:104AD000934227D01832934224D01832934221D0E7
:104AE000183293421ED002F5567293421AD01832F1
:104AF000934217D01832934214D01832934211D0F7
:104B0000183293420ED0183293420BD0183293428F
:104B100008D01832934205D01A6822F001021A60B8
:104B2000002059E71A6822F001021A60002053E7BA
:104B3000196821F0010119601368384838498B421F
:104B400018BF834242D018318B423FD018318B427C
:104B50003CD018318B4239D018318B4236D01831C5
:104B60008B4233D018318B4230D001F556718B42D5
:104B70002CD018318B4229D018318B4226D01831D5
:104B80008B4223D018318B4220D018318B421DD05C
:104B900018318B421AD018318B4217D022498B42E0
:104BA00014D014318B4211D014318B420ED01431F9
:104BB0008B420BD014318B4208D014318B4205D07C
:104BC00014318B4202D014318B4217D1116E0B6815
:104BD00023F480730B60906DD36D03F01F010123EC
:104BE0008B404360536E916E5960D36E33B1196838
:104BF00021F480711960136F516F5960012382F89D
:104C00003530002382F83430136D2BB110469847AD
:104C10000020E1E6012070470020DDE610000240A0
:104C2000280002404000024008540258F0B583B00A
:104C30000446002301937D4B1D687D4BA3FB053586
:104C4000AD0A876D3E68D7F800C0036879497A4895
:104C5000834218BF8B420CBF0120002061D0774AED
:104C600093425ED0183293425BD01832934258D0B0
:104C70001832934255D01832934252D01832934290
:104C80004FD002F5567293424BD01832934248D01F
:104C90001832934245D01832934242D01832934290
:104CA0003FD0183293423CD01832934239D0183258
:104CB000934236D06249634A934218BF8B4212D066
:104CC000614A93420FD0143293420CD01432934273
:104CD00009D01432934206D01432934203D01432D6
:104CE000934240F05F821A68E16D01F01F010420D9
:104CF000884010EA0C0F00F0A58212F0040F00F0BB
:104D0000A182786012F4004F00F0588212F4803FC4
:104D100040F04E82A36C002B00F04482204698475E
:104D200040E2E26D02F01F0108228A40324241D087
:104D300070BB424A93422BD01832934228D018328B
:104D4000934225D01832934222D0183293421FD07A
:104D5000183293421CD002F55672934218D0183282
:104D6000934215D01832934212D0183293420FD08A
:104D7000183293420CD01832934209D01832934221
:104D800006D01832934203D01A68C2F3C00202E080
:104D90001A68C2F380026AB11A6822F004021A602B
:104DA000E36D03F01F0208239340BB60636D43F083
:104DB00001036365E26D02F01F0226FA02F313F0AD
:104DC000010F47D023681B481B498B4218BF834201
:104DD0003CD018318B4239D018318B4236D0183143
:104DE0008B4233D018318B4230D018318B422DD0CA
:104DF00018318B422AD001F556718B4226D01831DA
:104E00008B4223D018318B4220D018318B421DD0D9
:104E100018318B421AD018318B4217D018318B427F
:104E200014D018318B4211D01B6813E064000024A9
:104E3000B5814E1B10000240280002404000024095
:104E4000085402581C540258305402585B6913F03D
:104E5000800F3BD1E36D03F01F03042202FA03F33A
:104E600033423FD02268954895498A4218BF824212
:104E700034D018318A4231D018318A422ED01831BC
:104E80008A422BD018318A4228D018318A4225D044
:104E900018318A4222D001F556718A421ED018314B
:104EA0008A421BD018318A4218D018318A4215D054
:104EB00018318A4212D018318A420FD018318A42F2
:104EC0000CD018318A4209D013680BE001239340BB
:104ED000BB60636D43F002036365BBE7126812F0C9
:104EE000020F3DD1E36D03F01F03102202FA03F31A
:104EF00033425FD02268714871498A4218BF8242AA
:104F000034D018318A4231D018318A422ED018312B
:104F10008A422BD018318A4228D018318A4225D0B3
:104F200018318A4222D001F556718A421ED01831BA
:104F30008A421BD018318A4218D018318A4215D0C3
:104F400018318A4212D018318A420FD018318A4261
:104F50000CD018318A4209D01268C2F3800208E0EE
:104F6000BB60636D43F004036365BBE71268C2F383
:104F7000C002FAB1BB6023681A6812F4802F0DD00A
:104F80001B6813F4002F04D1236C9BB12046984773
:104F900010E0A36C73B1204698470BE01A6812F436
:104FA000807F03D11A6822F008021A60236C0BB1CB
:104FB00020469847E36D03F01F03202202FA03F313
:104FC000334200F0918022683C483D498A4218BF34
:104FD00082422ED018318A422BD018318A4228D0F2
:104FE00018318A4225D018318A4222D018318A429B
:104FF0001FD018318A421CD001F556718A4218D050
:1050000018318A4215D018318A4212D018318A429A
:105010000FD018318A420CD018318A4209D0183189
:105020008A4206D018318A4203D01268C2F3400285
:1050300002E01268C2F30012002A55D0BB6094F857
:105040003530042B0ED023681A6812F4802F39D023
:105050001B6813F4002F2CD1636C002B44D0204626
:10506000984741E02268136823F016031360226812
:10507000536923F080035361236CB3B12268136832
:1050800023F008031360E36D03F01F023F239340F6
:10509000BB60012384F83530002384F83430236D5D
:1050A000002B7FD0204698477CE0A36C002BE5D1F5
:1050B000E9E7E36BC3B12046984715E010000240D2
:1050C000280002401A6812F4807F09D11A6822F081
:1050D00010021A60012384F83530002384F834303C
:1050E000E36B0BB120469847636D002B5AD0636D7C
:1050F00013F0010F52D0042384F835302368964909
:10510000964A934218BF8B422FD0183293422CD02C
:105110001832934229D01832934226D01832934243
:1051200023D01832934220D0183293421DD002F57A
:105130005672934219D01832934216D018329342C5
:1051400013D01832934210D0183293420DD0183237
:1051500093420AD01832934207D01832934204D0B7
:105160001A6822F001021A6003E01A6822F00102B4
:105170001A60019B01330193AB4204D823681B687A
:1051800013F0010FF5D123681B6813F0010F0BD04A
:10519000032384F83530002384F83430E36C0BB1FA
:1051A0002046984703B0F0BD012384F83530F2E77C
:1051B000236C002BF6D020469847F3E712F0200F1F
:1051C0003AD123686449654A934218BF8B422FD075
:1051D000183293422CD01832934229D0183293427D
:1051E00026D01832934223D01832934220D018325E
:1051F00093421DD002F55672934219D01832934251
:1052000016D01832934213D01832934210D018326D
:1052100093420DD0183293420AD01832934207D0ED
:105220001832934204D01A6822F004021A6003E094
:105230001A6822F008021A60236C002BB2D02046B4
:105240009847AFE70220884010EA0C0F60D012F0B8
:10525000020F5DD0786012F4004F0ED012F4803F40
:1052600005D1636C002B9DD0204698479AE7E36BED
:10527000002B97D02046984794E712F0200F40D19A
:1052800023683549354A934218BF8B422FD01832D4
:1052900093422CD01832934229D01832934226D010
:1052A0001832934223D01832934220D018329342BE
:1052B0001DD002F55672934219D01832934216D07F
:1052C0001832934213D01832934210D018329342BE
:1052D0000DD0183293420AD01832934207D01832B8
:1052E000934204D01A6822F00A021A6003E01A6896
:1052F00022F014021A60012384F83530002384F868
:105300003430E36B002B3FF44DAF2046984749E71C
:10531000082000FA01F111EA0C0F3FF443AF12F03C
:10532000080F3FF43FAF1A6822F00E021A60E36DD7
:1053300003F01F03012202FA03F37B60626584F825
:105340003520002384F83430E36C002B3FF42AAF7F
:105350002046984726E700BF100002402800024080
:1053600070B40468264E274DAC4218BFB44233D007
:105370001835AC4230D01835AC422DD01835AC427F
:105380002AD01835AC4227D01835AC4224D0183575
:10539000AC4221D005F55675AC421DD01835AC4253
:1053A0001AD01835AC4217D01835AC4214D0183585
:1053B000AC4211D01835AC420ED01835AC420BD0EF
:1053C0001835AC4208D063608368402B13D0036863
:1053D00099600368DA6007E063608368402B05D05A
:1053E000036899600368DA6070BC704703689A606C
:1053F0000368D960F8E703689A600368D960F3E747
:1054000010000240280002402DE9F04104460D46FC
:1054100017469846069E721E4FF6FE739A4262D851
:105420002068594A594B904218BF984246D01833C9
:10543000984243D01833984240D0183398423DD018
:10544000183398423AD01833984237D018339842DC
:1054500034D003F55673984230D0183398422DD08B
:10546000183398422AD01833984227D018339842DC
:1054700024D01833984221D0183398421ED01833C4
:1054800098421BD0424B984218D01433984215D002
:105490001433984212D0143398420FD014339842E8
:1054A0000CD01433984209D01433984206D01433E8
:1054B000984203D0E0213748FBF7B8F8A368802B67
:1054C00016D094F83430012B00F0C981012384F800
:1054D000343094F83530012B0FD04FF400636365FE
:1054E0000120BDE8F081DF212A48FBF79FF897E70C
:1054F0004FF4807363650120F3E7022384F83530AD
:105500000023636523682049204A934218BF8B42D9
:1055100042D0183293423FD0183293423CD01832D6
:10552000934239D01832934236D01832934233D056
:105530001832934230D002F5567293422CD0183272
:10554000934229D01832934226D01832934223D066
:105550001832934220D0183293421DD01832934211
:105560001AD01832934217D0196848F220020A4321
:105570001A602368C3F81080A26DE36D03F01F0169
:1055800001238B40536015E01000024028000240C8
:1055900008540258F4A500081A6842F480221A60E0
:1055A0002368C3F81080A26DE36D03F01F013F2351
:1055B0008B40936033463A4629462046FFF7D0FE9B
:1055C00023684949494A934218BF8B4242D0183256
:1055D00093423FD0183293423CD01832934239D094
:1055E0001832934236D01832934233D01832934255
:1055F00030D002F5567293422CD01832934229D003
:105600001832934226D01832934223D01832934254
:1056100020D0183293421DD0183293421AD018323B
:10562000934217D0324A934214D01432934211D08D
:10563000143293420ED0143293420BD01432934260
:1056400008D01432934205D01432934202D014325F
:10565000934207D1636EA26E5A60E36E13B1236F5B
:10566000626F5A6023682049204A934218BF8B42D8
:1056700040D0183293423DD0183293423AD018327B
:10568000934237D01832934234D01832934231D0FB
:10569000183293422ED002F5567293422AD0183215
:1056A000934227D01832934224D01832934221D00B
:1056B000183293421ED0183293421BD018329342B4
:1056C00018D01832934215D01A6822F00E0242F018
:1056D0000A021A60236C002B00F0B680226813685F
:1056E00043F00403136019E0100002402800024058
:1056F000085402581A6822F01E0242F016021A607C
:105700002268536943F080035361236C002B00F03F
:1057100096802268136843F0080313602368514998
:10572000514A934218BF8B4242D0183293423FD025
:10573000183293423CD01832934239D018329342F7
:1057400036D01832934233D01832934230D002F51B
:10575000567293422CD01832934229D01832934279
:1057600026D01832934223D01832934220D01832D8
:1057700093421DD0183293421AD01832934217D058
:105780003A4A934214D01432934211D014329342C5
:105790000ED0143293420BD01432934208D01432FC
:1057A000934205D01432934202D0143293420ED168
:1057B000236E1A6812F4803F03D01A6842F4807294
:1057C0001A60E36E1BB11A6842F480721A60236893
:1057D0002449254A934218BF8B423AD0183293424B
:1057E00037D01832934234D01832934231D0183225
:1057F00093422ED0183293422BD01832934228D0A5
:1058000002F55672934224D01832934221D01832B6
:1058100093421ED0183293421BD01832934218D0B4
:105820001832934215D01832934212D01832934254
:105830000FD01A6842F001021A60002051E6A36CF2
:10584000002B7FF466AF69E7A36C002B7FF446AFB3
:1058500064E71A6842F001021A60002041E6022063
:105860003FE600BF100002402800024008540258E2
:1058700010B403681E4C1F48834218BFA3422DD0AA
:10588000183083422AD01830834227D01830834200
:1058900024D01830834221D0183083421ED01830D3
:1058A00083421BD000F55670834217D018308342D4
:1058B00014D01830834211D0183083420ED01830E3
:1058C00083420BD01830834208D01830834205D071
:1058D0001830834202D04AB1196101E022B9D9607F
:1058E00000205DF8044B70471961F9E7D960F7E7CC
:1058F000100002402800024010B50446431E012B50
:105900000CD8164BDB6813F0040F0DD1134BDB687A
:1059100003F00703A3421FD0012010BD4FF4A17173
:105920000F48FAF783FEECE70C4AD36823F007032D
:105930002343D36000F078F80446084B5B6813F407
:10594000005F07D100F070F8001BB0F57A7FF4D942
:105950000120E2E70020E0E70020DEE700480258EF
:105960002CA60008104B1B780BB90120704710B50E
:1059700004464FF47A70B0FBF3F30C4A1068B0FBA6
:10598000F3F0FBF76DFA68B90F2C01D901200AE09A
:10599000002221464FF0FF30FBF730FA044B1C6029
:1059A000002000E0012010BD580000246400002405
:1059B0005C00002410B50320FBF702FAFCF792F913
:1059C0000F498B69C3F303230E4AD35C03F01F0313
:1059D000D8408B6903F00F03D35C03F01F0320FA58
:1059E00003F3094A1360094B18600020FFF7BAFF60
:1059F00010B10124204610BD0446FBF789F9F9E7F0
:105A00000044025808A80008600000246400002434
:105A1000034B1B78034A11680B441360704700BFA7
:105A200058000024389C0024014B1868704700BFC0
:105A3000389C002438B50446FFF7F6FF0546B4F15C
:105A4000FF3F02D0044B1B781C44FFF7EDFF401BC7
:105A5000A042FAD338BD00BF58000024014B18689B
:105A6000000C70470010005C38B504460D4610F07D
:105A7000706F06D0064A506820EA04002843506040
:105A800038BD40F27A210348FAF7D0FDF2E700BFB3
:105A90000004005864A6000803689A6912F0020F17
:105AA00001D000229A6203689A6912F0010F03D1B3
:105AB0009A6942F001029A61704700002DE9F041B5
:105AC00006460C4690461F46069D03682649274A0F
:105AD0008B4218BF93420BD002F58062934207D0ED
