:020000040800F2
:1000000028AC0024E5030008D1DE000831D2000846
:10001000C9DE0008B916000829FF0008000000002A
:10002000000000000000000000000000F1E90008EE
:10003000912700080000000011E2000851EA0008C2
:10004000FF030008FF030008FF030008FF03000888
:10005000FF030008FF030008FF030008FF03000878
:10006000FF030008FF030008FF030008211B00082E
:10007000FF030008FF030008FF030008FF03000858
:10008000FF030008FF030008FF030008FF03000848
:10009000FF030008FF030008FF030008FF03000838
:1000A000FF030008FF030008FF030008FF03000828
:1000B000FF030008FF030008FF030008FF03000818
:1000C000FF030008FF030008FF030008FF03000808
:1000D000FF030008FF030008FF030008FF030008F8
:1000E000FF030008FF03000800000000FF030008F2
:1000F000FF030008FF030008FF030008FF030008D8
:10010000FF030008FF030008FF030008FF030008C7
:10011000FF030008FF030008FF030008FF030008B7
:10012000FF030008FF030008FF030008FF030008A7
:10013000FF030008FF030008FF030008FF03000897
:1001400000000000000000000000000000000000AF
:10015000FF030008FF030008FF030008FF03000877
:10016000FF030008FF030008FF030008FF03000867
:10017000FF030008FF030008111B00080000000037
:10018000FF030008FF030008FF030008FF03000847
:10019000FF030008FF030008FF030008FF03000837
:1001A000FF030008FF030008FF030008FF03000827
:1001B000FF030008FF030008FF030008FF03000817
:1001C000FF030008FF030008FF030008FF03000807
:1001D000FF030008FF030008FF030008FF030008F7
:1001E000FF030008FF030008FF030008FF030008E7
:1001F000FF030008FF030008FF030008FF030008D7
:10020000FF030008FF030008FF030008FF030008C6
:10021000FF030008FF030008FF030008FF030008B6
:10022000FF030008FF030008FF03000800000000B0
:10023000FF030008FF03000800000000FF030008A0
:10024000FF030008FF030008FF030008FF03000886
:10025000FF030008FF030008FF030008FF03000876
:10026000FF030008FF030008FF030008FF03000866
:10027000FF030008FF030008FF0300080000000060
:10028000FF030008FF030008FF0300080000000050
:1002900000000000FF03000800F002F800F092F8F0
:1002A0000AA090E8000C82448344AAF10107DA45D1
:1002B00001D100F087F8AFF2090EBAE80F0013F091
:1002C000010F18BFFB1A43F001031847A067010094
:1002D000C0670100103A24BF78C878C1FAD8520725
:1002E00024BF30C830C144BF04680C6070470000B0
:1002F0000023002400250026103A28BF78C1FBD82F
:10030000520728BF30C148BF0B6070476E2900F00C
:100310000982702900F04D83662912F072836529E5
:1003200012F06F83672912F06C83612912F06B83DE
:1003300003681B0A28BF41F08001692900F0B681DB
:10034000642900F0B381752900F0B0816F2900F0B5
:10035000DB82782900F01983E92900F07582E4290D
:1003600000F07282F52900F06F82EF2900F0D88248
:10037000F82900F018830368DB0928BF41F08001E9
:10038000632901F01980732901F01E80E32901F02F
:100390002980F32901F02E80002070471FB512F04C
:1003A00023FB01F07DF804000020002112F006FB81
:1003B000401C60600020002112F0EAFAE0601FBDDE
:1003C00010B510BD01F03EF81146FFF7E7FF10F041
:1003D000D3FC01F01BF903B4FFF7F2FF03BC01F0FB
:1003E00061F900000948804709480047FEE7FEE739
:1003F000FEE7FEE7FEE7FEE7FEE7FEE7FEE7FEE7D5
:1004000004480549054A064B7047000059EB0008AF
:1004100099020008289C002428AC002428A4002469
:1004200028A4002453EA020C00F069802DE9F04B67
:100430004FF00006002B1FBFB3FA83F503FA05F453
:1004400024FA05F65E4012BF1643B2FA82F502FAAC
:1004500005F4C5F120051EBF22FA05FC44EA0C0490
:10046000203556EA044C4FEA144418BF641C4FF080
:1004700000084FF00009904271EB030C39D30029BA
:1004800019BFB1FA81F701FA07F6B0FA80F700FA5E
:1004900007F6C7F120071EBF20FA07FC46EA0C0644
:1004A0002037B6FBF4FCA7EB0507103F07F01F0B46
:1004B000CBF120062CFA06F60CFA0BFB44BFB34630
:1004C0000026202FA4BF5E464FF0000B5BEA060C0F
:1004D00008BF4FF0010B19EB0B0948EB0608ABFB0B
:1004E000027C06FB02CC0BFB03CCC01B71EB0C01A6
:1004F000C1E70B46024641464846BDE8F08B13B5BE
:10050000084318BF4FF0FF300146AFF30080BDE84D
:100510001C4070477CB51D4616460C00009007D065
:100520004142A14202D32044401E01E04FF0FF307F
:10053000064B7B442A4669460190304600F00BF991
:10054000002C02D0009A002111707CBD47020000EF
:100550004FF000020429C0F0128010F0030C00F0EC
:100560001B80CCF1040CBCF1020F18BF00F8012B6A
:10057000A8BF20F8022BA1EB0C0100F00DB85FEA38
:10058000C17C24BF00F8012B00F8012B48BF00F804
:10059000012B70474FF0000200B513469446964673
:1005A000203922BFA0E80C50A0E80C50B1F1200186
:1005B000BFF4F7AF090728BFA0E80C5048BF0CC034
:1005C0005DF804EB890028BF40F8042B08BF704792
:1005D00048BF20F8022B11F0804F18BF00F8012B04
:1005E000704770477047704770B50446856900686A
:1005F000C10601D5302600E02026C00707D070BD17
:10060000D4E9012130469047206A401C20626D1ECB
:10061000F6D570BD70B5044685690078C00707D16E
:1006200070BDD4E9012120209047206A401C20623F
:100630006D1EF6D570BD09684A0501D540B27047F8
:10064000C905FCD500B2704709684A0501D5C0B29A
:100650007047C905FCD580B2704770B50C46054699
:10066000012A05D02878800600D5EA69002302E037
:10067000012305E05B1C934202D2E05C0028F9D123
:10068000A869E618C01AA861286A18442862284692
:10069000FFF7AAFF04E0D5E9012114F8010B904708
:1006A000B442F8D32846FFF7B5FF70BD2DE9F041FD
:1006B0000646002410687529314616A510D0FFF7AC
:1006C000BAFF002802DA404213A507E031688A0722
:1006D00001D512A502E0490704D511A5012401E0C6
:1006E000FFF7B2FF00210A2206F1240709E0B0FB60
:1006F000F2FCB0FBF2F302FB1C00303078541846D9
:10070000491C0028F3D123462A463046BDE8F04173
:1007100000F063BA000000002D0000002B00000074
:100720002000000011680268006A530501D50870B6
:100730000AE0D30501D5088006E0130603D5C217E9
:10074000C1E9000200E008600120704701694A1C0D
:1007500002610878704700B58FB0CDE90131002102
:10076000059105497944CDE903101146684600F02A
:100770002BF90FB000BD0000E5FFFFFFD1E900231A
:100780009A4202D2531C0B60107070472DE9FF5F34
:1007900015468A460446DFF8AC80F8440027D8E9BD
:1007A00000103E46CDE9001010E03AF816106A46F7
:1007B00002A800F023FE411C07D02178890603D54A
:1007C000E269391891420DD80744761C20788006DA
:1007D00002D5E069B84205DDAE42E6DB3AF8160024
:1007E0000028E2D1A069C01BA0612046FFF7FCFEF3
:1007F000D8E90010CDE90010002017E03AF81810F1
:100800006A4602A800F0FAFDB0F1FF3F81460BD026
:1008100000250DF1080B05E0D4E901211BF80500C6
:1008200090476D1C4D45F7D308F10100B04280465A
:10083000E4DB206A384420622046FFF7EBFEBDE887
:10084000FF9F00006E2201002DE9F0418046D21D7D
:1008500022F007020025D2E90002F52915A614D0DE
:10086000011E72F1000106DA0023D0EB030063EBF6
:10087000020211A608E0D8F800108B0701D50FA6D8
:1008800002E0490701D50EA601251146002408F112
:10089000240704E000F05CF930323A55641C50EA59
:1008A0000102F7D12B46324621464046BDE8F041D1
:1008B00000F093B9000000002D0000002B000000A4
:1008C0002000000030B4002100F1240408E002F010
:1008D0000705D208303542EA4372DB086554491CEB
:1008E00052EA0305F3D10468002310A2250708D5B6
:1008F00004F020040C4304D0C46901230CA2641E3C
:10090000C46130BC00F069B910B5044621461068D6
:10091000FFF79AFE02462046BDE810400023D1E7CB
:10092000D21D22F00701D1E90023CBE7000000002F
:1009300030000000F0B40D460188090502D5214CB5
:100940007C4402E01F4C7C440E34002100F124065C
:1009500008E002F00F071209E75D42EA03721B0983
:100960007754491C52EA0307F3D102780023120797
:1009700004D5702D06D009B1022311342246F0BCF3
:1009800000F02BB901231034F8E770B504460D468A
:1009900021461068FFF758FE024629462046BDE86A
:1009A00070400023C6E7D21D22F00703D3E90023DD
:1009B000C0E70368126843F0200303600823C361A3
:1009C0000023B7E7D02001002DE9F05F89460446F7
:1009D0004FF0000ADFF874B1FB44C0F820A02046B5
:1009E000E1688847002874D0252806D0D4E9012181
:1009F0009047206A401C2062F1E700265F462046AF
:100A0000E16888472028054607DB312D05D2781993
:100A100010F8200C08B10643F1E7B00701D526F025
:100A20000406C4F81CA00027C4F818A02A2D09D079
:100A3000284611F0A5FF38B304EB8708303DC8F80D
:100A4000185019E059F8041B204604EB8702916105
:100A5000E1688847012F054618D1E069002820DAAF
:100A600026F020061DE0D8F8180000EB800005EB0A
:100A700040003038C8F818002046E168884705462D
:100A800011F07EFF0028EED1012F0AD02E2D08D1C3
:100A90002046E16888477F1C0546022F46F0200665
:100AA000C4DBA069002803DA404246F00106A061D9
:100AB000F00701D026F010066C2D0BD0682D09D060
:100AC0004C2D39D06A2D35D0742D35D07A2D33D0B8
:100AD00016E038E0E1682F4620468847B8420546D0
:100AE00009D16C2F26D04FF48060E1680643204680
:100AF0008847054604E06C2F1AD04FF480700643F7
:100B00000DB3A5F14100192802D8203546F400663E
:100B10004A462946204626604E46FFF7F7FB80B13D
:100B200001280BD0F61D26F0070000F1080956E752
:100B30004020E4E78020D8E70020D6E706F104094A
:100B40004DE7284652E7206ABDE8F09F602001008B
:100B500030B5B0F10A0271F100034FEA900E4EEA8F
:100B6000817EB0EB0E0061EB91014FEA101E4EEA60
:100B7000017E10EB0E0041EB11114FEA102E4EEAF0
:100B8000016E10EB0E0041EB11214FEA104E4EEAC0
:100B9000014E10EB0E0041EB1141401841F10001F4
:100BA0004FEAD00040EA41704FEAD1014FEA810498
:100BB00044EA907410EB800544EB01046D1944EB9A
:100BC0000404521BA3414FF0000348BF0A3200D572
:100BD00030BD401C41F1000130BD2DE9F0470D460C
:100BE00099469246044600F124080168880604D517
:100BF000E06921F01001216000E00120A84201DD40
:100C0000471B00E00027A1697A1902EB0900081AC6
:100C1000A0612078C00602D42046FFF7E5FC00263C
:100C200008E0D4E901211AF806009047206A401C28
:100C3000761C20624E45F4DB2078C0060AD520469B
:100C4000FFF7D2FC06E0D4E9012130209047206A6A
:100C5000401C2062381EA7F10107F4DC07E0D4E94C
:100C6000012118F805009047206A401C2062281EC8
:100C7000A5F10105F3DC2046FFF7CCFC2078000647
:100C800002D50220BDE8F0870120FBE72DE9FF4FE8
:100C90000C461E464FF0FF378BB0D2E90001DDF85D
:100CA00060800A908A46C1F30A5505B93D46002185
:100CB00008464FF00000BAF1000F00F4400005DADA
:100CC00000EB80004FF4400101EA50004FEA9059D8
:100CD000B9F1010F00DDB9460A9850EA4A000ED07A
:100CE00044F61050A5F2FF3545432F14B8F1000F1C
:100CF0001ED07542291E1EDDC9F100021CE0B8F1AC
:100D0000010F4FF0000001D0302103E0F24305E075
:100D10002154401CB042FBDB30460022002121540C
:100D20000B99C1F80880C1E900200FB0BDE8F08F31
:100D3000BD1B6D1CDEE74A4600DA694206A800F0DA
:100D4000F3FB06AB93E8070003AB83E807005046CC
:100D50000A9911F034FA8DE80700A0F500501F3809
:100D600000900398002D0ADD42F21F014A46084414
:100D7000002303A90390684611F09EFC09E0A0F54A
:100D800000504A461F38002303A90390684611F01B
:100D9000A8FC8DE807000004000C03D04FF0FF30E2
:100DA000410800E01046B8F1000F03D00022009285
:100DB00015461EE0751E05D4FFF7CAFE3032625597
:100DC0006D1EF9D5B3460122084302D000227F1CD4
:100DD00004E02078302801D100227F1E002A0997E4
:100DE00084D01DE0112D07DAFFF7B2FE30326255D4
:100DF0006D1C50EA0102F5D1084302D00098C8B139
:100E00000EE00021681E05E0235C625C63542254FE
:100E1000401E491C8142F7DBAB46A81B401E0990CF
:100E2000002004F80B000B98099AC0F80880C0E96C
:100E3000002B7AE711264FF0000857E72DE9F04F15
:100E400088460446D21D22F0070191B0D1E9000185
:100E5000CDE90A0111F07CFD02460B98C00F01D0CC
:100E60002D2007E02068810701D52B2002E02021FA
:100E700001EAC000032A099001D0072A05DB0346D6
:100E80004146204600F010FB0BE12078800601D59A
:100E9000E06900E00620B8F1650F814606D0B8F1A0
:100EA000660F18D0B8F1670F70D131E00020B9F1AA
:100EB000110F009001DB112301E009F101030AAADF
:100EC00001A90CA8FFF7E2FEDDE90C70002609F18C
:100ED0000105834647E001204B4600904FF0004754
:100EE0000AAA01A90CA8FFF7D1FEDDE90DB00C9903
:100EF0005D46002610B909F101000D18B9EB050097
:100F000003D4C0F1FF3609F10105A5EB09002BE080
:100F1000B9F1010F01DA4FF001090020B9F1110F09
:100F20000090484601DD112300E003460AAA01A90A
:100F30000CA8FFF7ABFEDDE90C704D46002683469A
:100F4000207800070AD4AB4500DA5D4601A8012DE0
:100F500004DD411911F8011C302907D04F4502DA90
:100F600017F1040F04DA012082460FE06D1EEEE750
:100F7000002F02DCED1B3E4403E0781CA84200DD9C
:100F80007D1CB81B00F1010A4FF0004720780007D4
:100F900003D4AA4501DB4FF0FF3A0021B7F1004F1F
:100FA0000DF143088DF8431024D002202B23002F8D
:100FB00001DA7F422D230A21021EA0F1010000DC8C
:100FC0005FB197FBF1FC97FBF1F201FB1C7C17462C
:100FD0000CF1300C08F801CDEEE7A8F10100037028
:100FE0002188090501D5452100E06521A0F101080E
:100FF00000F8011C09980FA9A1EB0807FF1D00B11B
:101000000120411901EBEA70A1693844081A401E19
:10101000A0612078C00602D42046FFF7E5FA0998BF
:1010200028B1D4E901219047206A401C2062207831
:10103000C00622D52046FFF7D7FA1EE0002E04DBBB
:10104000B34502DD01A8805D00E03020D4E9012134
:101050009047206A401C2062761CAAF101005FEADA
:10106000000A0AD100F01CFAC0680168405CD4E9AB
:1010700001219047206A401C2062281EA5F101052D
:10108000DCDC07E0D4E9012118F8010B9047206A65
:10109000401C2062381EA7F10107F3DC2046FFF751
:1010A000B9FA032011B041E62DE9F04F04460D4690
:1010B000D21D22F0070089B0D0E900974846394692
:1010C00011F046FC0246F80F01D02D2307E02068FE
:1010D000810701D52B2302E0202101EAC0038DF80E
:1010E00020300BB1012000E00020032A824601D00D
:1010F000072A04DB2946204600F0D6F93FE1207894
:10110000800601D40D2500E0E569C7F30A560D2DD0
:1011100049DA00214FEA175B08464FF00000002F24
:1011200000F4400007DA00EB80004FF4400100EBD0
:10113000D07001EA60008115012901DD4FF0FF3117
:1011400000224FEA850CBCF1180F06D31346ACF110
:1011500018004FF08052C24003E04FF4801323FA8E
:101160000CF30CF10C0CBCF1200F04D3ACF1200CEF
:1011700009FA0CF001E007FA0CF000294FF00048E2
:1011800001DD18B90FE00ED140450CD319EB02096F
:101190005F4121B9404502D19F4329EA0209BBEBD7
:1011A000175F00D0761C2088000502D57B48784464
:1011B00002E07A487844193808AA302302F80A3045
:1011C000037C0AF10101002E0AF1020A53546A4617
:1011D00002DC4FF0300101E04FF031014FF0010827
:1011E0008DF8001002D0A6F2FF3603E059EA47015D
:1011F00000D06B4E002D02DC2178090704D54FF09A
:1012000002082E218DF80110C44600210BE0C7F31F
:1012100003433F01C35C491C6D1E02F808300529D9
:1012200008F1010801DA002DF1DC00210CE000EBEF
:101230001973491C1B786D1E082902F808304FEA03
:10124000091908F1010801DA002DF0DC21688B068C
:1012500002D516E0A8F10108E04505DD02EB080320
:1012600013F8013C302BF5D0B8F1000F09DD02EB8B
:10127000080313F8013C2E2B03D1090701D4A8F170
:101280000108002D05DD3E2102F808106D1E08F151
:101290000108407C002E02F8080008F1010804DA79
:1012A0002D20764202F8080002E02B2002F8080008
:1012B0000A214FF47A70864208F101080BDB96FB95
:1012C000F0F3303302F8083096FBF0F308F1010830
:1012D00000FB136601E0642E0CDB642096FBF0F348
:1012E000303302F8083096FBF0F308F1010800FBF8
:1012F000136601E00A2E06DB96FBF1F0303002F8AF
:10130000080008F1010896FBF1F001FB1060303095
:1013100002F80800A16908F1010808EB050202EBD8
:101320000A00081AA0612078C00602D42046FFF700
:101330005BF9216A08AE01EB0A00206204E0D4E9FF
:10134000012116F8010B9047BAF1010AF7D2207873
:10135000C00602D52046FFF747F96E4609E016F8A9
:10136000010B3E280FD0D4E901219047206A401C90
:101370002062B8F10108F2D22046FFF74BF909B01C
:101380000320BDE8F08F206A2844206203E0D4E9FE
:101390000121302090476D1EEBD3F8E7AE18010015
:1013A00002FCFFFF10B5436913B1AFF3008001E009
:1013B000FFF753F9012010BD127800F124010A70E3
:1013C00000224A700122EDE711684FF0FF32E9E791
:1013D00010B5436913B1AFF3008001E0FFF7D6F910
:1013E000012010BD128800F1240182840022C284F1
:1013F0000122EDE711684FF0FF32E9E72DE9F041F6
:1014000016460C46054600F043F8036893F80101C0
:10141000012807D0FF2C12D8185D80B101202C7054
:10142000BDE8F081D3F807013246214603F20713E5
:10143000C7182846BC46BDE8F041002360474FF07E
:10144000FF30EDE7754600F0EBF8AE460500694663
:10145000534620F00700854618B020B5FEF7D0FFB0
:10146000BDE820404FF000064FF000074FF00008A5
:101470004FF0000BAC46ACE8C009ACE8C009ACE8E2
:10148000C009ACE8C00921F007018D467047000093
:1014900010B500F005F8001D10BD00BF21150100BA
:1014A00000487047000100242DE9F0411F46044622
:1014B00003260168072A01F4006004DB08B116A5C1
:1014C00005E016A503E008B115A500E015A521F07B
:1014D00010002060A069C01EA0610FB1401EA06175
:1014E0002046FFF781F84FB1D4E9012138469047F3
:1014F000206A401C2062C01C206206E0206AFAE7D5
:10150000D4E9012115F8010B9047761EF8D2204648
:10151000FFF780F8BDE8F0814E414E006E616E002D
:10152000494E4600696E66002DE9F0478146164631
:101530008AB0354878440DC88DE80D0032487844AB
:10154000801C03AC0DC884E80D0041F69B300844B4
:10155000372190FBF1F290FBF1F5A5F1800501FB3D
:1015600012041B3C02D56442012000E00020DFF899
:1015700098A080460027FA44AAF1BE0A0EE0E007D0
:101580000AD03246684607EB470101230AEB810186
:1015900011F0A7F88DE8070064107F1C002CEED135
:1015A000194F7F44AE3F19E0E80715D007EB041050
:1015B0000DF1180A90E80E008AE80E00C068F042AB
:1015C00001D1981908903246012306A903A811F009
:1015D00088F803AB83E807006D10641C002DE3D18D
:1015E0004FF0010332466946B8F1000F03A802D05C
:1015F00011F062F801E011F074F8C9E90001C9F8CE
:1016000008200AB0BDE8F087B815010010B50446FF
:10161000AFF300802046BDE81040FEF7DCBE0000BE
:1016200000487047E000002430B44FF0013C50F80F
:10163000042BCCFA52F451F8043BD51A20D1FCB952
:1016400050F8042BCCFA52F451F8043BD51A17D1B8
:10165000B4B950F8042BCCFA52F451F8043BD51A23
:101660000ED16CB950F8042BCCFA52F451F8043B6B
:10167000D51A05D1002CDAD030BC4FF000007047ED
:1016800029BAB1FA81F111F01801D1F1200084409A
:10169000F2D1CA40CB4012F0FF0213F0FF0330BC7E
:1016A000D01A704701491820ABBEFEE726000200A1
:1016B0007047000000000000FFE7FEE700000000A8
:1016C00080B586B005908DF81310059940F2501042
:1016D000C2F20040039001606421816042210171E7
:1016E00000F016F90398808947F6A27188420DD15F
:1016F000FFE740F25010C2F20040C08947F2736128
:10170000884203D1FFE70CF047FC54E040F2501050
:10171000C2F2004002906021017100F0F9F80298D5
:10172000808947F6A271884210D1FFE740F250103D
:10173000C2F20040C08942F24161401A022805DC31
:10174000FFE79DF813000FF0EBFB34E040F2501080
:10175000C2F2004001904221017100F0D9F80198D5
:10176000808947F6A271884210D1FFE740F25010FD
:10177000C2F20040C08947F22171401A022805DCFC
:10178000FFE79DF8130010F01FFA14E040F250102C
:10179000C2F2004000907821017100F0B9F8009881
:1017A000C08945F24061884205D1FFE79DF81300EA
:1017B0000FF0FAFBFFE706B080BD0000000000005C
:1017C00080B586B004908DF80F100292049A1068CC
:1017D0001179013192686B461A600DF10F020123F5
:1017E000019306F099F8019BDDF810C0DCF80000C9
:1017F0009CF804100131029ADCF808C0EE46CEF8DD
:1018000000C005F079FF18B9FFE70020059002E05D
:1018100001200590FFE7059806B080BD000000009C
:1018200080B588B00690ADF816100492DDF818C0A7
:10183000DCF800009CF804100131BDF81620049B70
:10184000DCF808E0EC46CCF808E04FF0010ECCF8EC
:1018500004E0CCF80030022306F08AF918B9FFE75B
:101860000020079002E001200790FFE7079808B0EA
:1018700080BD00000000000080B586B004908DF8A7
:101880000F1002929DF80F008DF806000298007864
:101890008DF80700049A1068117992686B461A60F7
:1018A0000DF10602022306F037F818B9FFE7002011
:1018B000059002E001200590FFE7059806B080BD85
:1018C00080B586B00490ADF80E108DF80D20049B05
:1018D000186819790131BDF80E209B68EC46CCF8E8
:1018E00008300123CCF804300DF10D03CCF80030A2
:1018F000022306F099FA18B9FFE70020059002E0EC
:1019000001200590FFE7059806B080BD00000000AB
:1019100080B586B0059001208DF8120005980079F9
:10192000782826D0FFE70598FF210DF112020292D8
:10193000FFF7A2FF029A05981C21FFF741FF0299C9
:1019400005984A1C03921D21FFF73AFF029A9DF861
:1019500012109DF8130040EA01200599888105982E
:101960000A21FFF72DFF039A05980B21FFF728FFA7
:1019700016E040F25010C2F20040019043F20A011A
:101980000DF112020092FFF74BFF009901984A1CDB
:1019900043F20B01FFF744FF059900208881FFE720
:1019A0009DF812109DF8130040EA01200599C881A6
:1019B000002006B080BD000080B582B00190019883
:1019C000806B00900098806C406D02280AD0FFE781
:1019D0000099012081F835000099C86C40F0400062
:1019E000C864FFE7009800F0DFFE02B080BD000091
:1019F00080B584B003900398806B01900198806B50
:101A0000002840D0FFE70198806C0068006800F46F
:101A1000002002900198806BC007B0B9FFE70298E0
:101A200098B1FFE70198806C0068C0680290019A45
:101A3000906C0299D26B01EBC201002201F0D4FA42
:101A40000199886B013888631CE00198806C0068FC
:101A500000680003002813D4FFE70198806C006839
:101A600000690290019A906C0299D26B01EBC2015D
:101A7000012201F0B9FA0199886B0138886300E00E
:101A8000FFE7FFE728E00198806C0068006800032A
:101A9000002806D5FFE70199486C896C0968C86081
:101AA00019E00198806C006800680003002810D4D9
:101AB000FFE70198406C029002980199C96B00EB16
:101AC00081000199896C096808610199086C886333
:101AD00000E0FFE7FFE7FFE70198806B0199096CE1
:101AE000884213D1FFE701980168C86840F00100FF
:101AF000C8600198006800688007002805D5FFE7E6
:101B00000199012081F83500FFE7FFE704B080BDAF
:101B100080B540F26410C2F2004000F0A9FE80BD22
:101B200080B540F2B410C2F2004002F07DFC80BDEE
:101B300083B002900298016801201022C4F20202D0
:101B40009142009000F0A380FFE702980168012015
:101B50002822C4F202029142009000F09880FFE730
:101B60000298016801204022C4F2020291420090D2
:101B700000F08D80FFE70298016801205822C4F22E
:101B800002029142009000F08280FFE70298016813
:101B900001207022C4F202029142009077D0FFE748
:101BA0000298016801208822C4F20202914200904A
:101BB0006DD0FFE7029801680120A022C4F2020262
:101BC0009142009063D0FFE7029801680120B8229B
:101BD000C4F202029142009059D0FFE702980168D6
:101BE000012040F21042C4F20202914200904ED015
:101BF000FFE702980168012040F22842C4F2020285
:101C00009142009043D0FFE702980168012040F222
:101C10004042C4F202029142009038D0FFE702989D
:101C20000168012040F25842C4F202029142009041
:101C30002DD0FFE702980168012040F27042C4F203
:101C400002029142009022D0FFE702980168012031
:101C500040F28842C4F202029142009017D0FFE79E
:101C600002980168012040F2A042C4F202029142AF
:101C700000900CD0FFE7029800684FF64831CBF691
:101C8000FD710844B0FA80F040090090FFE7009829
:101C9000C00740B3FFE70298007810384AF6AB213E
:101CA000CAF6AA21A0FB011000090190019800F0DA
:101CB000070142F61830C0F60100405C0299C86581
:101CC0000198042807D3FFE702990868042262F309
:101CD0000900886506E00299086840F2FF329043E7
:101CE0008865FFE705E00299086820F0FF00886535
:101CF000FFE70298806D03B070470000000000000D
:101D000084B0039003980068019003980168012053
:101D100045F20842C5F60202914200904ED0FFE71C
:101D200003980168012045F21C42C5F60202914267
:101D3000009043D0FFE703980168012045F230424C
:101D4000C5F602029142009038D0FFE7039801687F
:101D5000012045F24442C5F60202914200902DD086
:101D6000FFE703980168012045F25842C5F60202D8
:101D70009142009022D0FFE703980168012045F2CC
:101D80006C42C5F602029142009017D0FFE703981B
:101D90000168012045F28042C5F60202914200909E
:101DA0000CD0FFE7039800684AF66C31CAF2FD7167
:101DB0000844B0FA80F040090090FFE70098C0079F
:101DC00010B3FFE70398007808384CF6CD41CCF605
:101DD000CC41A0FB011000090290029945F60000D9
:101DE000C5F6020000EB810003990866039945F6E9
:101DF0008000C5F602004866029800F01F0101202D
:101E000088400399886635E00398007810384AF6D0
:101E1000AB21CAF6AA21A0FB01100009029001988B
:101E200040F2B841C4F2020188420CD8FFE70198A1
:101E300040F21041C4F20201884204D3FFE7029845
:101E400008300290FFE7029940F60000C4F2020059
:101E500000EB810003990866039940F68000C4F204
:101E600002004866029800F01F0101208840039993
:101E70008866FFE704B0704783B00290029800794B
:101E800001900198002800F08A80FFE70198082857
:101E900000F28580FFE702980168012045F20842C0
:101EA000C5F60202914200904ED0FFE70298016809
:101EB000012045F21C42C5F602029142009043D037
:101EC000FFE702980168012045F23042C5F60202A0
:101ED0009142009038D0FFE702980168012045F256
:101EE0004442C5F60202914200902DD0FFE70298CD
:101EF0000168012045F25842C5F602029142009065
:101F000022D0FFE702980168012045F26C42C5F635
:101F100002029142009017D0FFE702980168012069
:101F200045F28042C5F60202914200900CD0FFE7D4
:101F3000029800684AF66C31CAF2FD710844B0FAA2
:101F400080F040090090FFE70098C00780B1FFE7EC
:101F5000019945F6FC00C5F6020000EB81000299EC
:101F6000C866029945F64010C5F6020008670FE002
:101F7000019940F6FC00C4F2020000EB81000299D6
:101F8000C866029940F64010C4F202000867FFE7F5
:101F90000198411E0120884002994867FFE703B07D
:101FA000704700000000000085B0049000208DF80C
:101FB0000F000498806918BBFFE70498806A0290BC
:101FC00003281BD80299DFE801F0020D02180498DB
:101FD00090F82F00C00720B1FFE701208DF80F0017
:101FE000FFE70CE00498C06AB0F1C07F04D1FFE7BE
:101FF00001208DF80F00FFE701E000E0FFE747E078
:1020000004988069B0F5005F26D1FFE70498806AE4
:10201000019003281ED80199DFE801F002060211A1
:1020200001208DF80F0016E0049890F82F00C007EB
:1020300020B1FFE701208DF80F00FFE70BE00498C7
:10204000C06AB0F1C07F04D1FFE701208DF80F0016
:10205000FFE700E0FFE71AE00498806A0090032899
:1020600004D3FFE70098032804D00EE001208DF888
:102070000F000BE0049890F82F00C00720B1FFE795
:1020800001208DF80F00FFE700E0FFE7FFE7FFE723
:102090009DF80F0005B0704785B00490039102923F
:1020A00001930498016801201022C4F202029142B7
:1020B000009000F0A380FFE7049801680120282227
:1020C000C4F202029142009000F09880FFE7049869
:1020D000016801204022C4F202029142009000F007
:1020E0008D80FFE70498016801205822C4F20202A3
:1020F0009142009000F08280FFE70498016801207F
:102100007022C4F202029142009077D0FFE7049857
:10211000016801208822C4F20202914200906DD031
:10212000FFE7049801680120A022C4F20202914254
:10213000009063D0FFE7049801680120B822C4F240
:1021400002029142009059D0FFE7049801680120F3
:1021500040F21042C4F20202914200904ED0FFE7DA
:1021600004980168012040F22842C4F20202914220
:10217000009043D0FFE704980168012040F24042FC
:10218000C4F202029142009038D0FFE7049801683F
:10219000012040F25842C4F20202914200902DD038
:1021A000FFE704980168012040F27042C4F2020285
:1021B0009142009022D0FFE704980168012040F28C
:1021C0008842C4F202029142009017D0FFE70498BF
:1021D0000168012040F2A042C4F202029142009044
:1021E0000CD0FFE7049800684FF64831CBF6FD713C
:1021F0000844B0FA80F040090090FFE70098C0075B
:10220000E0B1FFE701980499096848600498806884
:10221000402809D1FFE7029804990968886003986B
:1022200004990968C86008E00398049909688860FF
:10223000029804990968C860FFE71BE001980499B7
:102240000968486004988068402809D1FFE702982F
:10225000049909688860039804990968C86008E0CF
:102260000398049909688860029804990968C8600D
:10227000FFE7FFE705B0704789B008900791069225
:1022800005930898806D04900898806D03900898D5
:10229000016801201022C4F202029142029000F073
:1022A0000381FFE70898016801202822C4F2020296
:1022B0009142029000F0F880FFE708980168012041
:1022C0004022C4F202029142029000F0ED80FFE74A
:1022D0000898016801205822C4F20202914202903B
:1022E00000F0E280FFE70898016801207022C4F244
:1022F00002029142029000F0D780FFE7089801683F
:1023000001208822C4F202029142029000F0CC80A7
:10231000FFE7089801680120A022C4F2020291425E
:10232000029000F0C180FFE7089801680120B82200
:10233000C4F202029142029000F0B680FFE70898D2
:102340000168012040F21042C4F202029142029060
:1023500000F0AA80FFE708980168012040F22842B7
:10236000C4F202029142029000F09E80FFE70898BA
:102370000168012040F24042C4F202029142029000
:1023800000F09280FFE708980168012040F258426F
:10239000C4F202029142029000F08680FFE70898A2
:1023A0000168012040F27042C4F2020291420290A0
:1023B0007AD0FFE708980168012040F28842C4F211
:1023C0000202914202906FD0FFE708980168012055
:1023D00040F2A042C4F202029142029064D0FFE7B0
:1023E00008980168012040F2B842C4F2020291420A
:1023F000029059D0FFE708980168012045F2084291
:10240000C5F60202914202904ED0FFE7089801689B
:10241000012045F21C42C5F602029142029043D0CF
:10242000FFE708980168012045F23042C5F6020234
:102430009142029038D0FFE708980168012045F2E8
:102440004442C5F60202914202902DD0FFE708985F
:102450000168012045F25842C5F6020291420290FD
:1024600022D0FFE708980168012045F26C42C5F6CA
:1024700002029142029017D0FFE7089801680120FC
:1024800045F28042C5F60202914202900CD0FFE76D
:10249000089800684AF66C31CAF2FD710844B0FA37
:1024A00080F040090290FFE70298C00770B1FFE793
:1024B0000898416E806E48600898C06E28B1FFE7AA
:1024C0000898016F406F4860FFE7FFE708980168D0
:1024D00001201022C4F202029142019000F0A38078
:1024E000FFE70898016801202822C4F20202914205
:1024F000019000F09880FFE70898016801204022D1
:10250000C4F202029142019000F08D80FFE708982A
:10251000016801205822C4F202029142019000F0A9
:102520008280FFE70898016801207022C4F202024D
:102530009142019077D0FFE7089801680120882236
:10254000C4F20202914201906DD0FFE70898016841
:102550000120A022C4F202029142019063D0FFE761
:10256000089801680120B822C4F202029142019049
:1025700059D0FFE708980168012040F21042C4F2E8
:102580000202914201904ED0FFE7089801680120B5
:1025900040F22842C4F202029142019043D0FFE788
:1025A00008980168012040F24042C4F202029142C0
:1025B000019038D0FFE708980168012040F25842A6
:1025C000C4F20202914201902DD0FFE70898016801
:1025D000012040F27042C4F202029142019022D0E6
:1025E000FFE708980168012040F28842C4F2020225
:1025F0009142019017D0FFE708980168012040F24E
:10260000A042C4F20202914201900CD0FFE7089868
:1026100000684FF64831CBF6FD710844B0FA80F0FF
:1026200040090190FFE70198C00750B3FFE7089801
:10263000C06D00F01F013F20884004998860089811
:102640000168086820F480200860059808990968E6
:10265000486008988068402809D1FFE706980899E3
:1026600009688860079808990968C86008E00798B1
:10267000089909688860069808990968C860FFE7A2
:1026800082E008980168012045F20842C5F602027E
:10269000914200904ED0FFE708980168012045F272
:1026A0001C42C5F602029142009043D0FFE7089811
:1026B0000168012045F23042C5F6020291420090C5
:1026C00038D0FFE708980168012045F24442C5F67A
:1026D0000202914200902DD0FFE708980168012086
:1026E00045F25842C5F602029142009022D0FFE71F
:1026F00008980168012045F26C42C5F60202914239
:10270000009017D0FFE708980168012045F2804249
:10271000C5F60202914200900CD0FFE708980068CD
:102720004AF66C31CAF2FD710844B0FA80F04009F3
:102730000090FFE70098C00720B3FFE70898C06D3E
:1027400000F01F010120884003994860059808990E
:102750000968486008988068402809D1FFE7069812
:10276000089909688860079808990968C86008E0AE
:102770000798089909688860069808990968C860E8
:10278000FFE700E0FFE7FFE709B070470000000047
:10279000704700000000000081B0EFF3108072B6B7
:1027A0000090FFE7FEE7000081B0009001B07047A5
:1027B00080B586B0019004F023FD40F24C11C2F2C6
:1027C00000410968401AB0F57A7F14D3FFE704F09E
:1027D00017FD40F24C11C2F20041086040F248116E
:1027E000C2F20041086840F24012C2F2004210609A
:1027F00000200860FFE740F24811C2F2004108687B
:102800000130086040F24411C2F20041012008602A
:1028100040F22060C2F2004005904FF41640049050
:102820000498012820DBFFE70498059901F01F01B7
:102830000844039005980290BFF34F8FFFE702987A
:102840004EF65C71CEF200010860029820300290D2
:1028500003982038039003980028F0DCFFE7BFF3CB
:102860004F8FBFF36F8FFFE706B080BD0000000001
:1028700080B582B0019001980068006900909DF8D1
:1028800000004007002818D5FFE7019801680420E0
:102890004861019AD16C41F00201D164019981F83B
:1028A00035000198816C41F6B910C0F6000008654A
:1028B0000198806C01F060FAFFE79DF80000800746
:1028C000002819D5FFE701980168022048610199A5
:1028D000C86C40F00100C8640199042081F83500FB
:1028E0000198816C41F6B910C0F6000008650198A6
:1028F000806C01F041FAFFE79DF80000C006002857
:1029000008D5FFE70198016810204861019800F0A0
:1029100097F9FFE79DF800000007002808D5FFE7BA
:102920000198016808204861019800F059FBFFE711
:102930009DF80000C007E0B1FFE70198006800685B
:102940008007002807D5FFE701980168C86820F0D4
:102950001E00C860FFE701980168C86820F0010008
:10296000C86001980168012048610198FFF720FFC5
:10297000FFE702B080BD000080B584B002900298ED
:1029800020B9FFE701208DF80F0053E1029800689D
:102990000021C4F60201884201D1FFE707E046F2B8
:1029A0008870C0F60100BB210DF0B6FBFFE702986E
:1029B000806828B1FFE702988068202801D1FFE7EE
:1029C00007E046F28870C0F60100BC210DF0A4FBC0
:1029D000FFE70298C06828B1FFE70298C068802826
:1029E00001D1FFE707E046F28870C0F60100BD2183
:1029F0000DF092FBFFE70298006928B1FFE702980B
:102A00000069402801D1FFE707E046F28870C0F670
:102A10000100BE210DF080FBFFE70298406828B15D
:102A2000FFE702984068102801D1FFE707E046F26F
:102A30008870C0F60100BF210DF06EFBFFE7029821
:102A4000406960B1FFE702984069B0F5807F06D029
:102A5000FFE702984069B0F5007F01D1FFE707E08A
:102A600046F28870C0F60100C0210DF055FBFFE76B
:102A70000298806990B1FFE702988069B0F5806F95
:102A80000CD0FFE702988069B0F5006F06D0FFE731
:102A900002988069B0F5406F01D1FFE707E046F288
:102AA0008870C0F60100C1210DF036FBFFE70298E7
:102AB000006A28B1FFE70298006A082801D1FFE701
:102AC00007E046F28870C0F60100C2210DF024FB39
:102AD000FFE70298406A90B1FFE70298406AB0F5BC
:102AE000803F0CD0FFE70298406AB0F5003F06D067
:102AF000FFE70298406AB0F5403F01D1FFE707E0E9
:102B000046F28870C0F60100C4210DF005FBFFE716
:102B10000298806A30B1FFE70298806AB0F5802F92
:102B200001D1FFE707E046F28870C0F60100C52139
:102B30000DF0F2FAFFE70298C06A30B1FFE70298A1
:102B4000C06AB0F5002F01D1FFE707E046F28870B8
:102B5000C0F60100C6210DF0DFFAFFE70298006B16
:102B600030B1FFE70298006BB0F5801F01D1FFE79D
:102B700007E046F28870C0F60100C7210DF0CCFADC
:102B8000FFE7029890F8350020B9FFE7029800F0BF
:102B90005BF8FFE70299022081F83500029880690E
:102BA00020B1FFE7029900204862FFE70298016820
:102BB00008684FF20702CFF6E07210400860029AF0
:102BC0000192D2F814E0116850689368D2F80CC0F2
:102BD00040EA0E0040EA0C00D2F810C040EA0C00B7
:102BE000184393691843136A1843536A1843936A46
:102BF0001843D36A1843126B0243086810430860F5
:102C000002984068102805D1FFE702980168C06962
:102C10008861FFE702980168C86840F01E00C8603C
:102C200002990020C864029A012182F835108DF8BB
:102C30000F00FFE79DF80F0004B080BD000000000A
:102C400081B0009001B0704780B592B01190002023
:102C500010900F900E900D900C901198006800212C
:102C6000C4F60201884240F0D580FFE7FFE744F256
:102C7000DC40C5F60200016841F001010160006816
:102C800000F001000B900B98FFE7FFE744F2E040F3
:102C9000C5F60200016841F010010160006800F013
:102CA00010000A900A98FFE7FFE744F2E040C5F6FB
:102CB0000200016841F001010160006800F00100BC
:102CC00009900998FFE7FFE744F2E040C5F60200EB
:102CD000016841F004010160006800F00400089000
:102CE0000898FFE7FFE744F2E040C5F602000168FC
:102CF00041F002010160006800F0020007900798AF
:102D0000FFE773200C90022002900D9000210591A6
:102D10000E910F900D200390109041F20000C5F627
:102D200002000CA9049103F0E7FE029A03980499AB
:102D3000059B4FF0500CCDF830C00D920E930F92C2
:102D400010900020C5F6020003F0D6FE029A039808
:102D50000499059B4FF0C00CCDF804C0CDF830C0ED
:102D60000D920E930F92109040F60000C5F60200EF
:102D700003F0C2FEDDF804C0029A03980499059B93
:102D8000CDF830C00D920E930F92109040F200409B
:102D9000C5F6020003F0B0FE059940F2B410C2F28D
:102DA000004006901022C4F2020202604B224260F0
:102DB0008160C1604FF4806202614FF480524261D1
:102DC0004FF4804282614FF48072C2614FF440320E
:102DD00002620422426203228262C162016302F043
:102DE00003FC18B1FFE7FFF7D7FCFFE7FFE71198F7
:102DF00040F2B411C2F20041816411988863FFE788
:102E00004E2000900121002205F07AFA009805F08A
:102E10005FFAFFE712B080BD80B588B006900591DB
:102E200004920393059820B1FFE70598022801D189
:102E3000FFE708E046F28870C0F601004FF4B87171
:102E40000DF06AF9FFE7FFE7069890F834000128D3
:102E500004D1FFE702208DF81F00BAE00699012097
:102E600081F83400FFE7FFE70699022081F835007A
:102E700006980168086840F4804008600698016878
:102E8000086820F002000860059A06980168086842
:102E9000104308600698816C41F6F110C0F60000FE
:102EA000C8630698816C41F6B910C0F60000C8648A
:102EB0000698816C00200865069988630699086465
:102EC0000699C86306994864BDF80E00E0B9FFE7AB
:102ED00006980168806C2831049A039B03F054FA29
:102EE00088B1FFE706994020C8640699012081F85F
:102EF0003500FFE70699002081F83400FFE7012044
:102F00008DF81F0065E054E00698816C41F6F110E1
:102F1000C0F600004864069901208863039806996A
:102F2000C863049806994864FFE70698C06BB0F53B
:102F3000803F0BD3FFE70698C06B40080699C86333
:102F40000698806B400006998863EEE70698806BD0
:102F50000238069988630698806B0699086404987D
:102F60000699C96B00EB81000290DDF818C0DCF80F
:102F70000010DCF848002831049A029BDCF83CC0C1
:102F8000EE46CEF800C000F007F988B1FFE70699D9
:102F90004020C8640699012081F83500FFE70699B2
:102FA000002081F83400FFE701208DF81F0010E0B9
:102FB000FFE706980168086840F001000860FFE735
:102FC0000699002081F83400FFE700208DF81F00EB
:102FD000FFE79DF81F0008B080BD00000000000062
:102FE00081B0009001B0704784B0039002918DF8D9
:102FF00007200398016801201022C4F202029142C6
:10300000009000F0A380FFE70398016801202822C8
:10301000C4F202029142009000F09880FFE703980A
:10302000016801204022C4F202029142009000F0A7
:103030008D80FFE70398016801205822C4F2020244
:103040009142009000F08280FFE703980168012020
:103050007022C4F202029142009077D0FFE70398F9
:10306000016801208822C4F20202914200906DD0D2
:10307000FFE7039801680120A022C4F202029142F6
:10308000009063D0FFE7039801680120B822C4F2E2
:1030900002029142009059D0FFE703980168012095
:1030A00040F21042C4F20202914200904ED0FFE77B
:1030B00003980168012040F22842C4F202029142C2
:1030C000009043D0FFE703980168012040F240429E
:1030D000C4F202029142009038D0FFE703980168E1
:1030E000012040F25842C4F20202914200902DD0D9
:1030F000FFE703980168012040F27042C4F2020227
:103100009142009022D0FFE703980168012040F22D
:103110008842C4F202029142009017D0FFE7039860
:103120000168012040F2A042C4F2020291420090E4
:103130000CD0FFE7039800684FF64831CBF6FD71DD
:103140000844B0FA80F040090090FFE70098C007FB
:1031500078B1FFE79DF8070028B9FFE702980399C7
:103160000968C86004E00298039909680861FFE7EC
:103170000EE09DF8070028B9FFE702980399096857
:10318000C86004E00298039909680861FFE7FFE757
:10319000002004B07047000080B58CB0DDF838C066
:1031A0000A9009910892079300208DF81B000E9851
:1031B00028B1FFE7BDF83A0008B9FFE707E046F697
:1031C000A500C0F60100DF210CF0A6FFFFE70A987A
:1031D00000681021C4F20201884200F0D180FFE7AC
:1031E0000A9800682821C4F20201884200F0C880D1
:1031F000FFE70A9800684021C4F20201884200F00B
:10320000BF80FFE70A9800685821C4F20201884293
:1032100000F0B680FFE70A9800687021C4F202014E
:10322000884200F0AD80FFE70A9800688821C4F268
:103230000201884200F0A480FFE70A980068A021FC
:10324000C4F20201884200F09B80FFE70A98006800
:10325000B821C4F20201884200F09280FFE70A9888
:10326000006840F21041C4F20201884200F08880F8
:10327000FFE70A98006840F22841C4F20201884240
:103280007ED0FFE70A98006840F24041C4F2020194
:10329000884275D0FFE70A98006840F25841C4F2AE
:1032A000020188426CD0FFE70A98006840F2704142
:1032B000C4F20201884263D0FFE70A98006840F236
:1032C0008841C4F2020188425AD0FFE70A98006898
:1032D00040F2A041C4F20201884251D0FFE70A98AF
:1032E000006840F2B841C4F20201884248D0FFE7CA
:1032F0000A98006845F20841C5F6020188423FD0AD
:10330000FFE70A98006845F21C41C5F602018842B1
:1033100036D0FFE70A98006845F23041C5F6020151
:1033200088422DD0FFE70A98006845F24441C5F66F
:103330000201884224D0FFE70A98006845F258410C
:10334000C5F6020188421BD0FFE70A98006845F2E3
:103350006C41C5F60201884212D0FFE70A98006866
:1033600045F28041C5F60201884209D0FFE70A987C
:10337000006845F29441C5F60201884201D1FFE799
:1033800007E046F6A500C0F60100E0210CF0C4FEFF
:10339000FFE70A988068802809D1FFE70A994FF46F
:1033A0008070486501208DF82F0000F0DEBCFFE73B
:1033B0000A9890F83400012805D1FFE702208DF823
:1033C0002F0000F0D2BC0A99012081F83400FFE7F9
:1033D000FFE70A9890F83500012840F0B984FFE72C
:1033E0000A99022081F835000A99002048650A9858
:1033F000016801201022C4F202029142049000F000
:10340000A380FFE70A98016801202822C4F2020283
:103410009142049000F09880FFE70A98016801202B
:103420004022C4F202029142049000F08D80FFE736
:103430000A98016801205822C4F2020291420490C5
:1034400000F08280FFE70A98016801207022C4F230
:1034500002029142049077D0FFE70A9801680120A8
:103460008822C4F20202914204906DD0FFE70A98CC
:1034700001680120A022C4F202029142049063D0AC
:10348000FFE70A9801680120B822C4F202029142C3
:10349000049059D0FFE70A980168012040F21042D9
:1034A000C4F20202914204904ED0FFE70A980168EC
:1034B000012040F22842C4F202029142049043D01B
:1034C000FFE70A980168012040F24042C4F202027C
:1034D0009142049038D0FFE70A980168012040F239
:1034E0005842C4F20202914204902DD0FFE70A989C
:1034F0000168012040F27042C4F20202914204903D
:1035000022D0FFE70A980168012040F28842C4F205
:1035100002029142049017D0FFE70A980168012047
:1035200040F2A042C4F20202914204900CD0FFE7A4
:103530000A9800684FF64831CBF6FD710844B0FA9E
:1035400080F040090490FFE70498C007B8B1FFE796
:103550000A980168086840F48020086007980A9972
:10356000096808610A98806D083005900A98C06D56
:1035700000F01F013F2088400599086017E00A9875
:103580000168086848F220021043086007980A9909
:10359000096808610A98806D043005900A98C06D2A
:1035A00000F01F010120884005990860FFE70A9894
:1035B0000999089A0E9BFEF76FFD0A980168012091
:1035C0001022C4F202029142039000F00381FFE74F
:1035D0000A98016801202822C4F202029142039055
:1035E00000F0F880FFE70A98016801204022C4F249
:1035F00002029142039000F0ED80FFE70A98016813
:1036000001205822C4F202029142039000F0E280AD
:10361000FFE70A98016801207022C4F20202914279
:10362000039000F0D780FFE70A9801680120882204
:10363000C4F202029142039000F0CC80FFE70A98A6
:1036400001680120A022C4F202029142039000F01E
:10365000C180FFE70A9801680120B822C4F2020283
:103660009142039000F0B680FFE70A9801680120BC
:1036700040F21042C4F202029142039000F0AA808C
:10368000FFE70A980168012040F22842C4F20202D2
:103690009142039000F09E80FFE70A9801680120A4
:1036A00040F24042C4F202029142039000F0928044
:1036B000FFE70A980168012040F25842C4F2020272
:1036C0009142039000F08680FFE70A98016801208C
:1036D00040F27042C4F20202914203907AD0FFE7B6
:1036E0000A980168012040F28842C4F20202914225
:1036F00003906FD0FFE70A980168012040F2A042D2
:10370000C4F202029142039064D0FFE70A98016874
:10371000012040F2B842C4F202029142039059D013
:10372000FFE70A980168012045F20842C5F6020247
:10373000914203904ED0FFE70A980168012045F2BC
:103740001C42C5F602029142039043D0FFE70A985B
:103750000168012045F23042C5F602029142039011
:1037600038D0FFE70A980168012045F24442C5F6C7
:103770000202914203902DD0FFE70A9801680120D0
:1037800045F25842C5F602029142039022D0FFE76B
:103790000A980168012045F26C42C5F60202914286
:1037A000039017D0FFE70A980168012045F2804294
:1037B000C5F60202914203900CD0FFE70A98006818
:1037C0004AF66C31CAF2FD710844B0FA80F0400943
:1037D0000390FFE70398C00770B1FFE70A98416EB6
:1037E000806E48600A98C06E28B1FFE70A98016FA2
:1037F000406F4860FFE7FFE70A9801680120102248
:10380000C4F202029142029000F0A380FFE70A98FE
:10381000016801202822C4F202029142029000F0C5
:103820009880FFE70A98016801204022C4F2020252
:103830009142029000F08D80FFE70A980168012014
:103840005822C4F202029142029000F08280FFE707
:103850000A98016801207022C4F20202914202908B
:1038600077D0FFE70A98016801208822C4F202029B
:10387000914202906DD0FFE70A9801680120A022D2
:10388000C4F202029142029063D0FFE70A980168F5
:103890000120B822C4F202029142029059D0FFE7FF
:1038A0000A980168012040F21042C4F202029142DB
:1038B00002904ED0FFE70A980168012040F22842AA
:1038C000C4F202029142029043D0FFE70A980168D5
:1038D000012040F24042C4F202029142029038D0EC
:1038E000FFE70A980168012040F25842C4F2020240
:1038F000914202902DD0FFE70A980168012040F222
:103900007042C4F202029142029022D0FFE70A986C
:103910000168012040F28842C4F202029142029002
:1039200017D0FFE70A980168012040F2A042C4F2D4
:103930000202914202900CD0FFE70A9800684FF60D
:103940004831CBF6FD710844B0FA80F0400902908E
:10395000FFE70298C007F8B1FFE70A98006800681F
:103960000B2161F344000A99096808600A9801680C
:10397000486940F0800048610A98006C20B9FFE770
:103980000A98806C38B1FFE70A980168086840F02F
:1039900008000860FFE718E00A9800680068052141
:1039A00061F343000A99096808600A98006C20B91D
:1039B000FFE70A98806C38B1FFE70A980168086849
:1039C00040F004000860FFE7FFE70A980168012063
:1039D0001022C4F202029142019000F00381FFE73D
:1039E0000A98016801202822C4F202029142019043
:1039F00000F0F880FFE70A98016801204022C4F235
:103A000002029142019000F0ED80FFE70A98016800
:103A100001205822C4F202029142019000F0E2809B
:103A2000FFE70A98016801207022C4F20202914265
:103A3000019000F0D780FFE70A98016801208822F2
:103A4000C4F202029142019000F0CC80FFE70A9894
:103A500001680120A022C4F202029142019000F00C
:103A6000C180FFE70A9801680120B822C4F202026F
:103A70009142019000F0B680FFE70A9801680120AA
:103A800040F21042C4F202029142019000F0AA807A
:103A9000FFE70A980168012040F22842C4F20202BE
:103AA0009142019000F09E80FFE70A980168012092
:103AB00040F24042C4F202029142019000F0928032
:103AC000FFE70A980168012040F25842C4F202025E
:103AD0009142019000F08680FFE70A98016801207A
:103AE00040F27042C4F20202914201907AD0FFE7A4
:103AF0000A980168012040F28842C4F20202914211
:103B000001906FD0FFE70A980168012040F2A042BF
:103B1000C4F202029142019064D0FFE70A98016862
:103B2000012040F2B842C4F202029142019059D001
:103B3000FFE70A980168012045F20842C5F6020233
:103B4000914201904ED0FFE70A980168012045F2AA
:103B50001C42C5F602029142019043D0FFE70A9849
:103B60000168012045F23042C5F6020291420190FF
:103B700038D0FFE70A980168012045F24442C5F6B3
:103B80000202914201902DD0FFE70A9801680120BE
:103B900045F25842C5F602029142019022D0FFE759
:103BA0000A980168012045F26C42C5F60202914272
:103BB000019017D0FFE70A980168012045F2804282
:103BC000C5F60202914201900CD0FFE70A98006806
:103BD0004AF66C31CAF2FD710844B0FA80F040092F
:103BE0000190FFE70198C007D0B1FFE70A98006E87
:103BF0000068C003002807D5FFE70A98016E08682F
:103C000040F480700860FFE70A98C06E38B1FFE7A3
:103C10000A98C16E086840F480700860FFE7FFE70B
:103C20000A9800681021C4F20201884200F08180E5
:103C3000FFE70A9800682821C4F20201884278D080
:103C4000FFE70A9800684021C4F20201884270D060
:103C5000FFE70A9800685821C4F20201884268D040
:103C6000FFE70A9800687021C4F20201884260D020
:103C7000FFE70A9800688821C4F20201884258D000
:103C8000FFE70A980068A021C4F20201884250D0E0
:103C9000FFE70A980068B821C4F20201884248D0C0
:103CA000FFE70A98006840F21041C4F2020188421E
:103CB0003FD0FFE70A98006840F22841C4F20201B1
:103CC000884236D0FFE70A98006840F24041C4F2CB
:103CD000020188422DD0FFE70A98006840F258415F
:103CE000C4F20201884224D0FFE70A98006840F23B
:103CF0007041C4F2020188421BD0FFE70A980068B5
:103D000040F28841C4F20201884212D0FFE70A98CB
:103D1000006840F2A041C4F20201884209D0FFE7E6
:103D20000A98006840F2B841C4F20201884207D103
:103D3000FFE70A980168086840F00100086006E0A3
:103D40000A980168086840F001000860FFE707E092
:103D50000A994FF40060486501208DF81B00FFE7C9
:103D60009DF81B008DF82F00FFE79DF82F000CB089
:103D700080BD00000000000080B586B0049004986B
:103D800020B9FFE701208DF8170046E3049890F86A
:103D90003500022807D0FFE70499802048650120FC
:103DA0008DF8170039E30498016801201022C4F24D
:103DB00002029142029000F0A380FFE7049801689C
:103DC00001202822C4F202029142029000F0988061
:103DD000FFE70498016801204022C4F202029142E8
:103DE000029000F08D80FFE70498016801205822BE
:103DF000C4F202029142029000F08280FFE7049830
:103E0000016801207022C4F202029142029077D030
:103E1000FFE70498016801208822C4F2020291425F
:103E200002906DD0FFE7049801680120A022C4F23F
:103E300002029142029063D0FFE7049801680120DA
:103E4000B822C4F202029142029059D0FFE70498CE
:103E50000168012040F21042C4F202029142029035
:103E60004ED0FFE704980168012040F22842C4F2D6
:103E700002029142029043D0FFE7049801680120BA
:103E800040F24042C4F202029142029038D0FFE771
:103E900004980168012040F25842C4F202029142A3
:103EA00002902DD0FFE704980168012040F2704293
:103EB000C4F202029142029022D0FFE70498016806
:103EC000012040F28842C4F202029142029017D0CF
:103ED000FFE704980168012040F2A042C4F2020208
:103EE000914202900CD0FFE7049800684FF64831E9
:103EF000CBF6FD710844B0FA80F040090290FFE76C
:103F00000298C007002800F09D80FFE70499042074
:103F100081F83500049800681021C4F2020188423B
:103F200000F08180FFE7049800682821C4F20201B4
:103F3000884278D0FFE7049800684021C4F202016B
:103F4000884270D0FFE7049800685821C4F202014B
:103F5000884268D0FFE7049800687021C4F202012B
:103F6000884260D0FFE7049800688821C4F202010B
:103F7000884258D0FFE704980068A021C4F20201EB
:103F8000884250D0FFE704980068B821C4F20201CB
:103F9000884248D0FFE70498006840F21041C4F21C
:103FA000020188423FD0FFE70498006840F22841B0
:103FB000C4F20201884236D0FFE70498006840F25C
:103FC0004041C4F2020188422DD0FFE70498006806
:103FD00040F25841C4F20201884224D0FFE704981D
:103FE000006840F27041C4F2020188421BD0FFE732
:103FF0000498006840F28841C4F20201884212D05D
:10400000FFE70498006840F2A041C4F20201884230
:1040100009D0FFE70498006840F2B841C4F20201F9
:10402000884207D1FFE704980168086820F0010082
:10403000086006E004980168086820F00100086044
:10404000FFE7E5E104980168086820F00E000860C9
:10405000049800681021C4F20201884200F08180B7
:10406000FFE7049800682821C4F20201884278D052
:10407000FFE7049800684021C4F20201884270D032
:10408000FFE7049800685821C4F20201884268D012
:10409000FFE7049800687021C4F20201884260D0F2
:1040A000FFE7049800688821C4F20201884258D0D2
:1040B000FFE704980068A021C4F20201884250D0B2
:1040C000FFE704980068B821C4F20201884248D092
:1040D000FFE70498006840F21041C4F202018842F0
:1040E0003FD0FFE70498006840F22841C4F2020183
:1040F000884236D0FFE70498006840F24041C4F29D
:10410000020188422DD0FFE70498006840F2584130
:10411000C4F20201884224D0FFE70498006840F20C
:104120007041C4F2020188421BD0FFE70498006886
:1041300040F28841C4F20201884212D0FFE704989D
:10414000006840F2A041C4F20201884209D0FFE7B2
:104150000498006840F2B841C4F20201884207D1D5
:10416000FFE704980168086820F00100086006E095
:1041700004980168086820F001000860FFE70498CF
:10418000016801201022C4F202029142019000F065
:104190000381FFE70498016801202822C4F202028B
:1041A0009142019000F0F880FFE704980168012037
:1041B0004022C4F202029142019000F0ED80FFE73C
:1041C0000498016801205822C4F202029142019031
:1041D00000F0E280FFE70498016801207022C4F239
:1041E00002029142019000F0D780FFE70498016835
:1041F00001208822C4F202029142019000F0CC809A
:10420000FFE7049801680120A022C4F20202914253
:10421000019000F0C180FFE7049801680120B822F6
:10422000C4F202029142019000F0B680FFE70498C8
:104230000168012040F21042C4F202029142019052
:1042400000F0AA80FFE704980168012040F22842AC
:10425000C4F202029142019000F09E80FFE70498B0
:104260000168012040F24042C4F2020291420190F2
:1042700000F09280FFE704980168012040F2584264
:10428000C4F202029142019000F08680FFE7049898
:104290000168012040F27042C4F202029142019092
:1042A0007AD0FFE704980168012040F28842C4F206
:1042B0000202914201906FD0FFE70498016801204B
:1042C00040F2A042C4F202029142019064D0FFE7A2
:1042D00004980168012040F2B842C4F202029142FF
:1042E000019059D0FFE704980168012045F2084287
:1042F000C5F60202914201904ED0FFE70498016892
:10430000012045F21C42C5F602029142019043D0C1
:10431000FFE704980168012045F23042C5F6020229
:104320009142019038D0FFE704980168012045F2DE
:104330004442C5F60202914201902DD0FFE7049855
:104340000168012045F25842C5F6020291420190EF
:1043500022D0FFE704980168012045F26C42C5F6BF
:1043600002029142019017D0FFE7049801680120F2
:1043700045F28042C5F60202914201900CD0FFE75F
:10438000049800684AF66C31CAF2FD710844B0FA2C
:1043900080F040090190FFE70198C00728B3FFE7CC
:1043A0000498016E086820F4807008600498806D9D
:1043B00003900498C06D00F01F010120884003990C
:1043C00048600498416E806E48600498C06E58B191
:1043D000FFE70498C16E086820F4807008600498B4
:1043E000016F406F4860FFE7FFE70499012081F803
:1043F0003500FFE70499002081F83400FFE70498B6
:10440000006D20B1FFE70498016D8847FFE7FFE7E3
:10441000FFE700208DF81700FFE79DF8170006B0B2
:1044200080BD00000000000080B590B00F9000201B
:104430000B9040F20000C2F20040006848F2B51153
:10444000C1F64E31A0FB0110800A0A900F98806DD2
:1044500009900F98806D0890099800680E90089850
:1044600000680D900F98016801201022C4F202022A
:104470009142079000F0A380FFE70F9801680120A8
:104480002822C4F202029142079000F09880FFE7D0
:104490000F98016801204022C4F202029142079065
:1044A00000F08D80FFE70F98016801205822C4F2C8
:1044B00002029142079000F08280FFE70F980168A6
:1044C00001207022C4F202029142079077D0FFE7E8
:1044D0000F98016801208822C4F2020291420790DD
:1044E0006DD0FFE70F9801680120A022C4F20202FC
:1044F0009142079063D0FFE70F9801680120B8222E
:10450000C4F202029142079059D0FFE70F98016868
:10451000012040F21042C4F20202914207904ED0B4
:10452000FFE70F980168012040F22842C4F202021E
:104530009142079043D0FFE70F980168012040F2B5
:104540004042C4F202029142079038D0FFE70F9830
:104550000168012040F25842C4F2020291420790E1
:104560002DD0FFE70F980168012040F27042C4F29D
:1045700002029142079022D0FFE70F9801680120C4
:1045800040F28842C4F202029142079017D0FFE73E
:104590000F980168012040F2A042C4F20202914249
:1045A00007900CD0FFE70F9800684FF64831CBF624
:1045B000FD710844B0FA80F040090790FFE70798C2
:1045C000C007002800F01385FFE70E980F99C96D0A
:1045D00001F01F01C8400007002840F1B080FFE74C
:1045E0000F9800681021C4F20201884200F0818017
:1045F000FFE70F9800682821C4F20201884278D0B2
:10460000FFE70F9800684021C4F20201884270D091
:10461000FFE70F9800685821C4F20201884268D071
:10462000FFE70F9800687021C4F20201884260D051
:10463000FFE70F9800688821C4F20201884258D031
:10464000FFE70F980068A021C4F20201884250D011
:10465000FFE70F980068B821C4F20201884248D0F1
:10466000FFE70F98006840F21041C4F2020188424F
:104670003FD0FFE70F98006840F22841C4F20201E2
:10468000884236D0FFE70F98006840F24041C4F2FC
:10469000020188422DD0FFE70F98006840F2584190
:1046A000C4F20201884224D0FFE70F98006840F26C
:1046B0007041C4F2020188421BD0FFE70F980068E6
:1046C00040F28841C4F20201884212D0FFE70F98FD
:1046D000006840F2A041C4F20201884209D0FFE71D
:1046E0000F98006840F2B841C4F20201884207D135
:1046F000FFE70F980068006800F00400069006E0ED
:104700000F980068006800F008000690FFE7069820
:10471000A0B1FFE70F980168086820F00400086066
:104720000F98C06D00F01F0108208840099988602B
:104730000F99486D40F001004865FFE7FFE70E98CC
:104740000F99C96D01F01F01C840C007002800F093
:10475000A980FFE70F9800681021C4F20201884287
:1047600000F08180FFE70F9800682821C4F2020161
:10477000884278D0FFE70F9800684021C4F2020118
:10478000884270D0FFE70F9800685821C4F20201F8
:10479000884268D0FFE70F9800687021C4F20201D8
:1047A000884260D0FFE70F9800688821C4F20201B8
:1047B000884258D0FFE70F980068A021C4F2020198
:1047C000884250D0FFE70F980068B821C4F2020178
:1047D000884248D0FFE70F98006840F21041C4F2C9
:1047E000020188423FD0FFE70F98006840F228415D
:1047F000C4F20201884236D0FFE70F98006840F209
:104800004041C4F2020188422DD0FFE70F980068B2
:1048100040F25841C4F20201884224D0FFE70F98C9
:10482000006840F27041C4F2020188421BD0FFE7E9
:104830000F98006840F28841C4F20201884212D009
:10484000FFE70F98006840F2A041C4F202018842DD
:1048500009D0FFE70F98006840F2B841C4F20201A6
:10486000884207D1FFE70F980068406900F0800098
:10487000059005E00F980068006800200590FFE7AC
:10488000059870B1FFE70F98C06D00F01F0101207F
:104890008840099988600F99486D40F0020048658A
:1048A000FFE7FFE70E980F99C96D01F01F01C8409F
:1048B0004007002840F1A980FFE70F980068102109
:1048C000C4F20201884200F08180FFE70F9800687F
:1048D0002821C4F20201884278D0FFE70F980068CF
:1048E0004021C4F20201884270D0FFE70F980068AF
:1048F0005821C4F20201884268D0FFE70F9800688F
:104900007021C4F20201884260D0FFE70F9800686E
:104910008821C4F20201884258D0FFE70F9800684E
:10492000A021C4F20201884250D0FFE70F9800682E
:10493000B821C4F20201884248D0FFE70F9800680E
:1049400040F21041C4F2020188423FD0FFE70F98C5
:10495000006840F22841C4F20201884236D0FFE7E5
:104960000F98006840F24041C4F2020188422DD005
:10497000FFE70F98006840F25841C4F202018842F4
:1049800024D0FFE70F98006840F27041C4F20201A2
:1049900088421BD0FFE70F98006840F28841C4F2BC
:1049A0000201884212D0FFE70F98006840F2A04150
:1049B000C4F20201884209D0FFE70F98006840F274
:1049C000B841C4F20201884207D1FFE70F9800689E
:1049D000006800F00200049005E00F98006800688D
:1049E00000200490FFE7049870B1FFE70F98C06DB6
:1049F00000F01F0104208840099988600F99486DD4
:104A000040F004004865FFE7FFE70E980F99C96D75
:104A100001F01F01C840C006002840F1DE80FFE71A
:104A20000F9800681021C4F20201884200F08180D2
:104A3000FFE70F9800682821C4F20201884278D06D
:104A4000FFE70F9800684021C4F20201884270D04D
:104A5000FFE70F9800685821C4F20201884268D02D
:104A6000FFE70F9800687021C4F20201884260D00D
:104A7000FFE70F9800688821C4F20201884258D0ED
:104A8000FFE70F980068A021C4F20201884250D0CD
:104A9000FFE70F980068B821C4F20201884248D0AD
:104AA000FFE70F98006840F21041C4F2020188420B
:104AB0003FD0FFE70F98006840F22841C4F202019E
:104AC000884236D0FFE70F98006840F24041C4F2B8
:104AD000020188422DD0FFE70F98006840F258414C
:104AE000C4F20201884224D0FFE70F98006840F228
:104AF0007041C4F2020188421BD0FFE70F980068A2
:104B000040F28841C4F20201884212D0FFE70F98B8
:104B1000006840F2A041C4F20201884209D0FFE7D8
:104B20000F98006840F2B841C4F20201884207D1F0
:104B3000FFE70F980068006800F00800039006E0A7
:104B40000F980068006800F004000390FFE70398E6
:104B5000002841D0FFE70F98C06D00F01F01102022
:104B60008840099988600F98006800684003002811
:104B70001AD5FFE70F98006800680003002809D4E1
:104B8000FFE70F98006C20B1FFE70F98016C884792
:104B9000FFE708E00F98806C20B1FFE70F98816C69
:104BA0008847FFE7FFE716E00F9800680068C00538
:104BB000002807D4FFE70F980168086820F0080074
:104BC0000860FFE70F98006C20B1FFE70F98016CB9
:104BD0008847FFE7FFE7FFE7FFE70E980F99C96DEA
:104BE00001F01F01C8408006002840F12681FFE740
:104BF0000F9800681021C4F20201884200F0818001
:104C0000FFE70F9800682821C4F20201884278D09B
:104C1000FFE70F9800684021C4F20201884270D07B
:104C2000FFE70F9800685821C4F20201884268D05B
:104C3000FFE70F9800687021C4F20201884260D03B
:104C4000FFE70F9800688821C4F20201884258D01B
:104C5000FFE70F980068A021C4F20201884250D0FB
:104C6000FFE70F980068B821C4F20201884248D0DB
:104C7000FFE70F98006840F21041C4F20201884239
:104C80003FD0FFE70F98006840F22841C4F20201CC
:104C9000884236D0FFE70F98006840F24041C4F2E6
:104CA000020188422DD0FFE70F98006840F258417A
:104CB000C4F20201884224D0FFE70F98006840F256
:104CC0007041C4F2020188421BD0FFE70F980068D0
:104CD00040F28841C4F20201884212D0FFE70F98E7
:104CE000006840F2A041C4F20201884209D0FFE707
:104CF0000F98006840F2B841C4F20201884207D11F
:104D0000FFE70F980068006800F01000029006E0CE
:104D10000F980068006800F002000290FFE7029818
:104D2000002800F08980FFE70F98C06D00F01F0198
:104D300020208840099988600F9890F83500042851
:104D400037D1FFE70F980168086820F01600086067
:104D50000F980168486920F0800048610F98006C46
:104D600020B9FFE70F98806C38B1FFE70F98016812
:104D7000086820F008000860FFE70F98C06D00F099
:104D80001F013F208840099988600F99012081F810
:104D90003500FFE70F99002081F83400FFE70F98F6
:104DA000006D20B1FFE70F98016D8847FFE700F025
:104DB00019BC0F9800680068400300281AD5FFE767
:104DC0000F98006800680003002809D4FFE70F98D7
:104DD000406C20B1FFE70F98416C8847FFE708E07F
:104DE0000F98C06B20B1FFE70F98C16B8847FFE7B2
:104DF000FFE720E00F9800680068C005002811D484
:104E0000FFE70F980168086820F0100008600F990C
:104E1000012081F83500FFE70F99002081F8340068
:104E2000FFE7FFE70F98C06B20B1FFE70F98C16B5A
:104E30008847FFE7FFE7FFE7FFE70F98406D00288F
:104E400000F0D480FFE70F98406DC007002800F005
:104E5000C480FFE70F99042081F835000F9800689F
:104E60001021C4F20201884200F08180FFE70F9810
:104E700000682821C4F20201884278D0FFE70F9829
:104E800000684021C4F20201884270D0FFE70F9809
:104E900000685821C4F20201884268D0FFE70F98E9
:104EA00000687021C4F20201884260D0FFE70F98C9
:104EB00000688821C4F20201884258D0FFE70F98A9
:104EC0000068A021C4F20201884250D0FFE70F9889
:104ED0000068B821C4F20201884248D0FFE70F9869
:104EE000006840F21041C4F2020188423FD0FFE75F
:104EF0000F98006840F22841C4F20201884236D07F
:104F0000FFE70F98006840F24041C4F20201884276
:104F10002DD0FFE70F98006840F25841C4F202011B
:104F2000884224D0FFE70F98006840F27041C4F235
:104F3000020188421BD0FFE70F98006840F28841C9
:104F4000C4F20201884212D0FFE70F98006840F2D5
:104F5000A041C4F20201884209D0FFE70F9800681F
:104F600040F2B841C4F20201884207D1FFE70F982E
:104F70000168086820F00100086006E00F980168E9
:104F8000086820F001000860FFE7FFE70B98013098
:104F90000B900A99884201D9FFE707E0FFE70F98D5
:104FA00000680068C0070028F0D1FFE70F9800688C
:104FB0000068C00728B1FFE70F99032081F835008A
:104FC00004E00F99012081F83500FFE7FFE70F9912
:104FD000002081F83400FFE7FFE70F98C06C20B194
:104FE000FFE70F98C16C8847FFE7FFE7FAE20F98E9
:104FF0000168012045F20842C5F602029142019083
:105000004ED0FFE70F980168012045F21C42C5F61B
:1050100002029142019043D0FFE70F9801680120FE
:1050200045F23042C5F602029142019038D0FFE7C6
:105030000F980168012045F24442C5F602029142F0
:1050400001902DD0FFE70F980168012045F25842EA
:10505000C5F602029142019022D0FFE70F98016845
:10506000012045F26C42C5F602029142019017D030
:10507000FFE70F980168012045F28042C5F6020261
:10508000914201900CD0FFE70F9800684AF66C310E
:10509000CAF2FD710844B0FA80F040090190FFE7C0
:1050A0000198C007002800F09B82FFE70F98006876
:1050B00000680C900D980F99C96D01F01F01C84050
:1050C0004007002840F1D780FFE79DF830004007F7
:1050D000002840F1D080FFE70F98C06D00F01F015D
:1050E00004208840089948609DF831000006002897
:1050F00018D5FFE79DF83200C00748B9FFE70F98C1
:10510000806C20B1FFE70F98816C8847FFE708E0CB
:105110000F98006C20B1FFE70F98016C8847FFE7FC
:10512000FFE7A7E09DF830008006002800F1998095
:10513000FFE70F9800681021C4F20201884200F0D6
:105140008180FFE70F9800682821C4F2020188429D
:1051500078D0FFE70F9800684021C4F2020188422E
:1051600070D0FFE70F9800685821C4F2020188420E
:1051700068D0FFE70F9800687021C4F202018842EE
:1051800060D0FFE70F9800688821C4F202018842CE
:1051900058D0FFE70F980068A021C4F202018842AE
:1051A00050D0FFE70F980068B821C4F2020188428E
:1051B00048D0FFE70F98006840F21041C4F20201A6
:1051C00088423FD0FFE70F98006840F22841C4F2C0
:1051D0000201884236D0FFE70F98006840F2404154
:1051E000C4F2020188422DD0FFE70F98006840F218
:1051F0005841C4F20201884224D0FFE70F980068AA
:1052000040F27041C4F2020188421BD0FFE70F98C0
:10521000006840F28841C4F20201884212D0FFE7E0
:105220000F98006840F2A041C4F20201884209D000
:10523000FFE70F98006840F2B841C4F202018842CB
:1052400007D1FFE70F980168086820F008000860A0
:1052500006E00F980168086820F004000860FFE786
:10526000FFE70F98006C20B1FFE70F98016C8847AB
:10527000FFE7FFE7B3E10D980F99C96D01F01F013A
:10528000C8408007002840F1E180FFE79DF830002A
:105290008007002840F1DA80FFE70F98C06D00F02A
:1052A0001F0102208840089948609DF831000006DF
:1052B000002818D5FFE79DF83200C00748B9FFE77E
:1052C0000F98406C20B1FFE70F98416C8847FFE7CB
:1052D00008E00F98C06B20B1FFE70F98C16B8847BB
:1052E000FFE7FFE7B1E09DF830008006002800F1FD
:1052F000A380FFE70F9800681021C4F202018842E2
:1053000000F08180FFE70F9800682821C4F20201B5
:10531000884278D0FFE70F9800684021C4F202016C
:10532000884270D0FFE70F9800685821C4F202014C
:10533000884268D0FFE70F9800687021C4F202012C
:10534000884260D0FFE70F9800688821C4F202010C
:10535000884258D0FFE70F980068A021C4F20201EC
:10536000884250D0FFE70F980068B821C4F20201CC
:10537000884248D0FFE70F98006840F21041C4F21D
:10538000020188423FD0FFE70F98006840F22841B1
:10539000C4F20201884236D0FFE70F98006840F25D
:1053A0004041C4F2020188422DD0FFE70F98006807
:1053B00040F25841C4F20201884224D0FFE70F981E
:1053C000006840F27041C4F2020188421BD0FFE73E
:1053D0000F98006840F28841C4F20201884212D05E
:1053E000FFE70F98006840F2A041C4F20201884232
:1053F00009D0FFE70F98006840F2B841C4F20201FB
:10540000884207D1FFE70F980168086820F0140070
:10541000086006E00F980168086820F00A0008603C
:10542000FFE70F99012081F83500FFE70F99002071
:1054300081F83400FFE7FFE70F98C06B20B1FFE76A
:105440000F98C16B8847FFE7FFE7C7E00D980F99FA
:10545000C96D01F01F01C8400007002840F1BC8061
:10546000FFE79DF830000007002840F1B580FFE716
:105470000F9800681021C4F20201884200F0818078
:10548000FFE70F9800682821C4F20201884278D013
:10549000FFE70F9800684021C4F20201884270D0F3
:1054A000FFE70F9800685821C4F20201884268D0D3
:1054B000FFE70F9800687021C4F20201884260D0B3
:1054C000FFE70F9800688821C4F20201884258D093
:1054D000FFE70F980068A021C4F20201884250D073
:1054E000FFE70F980068B821C4F20201884248D053
:1054F000FFE70F98006840F21041C4F202018842B1
:105500003FD0FFE70F98006840F22841C4F2020143
:10551000884236D0FFE70F98006840F24041C4F25D
:10552000020188422DD0FFE70F98006840F25841F1
:10553000C4F20201884224D0FFE70F98006840F2CD
:105540007041C4F2020188421BD0FFE70F98006847
:1055500040F28841C4F20201884212D0FFE70F985E
:10556000006840F2A041C4F20201884209D0FFE77E
:105570000F98006840F2B841C4F20201884207D196
:10558000FFE70F980168086820F01C00086006E03B
:105590000F980168086820F00E000860FFE70F9878
:1055A000C06D00F01F01012000FA01F1089A51605E
:1055B0000F9948650F9981F83500FFE70F99002092
:1055C00081F83400FFE70F98C06C20B1FFE70F9817
:1055D000C16C8847FFE700E0FFE7FFE7FFE700E077
:1055E000FFE7FFE710B080BD80B58EB00C9001F0F2
:1055F00007FE0A900C9828B9FFE701208DF83700C4
:1056000000F0BEBE0C9800681021C4F2020188426E
:1056100000F0D180FFE70C9800682821C4F2020155
:10562000884200F0C880FFE70C9800684021C4F26F
:105630000201884200F0BF80FFE70C980068582103
:10564000C4F20201884200F0B680FFE70C980068BF
:105650007021C4F20201884200F0AD80FFE70C988F
:1056600000688821C4F20201884200F0A480FFE7AC
:105670000C980068A021C4F20201884200F09B80CF
:10568000FFE70C980068B821C4F20201884200F0DC
:105690009280FFE70C98006840F21041C4F20201CA
:1056A000884200F08880FFE70C98006840F22841AB
:1056B000C4F2020188427ED0FFE70C98006840F2F5
:1056C0004041C4F20201884275D0FFE70C9800689F
:1056D00040F25841C4F2020188426CD0FFE70C98B6
:1056E000006840F27041C4F20201884263D0FFE7D3
:1056F0000C98006840F28841C4F2020188425AD0F6
:10570000FFE70C98006840F2A041C4F20201884211
:1057100051D0FFE70C98006840F2B841C4F2020192
:10572000884248D0FFE70C98006845F20841C5F66A
:10573000020188423FD0FFE70C98006845F21C4107
:10574000C5F60201884236D0FFE70C98006845F2A2
:105750003041C5F6020188422DD0FFE70C98006861
:1057600045F24441C5F60201884224D0FFE70C9877
:10577000006845F25841C5F6020188421BD0FFE798
:105780000C98006845F26C41C5F60201884212D0BF
:10579000FFE70C98006845F28041C5F60201884297
:1057A00009D0FFE70C98006845F29441C5F6020164
:1057B000884201D1FFE707E046F66D00C0F6010020
:1057C000E6210AF0A9FCFFE70C98806850B1FFE7DA
:1057D0000C988068402805D0FFE70C9880688028E6
:1057E00001D1FFE707E046F66D00C0F60100E721B2
:1057F0000AF092FCFFE70C98C068B0F5007F04D077
:10580000FFE70C98C06808B9FFE707E046F66D00AF
:10581000C0F60100E8210AF07FFCFFE70C98006960
:10582000B0F5806F04D0FFE70C98006908B9FFE776
:1058300007E046F66D00C0F60100E9210AF06CFCB5
:10584000FFE70C98406960B1FFE70C984069B0F53C
:10585000006F06D0FFE70C984069B0F5805F01D17A
:10586000FFE707E046F66D00C0F60100EA210AF006
:1058700053FCFFE70C98806960B1FFE70C988069E2
:10588000B0F5005F06D0FFE70C988069B0F5804F57
:1058900001D1FFE707E046F66D00C0F60100EB21FD
:1058A0000AF03AFCFFE70C98C069B8B1FFE70C9822
:1058B000C069B0F5807F11D0FFE70C98C06920283F
:1058C0000CD0FFE70C98C069B0F5802F06D0FFE739
:1058D0000C98C069B0F5402F01D1FFE707E046F60C
:1058E0006D00C0F60100EC210AF016FCFFE70C98F1
:1058F000006A90B1FFE70C98006AB0F5803F0CD0C9
:10590000FFE70C98006AB0F5003F06D0FFE70C985F
:10591000006AB0F5403F01D1FFE707E046F66D00B1
:10592000C0F60100ED210AF0F7FBFFE70C980168D3
:1059300001201022C4F202029142079000F0A380DD
:10594000FFE70C98016801202822C4F2020291426C
:10595000079000F09880FFE70C9801680120402232
:10596000C4F202029142079000F08D80FFE70C988C
:10597000016801205822C4F202029142079000F00F
:105980008280FFE70C98016801207022C4F20202B5
:105990009142079077D0FFE70C9801680120882298
:1059A000C4F20202914207906DD0FFE70C980168A3
:1059B0000120A022C4F202029142079063D0FFE7C7
:1059C0000C9801680120B822C4F2020291420790AB
:1059D00059D0FFE70C980168012040F21042C4F250
:1059E0000202914207904ED0FFE70C980168012017
:1059F00040F22842C4F202029142079043D0FFE7EE
:105A00000C980168012040F24042C4F20202914227
:105A1000079038D0FFE70C980168012040F2584207
:105A2000C4F20202914207902DD0FFE70C98016862
:105A3000012040F27042C4F202029142079022D04B
:105A4000FFE70C980168012040F28842C4F202028C
:105A50009142079017D0FFE70C980168012040F2AF
:105A6000A042C4F20202914207900CD0FFE70C98CA
:105A700000684FF64831CBF6FD710844B0FA80F06B
:105A800040090790FFE70798C007002800F0F4815D
:105A9000FFE70C984068732801D8FFE707E046F657
:105AA0006D00C0F60100F1210AF036FBFFE70C980B
:105AB000406A28B1FFE70C98406A042801D1FFE74B
:105AC00007E046F66D00C0F60100F2210AF024FB63
:105AD000FFE70C98406A00285BD0FFE70C98806ACB
