:020000040800F2
:1000000000000220814A00088106000883060008DB
:100010008506000887060008890600080000000021
:100020000000000000000000000000008B06000837
:100030008D060008000000008F06000891060008E9
:10004000D54A0008D54A0008D54A0008D54A000814
:10005000D54A0008D54A0008D54A0008D54A000804
:10006000D54A0008D54A0008D54A0008D54A0008F4
:10007000D54A0008D54A0008D54A0008D54A0008E4
:10008000D54A0008D54A0008D54A0008D54A0008D4
:10009000D54A0008D54A0008D54A0008D54A0008C4
:1000A000D54A0008D54A0008D54A0008D54A0008B4
:1000B000D54A0008D54A0008D54A0008D54A0008A4
:1000C000D54A0008D54A0008D54A0008D54A000894
:1000D000D54A0008D54A0008D54A00089906000804
:1000E000D54A0008D54A000800000000D54A00089B
:1000F000D54A0008D54A0008D54A0008D54A000864
:10010000D54A0008D54A0008D54A0008D54A000853
:10011000D54A0008D54A0008D54A0008D54A000843
:10012000D54A0008D54A0008D54A0008D54A000833
:10013000D54A0008D54A0008D54A0008D54A000823
:1001400000000000000000000000000000000000AF
:10015000D54A0008D54A0008D54A0008D54A000803
:10016000D54A0008D54A0008D54A0008D54A0008F3
:10017000D54A0008D54A0008D54A0008000000000A
:10018000D54A0008D54A0008D54A0008D54A0008D3
:10019000D54A0008D54A0008D54A0008D54A0008C3
:1001A000D54A0008D54A0008D54A0008D54A0008B3
:1001B000D54A0008D54A0008D54A0008D54A0008A3
:1001C000D54A0008D54A0008D54A0008D54A000893
:1001D000D54A0008D54A0008D54A0008D54A000883
:1001E000D54A0008D54A0008D54A0008D54A000873
:1001F000D54A0008D54A0008D54A0008D54A000863
:10020000D54A0008D54A0008D54A0008D54A000852
:10021000D54A0008D54A0008D54A0008D54A000842
:10022000D54A0008D54A0008D54A00080000000059
:10023000D54A0008D54A000800000000D54A000849
:10024000D54A0008D54A0008D54A0008D54A000812
:10025000D54A0008D54A0008D54A0008D54A000802
:10026000D54A0008D54A0008D54A0008D54A0008F2
:10027000D54A0008D54A0008D54A00080000000009
:10028000D54A0008D54A0008D54A000800000000F9
:0802900000000000D54A00083F
:1002980053B94AB9002908BF00281CBF4FF0FF31E5
:1002A8004FF0FF3000F00CB8ADF1080C6DE904CE4A
:1002B80004F03AFCDDF804E0DDE9022304B07047FD
:1002C800704700BF10B5054C237833B9044B13B100
:1002D8000448AFF300800123237010BD10000020F4
:1002E80000000000284E000808B5034B1BB1034965
:1002F8000348AFF3008008BD000000001400002090
:10030800284E000830B585B000240094019402946A
:10031800039400F051FA01238DF800308DF8014064
:1003280001941F228DF8082087228DF809208DF866
:100338000A408DF80B408DF80C308DF80D308DF893
:100348000E408DF80F40684600F054FA042000F083
:1003580041FA05B030BD72B6FEE7000000B59DB0A9
:100368004C22002109A804F0B2FB2022002101A898
:1003780004F0ADFB022002F0ADFC002300931E4BFD
:10038800DA6A22F00102DA62DB6A03F00103009301
:100398001A4A936923F4404343F480439361936971
:1003A80003F440430093009B144B9B6913F4005FD4
:1003B800FAD00223099301230C9340230D930023C1
:1003C800129309A800F042FA90B93F230193002341
:1003D800029303930493059340220692079308938C
:1003E800012101A800F086FE20B91DB05DF804FBCC
:1003F800FFF7B1FFFFF7AFFF0004005800480258AD
:1004080008B5FFF77FFF02F0B7FCFFF7A7FF00F082
:100418001FF800F0ABF803F031FB0A4C002120462E
:1004280003F0F0F80C21204603F0ECF80021084610
:1004380003F0BCFA4FF47A7307220349034804F027
:1004480089F9FEE72C000020404E00087C000020BF
:1004580070B588B003AD0024039404940594069401
:1004680007941C4BD3F8E02042F00202C3F8E020C6
:10047800D3F8E02002F002020092009AD3F8E020BC
:1004880042F00402C3F8E020D3F8E02002F00402AE
:100498000192019AD3F8E02042F00102C3F8E0206B
:1004A800D3F8E03003F001030293029B0A4E224680
:1004B8004FF47071304602F033F94FF470730393C0
:1004C80001230493059406942946304602F018F84F
:1004D80008B070BD004402580008025802680A4B70
:1004E8009A4200D0704782B0084BD3F8F02042F00F
:1004F8000102C3F8F020D3F8F03003F001030193B0
:10050800019B02B0704700BF000001400044025840
:1005180000B587B0002301930293039304930593D6
:1005280002680F4B9A4202D007B05DF804FB0D4BEE
:10053800D3F8E02042F00102C3F8E020D3F8E0301D
:1005480003F001030093009B4FF41063019302230F
:1005580002930123059301A9034801F0D1FFE3E7C2
:1005680000000140004402580000025810B59AB03B
:1005780000241694179418941994139414941594A9
:100588000C940D940E940F941094119412942C22A0
:10059800214601A804F09BFA3548364B03603F23F7
:1005A800436084606323C360046144618023836182
:1005B80002F028FE002846D14FF48053169316A95E
:1005C8002B4802F073FF002840D1294802F04AFE68
:1005D80000283ED1002313931493159313A924489C
:1005E80003F0C0F8002837D160230C9332230D9311
:1005F80000220E920F921092119212920CA91C488E
:1006080002F0AAFE58BB0C220CA9194802F0A4FE5D
:1006180040BB0023019302930393049305934FF483
:1006280000520692079308934FF0007209920A93BA
:100638000B9301A90E4803F0E5F8B0B90C48FFF791
:1006480067FF1AB010BDFFF786FEB5E7FFF783FE18
:10065800BBE7FFF780FEBDE7FFF77DFEC4E7FFF7C6
:100668007AFED0E7FFF777FED3E7FFF774FEE5E7FA
:100678002C00002000000140FEE7FEE7FEE7FEE751
:10068800FEE770477047704708B502F0A3FB08BD46
:1006980008B5024803F0C4FA08BD00BF7C0000207A
:1006A80082B0074BD3F8F42042F00202C3F8F420DA
:1006B800D3F8F43003F002030193019B02B07047B2
:1006C80000440258002807DB00F01F0240090123FC
:1006D8009340024A42F82030704700BF00E100E032
:1006E800002804DB0901C9B2044B1954704700F013
:1006F8000F000901C9B2024B1954704700E400E029
:1007080014ED00E000B500F00700C0F1070CBCF1E3
:10071800040F28BF4FF0040C031D062B0FD9C31E6E
:100728004FF0FF3E0EFA0CF021EA000199400EFA54
:1007380003FE22EA0E0241EA02005DF804FB0023F0
:10074800EEE700000649CB6823F4E0631B041B0CAA
:10075800000200F4E0600343024A1A43CA6070478B
:1007680000ED00E00000FA0510B50446054BD86816
:10077800C0F30220FFF7C6FF01462046FFF7B0FF8F
:1007880010BD00BF00ED00E008B5FFF79BFF08BDF6
:100798000138B0F1807F0BD24FF0E0235861054A51
:1007A800F02182F823100020986107221A6170470F
:1007B8000120704700ED00E0BFF35F8F044B5A6AD9
:1007C80022F480325A620022C3F89420704700BF96
:1007D80000ED00E040F00100054BC3F894005A6AB0
:1007E80042F480325A62BFF34F8FBFF36F8F704766
:1007F80000ED00E04378144AC2F89830D2F8A030EF
:1008080023F00103C2F8A0304368C2F89C30017B92
:10081800C37A1B0643EA0173817A43EAC143417BE9
:1008280043EA8143817B43EA4143C17B43EA014375
:10083800417A43EA0123017A43EA410301780B43F1
:10084800C2F8A030704700BF00ED00E0002800F0BB
:10085800398338B50446036813F0010F25D0944A4C
:10086800136903F03803926A102B15D0182B0FD098
:100878006368B3F5803F3FD0002B53D18C4B1A6887
:1008880022F480321A601A6822F480221A6038E052
:1008980002F00302022AEBD1854B1B6813F4003FD8
:1008A80003D06368002B00F00F83236813F0020F56
:1008B80000F0A1807E4A1369926A13F038035AD077
:1008C800182B55D0E368002B00F0DE8078490A68C1
:1008D80022F0190213430B6002F088FA0546744BA4
:1008E8001B6813F0040F40F0AD8002F07FFA401B44
:1008F8000228F4D90320EEE26D4A136843F48033EA
:10090800136063682BB302F071FA0546684B1B68E5
:1009180013F4003FC9D102F069FA401B6428F5D9E5
:100928000320D8E2B3F5A02F09D0614B1A6822F44E
:1009380080321A601A6822F480221A60E1E75C4B60
:100948001A6842F480221A601A6842F480321A60E7
:10095800D7E702F04BFA0546554B1B6813F4003FE6
:10096800A3D002F043FA401B6428F5D90320B2E271
:1009780012F0030FA6D14E4B1B6813F0040F03D0DF
:10098800E368002B00F0A282494A136823F0190398
:10099800E1680B43136002F029FA0546444B1B68D3
:1009A80013F0040F06D102F021FA401B0228F5D9F2
:1009B800032090E202F020FA41F20303984212D891
:1009C8002269402A07D03A494B6823F47C3343EA2A
:1009D80002334B600FE0364A536823F47C3343F408
:1009E8000033536007E0324A536823F0FE4321691D
:1009F80043EA01635360236813F0100F00F0888006
:100A08002B4A136903F03803926A082B56D0182B27
:100A180050D0E369002B00F0B880254A136843F0F2
:100A28008003136002F0E2F90546214B1B6813F4BA
:100A3800807F40F0888002F0D9F9401B0228F4D961
:100A4800032048E202F0D8F941F20303984212D891
:100A58002269402A07D016494B6823F47C3343EABD
:100A680002334B60C7E7124A536823F47C3343F4DC
:100A780000335360BFE70E4A536823F0FE432169F1
:100A880043EA01635360B6E7094A136823F0010398
:100A9800136002F0ABF90546054B1B6813F0040F11
:100AA800A9D002F0A3F9401B0228F5D9032012E2CD
:100AB8000044025802F00302012AAAD1A14B1B6884
:100AC80013F4807F03D0E369802B40F0018202F0A9
:100AD80093F941F20303984212D8226A202A07D0D8
:100AE80098494B6823F0F84343EA82634B600FE070
:100AF800944A536823F0F84343F08043536007E077
:100B0800904AD36823F07C53216A43EA0163D36097
:100B1800236813F0080F60D06369002B49D0894A15
:100B2800536F43F00103536702F060F90546854BA4
:100B38005B6F13F0020F50D102F058F9401B0228E6
:100B4800F5D90320C7E102F057F941F203039842AF
:100B580012D8226A202A07D07A494B6823F0F84332
:100B680043EA82634B60D3E7764A536823F0F8433D
:100B780043F080435360CBE7724AD36823F07C5339
:100B8800216A43EA0163D360C2E76E4A136823F01F
:100B98008003136002F02AF905466A4B1B6813F4B8
:100BA800807FB5D002F022F9401B0228F5D9032036
:100BB80091E1644A536F23F00103536702F016F979
:100BC8000546604B5B6F13F0020F06D002F00EF97A
:100BD800401B0228F5D903207DE1236813F0200F7C
:100BE80029D0A3699BB1574A136843F48053136013
:100BF80002F0FCF80546534B1B6813F4005F1AD14A
:100C080002F0F4F8401B0228F5D9032063E14D4AAD
:100C1800136823F48053136002F0E8F80546494B43
:100C28001B6813F4005F06D002F0E0F8401B0228AE
:100C3800F5D903204FE1236813F0040F21D1636A2B
:100C4800002B00F047813F4A126902F03802182A47
:100C580000F0EE80022B79D03A4A136823F08073B3
:100C6800136002F0C3F80446364B1B6813F0007F8C
:100C780000F0DC8002F0BAF8001B0228F4D9032047
:100C880029E1314A136843F48073136002F0AEF827
:100C980005462D4B1B6813F4807F06D102F0A6F899
:100CA800401B6428F5D9032015E1A368012B0AD05D
:100CB8000BBB244B1A6F22F001021A671A6F22F03D
:100CC80004021A6704E01F4A136F43F00103136715
:100CD800A36833B302F08AF805461A4B1B6F13F06A
:100CE800020FACD102F082F8401B41F288339842DF
:100CF800F3D90320EFE0052B09D0124B1A6F22F02D
:100D080001021A671A6F22F004021A67E0E70D4B16
:100D18001A6F42F004021A671A6F42F001021A674A
:100D2800D6E702F063F80546064B1B6F13F0020F77
:100D380085D002F05BF8401B41F288339842F3D922
:100D48000320C8E00044025800480258694A136862
:100D580023F08073136002F049F80546654B1B6861
:100D680013F0007F06D002F041F8401B0228F5D9A5
:100D78000320B0E05F4B996A5F4A0A40A16AE06AC3
:100D880041EA00110A439A62226B013AC2F308024F
:100D9800616B0139490289B20A43A16B013909041F
:100DA80001F4FE010A43E16B0139090601F0FE4135
:100DB8000A431A63DA6A22F00102DA625A6B6FF3A5
:100DC800CF02A16C42EAC1025A63DA6A22F00C022D
:100DD800216C0A43DA62DA6A22F00202616C0A4381
:100DE800DA62DA6A42F48032DA62DA6A42F40032AB
:100DF800DA62DA6A42F48022DA62DA6A42F00102DE
:100E0800DA621A6842F080721A6001F0EFFF044655
:100E1800384B1B6813F0007F06D101F0E7FF001B79
:100E28000228F5D9032056E0002054E0002052E0C3
:100E3800304A916A106B012B4ED001F00303A26A6D
:100E480093424BD1C1F30511E36A994248D1C0F3EB
:100E58000802236B013B9A4244D1C0F34622636BDC
:100E6800013B9A4240D1C0F30642A36B013B9A4230
:100E78003CD1C0F30660E36B013B984238D11D4B6F
:100E88005B6BC3F3CC03A26C9A4201D1002022E031
:100E9800184AD36A23F00103D36201F0A7FF05467D
:100EA80001F0A4FFA842FBD0124A536B6FF3CF03A3
:100EB800A16C43EAC1035363D36A43F00103D362CD
:100EC800002008E001207047012004E0012002E032
:100ED800012000E0002038BD0120FCE70120FAE7EE
:100EE8000120F8E70120F6E70120F4E70120F2E706
:100EF8000120F0E7004402580CFCFFFF754B1B690A
:100F080003F03803102B00F0DE80182B0FD0002BD5
:100F180040F0DB806F4B1B6813F0200F00F0D78088
:100F28006C4B1B68C3F3C1036B48D840704710B4BF
:100F3800684B9A6A02F003029C6AC4F30510D96AE6
:100F480001F001015B6BC3F3CC0301FB03F307EE74
:100F5800903AF8EE677A14F47C7F77D0012A4AD069
:100F6800022A76D0002A40F091805A4B1B6813F071
:100F7800200F23D057490A68C2F3C102564BD34009
:100F880007EE103AF8EE476A07EE100AB8EE476A1D
:100F980086EE867A0B6BC3F3080306EE903AF8EEFA
:100FA800666A9FED4E6A67EE867A76EEA77AF7EE66
:100FB800006A77EEA67A27EE277A38E007EE100A5D
:100FC800F8EE476A9FED466A86EE267A414B1B6B20
:100FD800C3F3080306EE903AF8EE666A9FED3F6A9F
:100FE80067EE867A76EEA77AF7EE006A77EEA67A4B
:100FF80027EE277A1BE007EE100AF8EE476A9FED06
:10100800396A86EE267A334B1B6BC3F3080306EE68
:10101800903AF8EE666A9FED316A67EE867A76EE68
:10102800A77AF7EE006A77EEA67A27EE277A294B99
:101038001B6BC3F34623013307EE903AF8EE677A49
:10104800C7EE276AFCEEE67A17EE900A5DF8044BC5
:10105800704707EE100AF8EE476A9FED236A86EE9E
:10106800267A1C4B1B6BC3F3080306EE903AF8EE86
:10107800666A9FED1A6A67EE867A76EEA77AF7EEC9
:10108800006A77EEA67A27EE277AD0E707EE100AED
:10109800F8EE476A9FED136A86EE267A0D4B1B6BB6
:1010A800C3F3080306EE903AF8EE666A9FED0B6A02
:1010B80067EE867A76EEA77AF7EE006A77EEA67A7A
:1010C80027EE277AB3E7094870470948704702486E
:1010D800704700BF004402580090D0030000003958
:1010E8000024744C0024744A20BCBE4B40787D0117
:1010F80000093D00002800F0328170B50D46044615
:101108009B4B1B6803F00F038B420BD2984A136862
:1011180023F00F030B431360136803F00F038B4294
:1011280040F01F81236813F0040F0CD02269914B03
:101138009B6903F070039A4205D98E498B6923F0A5
:1011480070031A438A61236813F0080F0CD0626990
:10115800884BDB6903F070039A4205D98549CB694E
:1011680023F070031A43CA61236813F0100F0CD0E0
:10117800A269804BDB6903F4E0639A4205D97D4993
:10118800CB6923F4E0631A43CA61236813F0200F84
:101198000CD0E269774B1B6A03F070039A4205D9B9
:1011A80074490B6A23F070031A430A62236813F028
:1011B800020F0CD0E2686F4B9B6903F00F039A4251
:1011C80005D96C498B6923F00F031A438A61236898
:1011D80013F0010F41D0674A936923F47063A16843
:1011E8000B4393616368022B0AD0032B27D0012B92
:1011F8002CD0604A126812F0040F06D10120ADE02D
:10120800126812F4003F00F0AE805A490A6922F0D1
:10121800070213430B6101F0E9FD0646554B1B69B4
:1012280003F038036268B3EBC20F16D001F0DEFD9D
:10123800801B41F288339842F0D903208EE04D4A52
:10124800126812F0007FE0D1012087E0494A126855
:1012580012F4807FD9D1012080E0236813F0020FB7
:101268000CD0E268434B9B6903F00F039A4205D206
:1012780040498B6923F00F031A438A613C4B1B6872
:1012880003F00F03AB420AD9394A136823F00F035E
:101298002B431360136803F00F03AB4265D1236837
:1012A80013F0040F0CD02269324B9B6903F07003D2
:1012B8009A4205D22F498B6923F070031A438A6139
:1012C800236813F0080F0CD062692A4BDB6903F01E
:1012D80070039A4205D22749CB6923F070031A4359
:1012E800CA61236813F0100F0CD0A269214BDB6987
:1012F80003F4E0639A4205D21E49CB6923F4E06304
:101308001A43CA61236813F0200F0CD0E269194B05
:101318001B6A03F070039A4205D216490B6A23F040
:1013280070031A430A62FFF7E9FD12498B69C3F398
:101338000323114AD35C03F01F03D8408B6903F0E1
:101348000F03D35C03F01F0320FA03F30B4A136067
:101358000B4B18600B4B186801F0E6FC70BD0120C0
:1013680070470120FAE70120F8E70120F6E700BFFF
:101378000020005200440258484E0008080000208F
:101388000C0000200400002008B5FFF7B7FD0B4A49
:101398009369C3F303230A49CB5C03F01F0320FAC4
:1013A80003F3926902F00F02885C00F01F0023FA31
:1013B80000F0044A1060044A136008BD0044025853
:1013C800484E0008080000200C00002008B5FFF770
:1013D800DBFF054BDB69C3F30213044AD35C03F05C
:1013E8001F03D84008BD00BF00440258484E0008FB
:1013F80008B5FFF7C9FF054BDB69C3F30223044AAD
:10140800D35C03F01F03D84008BD00BF0044025856
:10141800484E0008404B9B6A03F00303032B79D026
:1014280070B505460E463C4A136823F08063136086
:1014380001F0DCFC0446384B1B6813F0006F06D043
:1014480001F0D4FC031B022BF5D9032070BD324BED
:101458009A6A22F47C32296842EA01329A626A68FE
:10146800013AC2F30802A9680139490289B20A435C
:10147800E9680139090401F4FE010A4329690139BF
:10148800090601F0FE410A439A63DA6A22F0C002B3
:1014980069690A43DA62DA6A22F02002A9690A4312
:1014A800DA62DA6A22F01002DA62DA6B6FF3CF02DC
:1014B800E96942EAC102DA63DA6A42F01002DA62E2
:1014C800C6B91A46DB6A43F40023D362124A13688A
:1014D80043F08063136001F089FC04460E4B1B68DF
:1014E80013F0006F14D101F081FC001B0228F5D91C
:1014F8000320ABE7012E05D0074AD36A43F4001353
:10150800D362E3E7044AD36A43F48013D362DDE786
:1015180000209BE70120704700440258404B9B6A1B
:1015280003F00303032B79D070B505460E463C4AF9
:10153800136823F08053136001F058FC0446384BBD
:101548001B6813F0005F06D001F050FC031B022B50
:10155800F5D9032070BD324B9A6A22F07C72296853
:1015680042EA01529A626A68013AC2F30802A9681B
:101578000139490289B20A43E9680139090401F4C9
:10158800FE010A4329690139090601F0FE410A43AF
:101598001A64DA6A22F4406269690A43DA62DA6A2A
:1015A80022F40072A9690A43DA62DA6A22F48072C4
:1015B800DA625A6C6FF3CF02E96942EAC1025A64EF
:1015C800DA6A42F48072DA62C6B91A46DB6A43F410
:1015D8008003D362124A136843F08053136001F00A
:1015E80005FC04460E4B1B6813F0005F14D101F094
:1015F800FDFB001B0228F5D90320ABE7012E05D01F
:10160800074AD36A43F08073D362E3E7044AD36A94
:1016180043F40003D362DDE700209BE70120704715
:1016280000440258F8B50446036813F0006F30D040
:10163800836EB3F5001F26D00ED8ABB1B3F5801F6B
:1016480007D102210830FFF7E5FE054695B12E4681
:1016580021E0012635461EE0B3F5401F01D10025E3
:1016680008E00126354616E09A4AD36A43F4003367
:10167800D3620025974A136D23F44013A16E0B43E0
:101688001365002607E002212830FFF747FF0546CB
:10169800DCE700263546236813F4807F14D0A36D59
:1016A800042B31D8DFE803F0032229080800894A0F
:1016B800D36A43F40033D3624DBB864A136D23F0DB
:1016C8000703A16D0B431365236813F4007F3FD014
:1016D800E36D802B2ED01FD833B3402B19D10021B6
:1016E80004F10800FFF796FE054629E0002104F101
:1016F8000800FFF78FFE0546DEE7002104F1280009
:10170800FFF70CFF0546D7E701263546DCE72E46EE
:10171800DAE7012635461BE0C02B11D0B3F5807FF0
:101728000ED00126354613E06A4AD36A43F40033E3
:10173800D36205E0002104F12800FFF7EFFE05461B
:10174800DDB9644A136D23F4E073E16D0B4313654F
:10175800236813F4806F33D0D4F8A830B3F5800F22
:101768001FD00FD8BBB1B3F5001F08D1002104F179
:101778000800FFF74FFE054619E02E46E8E7012668
:1017880035461DE0B3F5C00F11D0B3F5000F0ED0EC
:101798000126354614E04F4AD36A43F40033D36236
:1017A80005E0002104F12800FFF7B8FE0546E5B979
:1017B800484A936D23F46003D4F8A8100B4393654B
:1017C800236813F4006F34D0D4F8AC30B3F1007F41
:1017D8001FD00FD8BBB1B3F1807F08D1002104F12D
:1017E8000800FFF717FE054619E02E46E8E7012630
:1017F80035461EE0B3F1407F11D0B3F1806F0ED0B3
:101808000126354615E0334AD36A43F40033D362E0
:1018180005E0002104F12800FFF780FE0546002DB1
:1018280033D12C4A936D23F0E063D4F8AC100B430A
:101838009365236813F0007F13D0E36C202B2ED020
:1018480028D833B1102B22D1224AD36A43F400336B
:10185800D3625DBB1F4AD36C23F03003E16C0B43AA
:10186800D364236813F4805F46D0236EB3F5005F1A
:1018780032D020D843B3B3F5805F19D1002104F1E9
:101888000800FFF7C7FD05462CE02E46D1E70126E4
:101898003546E6E7302BDCD001263546E1E7022164
:1018A80004F10800FFF7B6FD0546D2E72E46D8E753
:1018B8000126354620E0B3F5405F13D0B3F5804FDD
:1018C80010D00126354617E0024AD36A43F40033A4
:1018D800D36207E000440258002104F12800FFF712
:1018E8001DFE05463DB9704A136D23F4E043216E91
:1018F8000B43136500E02E46236813F4005F17D0EE
:10190800636EB3F5003F4FD042D843B1B3F5803F83
:101918003BD1012104F10800FFF77CFD0546002DAD
:1019280049D1614A136D23F4E023616E0B431365BB
:10193800236813F4804F19D0D4F8B030B3F1005FA6
:101948004AD03DD843B1B3F1805F36D1012104F1CB
:101958000800FFF75FFD0546002D44D1524A936DFC
:1019680023F0E043D4F8B0100B439365236813F4D5
:10197800004F47D0236FB3F1805F36D0B3F1005FDB
:101988004BD0BBB3012635463CE001263546CFE7B0
:10199800B3F5802FC3D0B3F5A02FC0D0B3F5403F27
:1019A800BDD001263546C3E7012104F12800FFF721
:1019B800B5FD0546B3E72E46BAE701263546D5E715
:1019C800B3F1804FC8D0B3F1A04FC5D0B3F1405F99
:1019D800C2D001263546C9E7012104F12800FFF7E6
:1019E8009DFD0546B8E72E46C0E72F4AD36A43F463
:1019F8000033D362C5B92C4A136D23F04053216FCD
:101A08000B431365236813F0807F1CD0A36C032B52
:101A180044D8DFE803F0100B3C10012104F1080062
:101A2800FFF7F8FC0546E5E72E46EBE71E4AD36AC2
:101A380043F40033D362A5BB1B4AD36C23F00303E2
:101A4800A16C0B43D364236813F4800F2ED1236851
:101A580013F0010F00F0A680E36F282B00F2A0809E
:101A6800DFE803F08E9E9E9E9E9E9E9E889E9E9E72
:101A78009E9E9E9E979E9E9E9E9E9E9E8E9E9E9E95
:101A88009E9E9E9E8E9E9E9E9E9E9E9E8E00022145
:101A980004F10800FFF7BEFC0546CCE701263546F1
:101AA800D1E72E46CFE700BF004402585A4A1368D0
:101AB80043F48073136001F099F90746564B1B688D
:101AC80013F4807F05D101F091F9C01B6428F5D982
:101AD8000325002D4AD1514B1B6FD4F8B420534035
:101AE80013F4407F0CD04D4B1A6F22F44072196FDB
:101AF80041F480311967196F21F4803119671A6729
:101B0800D4F8B430B3F5807F15D08DBBD4F8B43099
:101B180003F44072B2F5407F1ED0404A136923F4A3
:101B28007C5313613D490B6FD4F8B420C2F30B0208
:101B380013430B678BE701F059F90746374B1B6FC7
:101B480013F0020FE1D101F051F9C01B41F28833C3
:101B58009842F3D90325D8E73048026922F47C5229
:101B68002F4901EA131313430361DBE72E466EE79F
:101B78002E466CE7012104F10800FFF74BFC0546EF
:101B8800E5B9264A536D23F03803E16F0B435365DB
:101B980008E0012104F12800FFF7C0FC0546EFE743
:101BA80001263546236813F0020F17D0A36F052BC3
:101BB8002CD8DFE803F00B05240B0B0B2E46F1E7BE
:101BC800012104F10800FFF725FC05460DBB134A67
:101BD800536D23F00703A16F0B435365236813F07C
:101BE800040F30D0D4F89430052B00F20F81DFE8D1
:101BF80013F01F00190006011F001F001F0001211C
:101C080004F12800FFF78AFC0546DFE70126354680
:101C1800E4E72E46E2E700BF0048025800440258B5
:101C2800CFFFFF00012104F10800FFF7F3FB054691
:101C3800002D40F0EE80B64A936D23F00703D4F8E8
:101C480094100B439365236813F0200F1DD0D4F82C
:101C58009030B3F1005F00F0F08000F2DF804BB10C
:101C6800B3F1805F40F0D780002104F10800FFF74E
:101C7800D1FB0546002D40F0E780A54A536D23F0BF
:101C8800E043D4F890100B435365236813F0400FDA
:101C98001DD0D4F89C30B3F5006F00F0E98000F255
:101CA800D8804BB1B3F5806F40F0D080002104F1AB
:101CB8000800FFF7AFFB0546002D40F0E080944A8E
:101CC800936D23F4E053D4F89C100B439365236879
:101CD80013F0800F1DD0D4F8A030B3F5804F00F07A
:101CE800E28000F2D1804BB1B3F5005F40F0C980CB
:101CF800002104F10800FFF78DFB0546002D40F098
:101D0800D980834A936D23F46043D4F8A0100B4321
:101D18009365236813F0080F0DD0D4F88430B3F519
:101D2800805F00F0C9807A4A536D23F44053D4F899
:101D380084100B435365236813F0100F0DD0D4F8AB
:101D48009830B3F5807F00F0C180714A936D23F419
:101D58004073D4F898100B439365236813F4002F4D
:101D68001CD0D4F8A430B3F5803F00F0B980B3F5A7
:101D7800003F08D0002B40F0BA80002104F1080091
:101D8800FFF748FB0546002D40F0B480604A936D8C
:101D980023F44033D4F8A4100B439365236813F459
:101DA800802F1CD0D4F88830B3F5001F00F0A48031
:101DB800B3F5401F08D0B3F5801F40F0A480544A03
:101DC800D36A43F40033D362002D40F09F80504A19
:101DD800536D23F44013D4F888100B4353652368DC
:101DE80013F4803F00F0AC80236D002B00F092804C
:101DF800B3F5803F00F09C8001263546A0E0012124
:101E080004F12800FFF78AFB054611E7012635464D
:101E180019E72E4617E70126354636E7B3F1804F16
:101E28003FF428AFB3F1A04F3FF424AFB3F1405FC4
:101E38003FF420AF0126354627E7022104F12800A8
:101E4800FFF76CFB054615E72E461EE701263546CB
:101E58003DE7B3F5805F3FF42FAFB3F5A05F3FF4E4
:101E68002BAFB3F5406F3FF427AF012635462EE779
:101E7800022104F12800FFF751FB05461CE72E4616
:101E880025E70126354644E7B3F5004F3FF436AF62
:101E9800B3F5204F3FF432AFB3F5C04F3FF42EAF48
:101EA8000126354635E7022104F12800FFF736FB05
:101EB800054623E72E462CE7022104F12800FFF708
:101EC8002DFB00283FF42FAF01262CE7022104F157
:101ED8002800FFF723FB00283FF437AF012634E73B
:101EE800022104F12800FFF719FB05464BE70126FC
:101EF800354653E72E4651E7012104F12800FFF744
:101F08000DFB054660E70126354668E72E4666E77D
:101F180000440258704AD36A43F40033D36275B957
:101F28006D4AD36C23F48033216D0B43D36407E0EF
:101F3800022104F10800FFF76DFA0546EFE72E4687
:101F4800236813F0005F11D1236813F4003F28D0F1
:101F5800D4F88030B3F5807F14D010D9B3F5007F62
:101F680015D0B3F5407F12D001261AE0022104F102
:101F78002800FFF7D3FA0028E6D00126E4E733B1BA
:101F880001260EE0544AD36A43F40033D362002D8D
:101F980069D1514A536D23F44073D4F880100B4330
:101FA8005365236813F4801F06D04B4A136D23F042
:101FB8000043616F0B431365236813F0805F07D0FC
:101FC800454A136923F48043D4F8B8100B431361CE
:101FD800236813F4001F06D03F4A136D23F0807363
:101FE800E16E0B431365236813F0804F09D03A4B19
:101FF8001A6922F400421A611A69D4F8BC100A431B
:102008001A612368002B06DA334AD36C23F0405355
:10201800616D0B43D364236813F4000F07D02E4A75
:10202800536D23F44003D4F88C100B435365636855
:1020380013F0010F19D1636813F0020F1ED1636802
:1020480013F0040F23D1636813F0080F28D16368D5
:1020580013F0100F2DD1636813F0200F32D106B1A1
:1020680001263046F8BD2E469BE7002104F1080002
:10207800FFF7D0F90028DED00646DCE7012104F19D
:102088000800FFF7C7F90028D9D00646D7E702218C
:1020980004F10800FFF7BEF90028D4D00646D2E7BD
:1020A800002104F12800FFF739FA0028CFD00646AE
:1020B800CDE7012104F12800FFF730FA0028CAD043
:1020C8000646C8E7022104F12800FFF727FA00288E
:1020D800C5D00126C5E700BF0044025808B5FFF780
:1020E80053F9054B1B6AC3F30213044AD35C03F08C
:1020F8001F03D84008BD00BF00440258484E0008DE
:1021080010B4794B9A6A9C6AC4F3053CD96AC1F346
:102118000011DB6BC3F3CC0301FB03F314F47C3F26
:1021280000F0DD8002F0030207EE903AF8EE677ADD
:10213800012A4BD0022A00F09880002A40F0B28091
:10214800694B1B6813F0200F23D067490A68C2F354
:10215800C102664BD34007EE103AF8EE476A07EE25
:1021680010CAB8EE476A86EE867A8B6BC3F308030B
:1021780006EE903AF8EE666A9FED5D6A67EE867A3B
:1021880076EEA77AF7EE006A77EEA67A27EE277A38
:1021980038E007EE10CAF8EE476A9FED566A86EEF9
:1021A800267A514B9B6BC3F3080306EE903AF8EE80
:1021B800666A9FED4F6A67EE867A76EEA77AF7EE43
:1021C800006A77EEA67A27EE277A1BE007EE10CA98
:1021D800F8EE476A9FED486A86EE267A424B9B6B7B
:1021E800C3F3080306EE903AF8EE666A9FED406A7C
:1021F80067EE867A76EEA77AF7EE006A77EEA67A29
:1022080027EE277A384A936BC3F3462307EE903AB2
:10221800F8EE677AF7EE006A77EEA67A87EE276A15
:10222800BCEEC66A80ED006A936BC3F3064307EE03
:10223800903AF8EE677A77EEA67A87EE276ABCEED0
:10224800C66A80ED016A936BC3F3066307EE903AA2
:10225800F8EE677A77EEA67AC7EE276AFCEEE66AAA
:10226800C0ED026A5DF8044B704707EE10CAF8EE3D
:10227800476A9FED226A86EE267A1B4B9B6BC3F357
:10228800080306EE903AF8EE666A9FED196A67EE63
:10229800867A76EEA77AF7EE006A77EEA67A27EEC8
:1022A800277AAFE707EE10CAF8EE476A9FED126A81
:1022B80086EE267A0C4B9B6BC3F3080306EE903A26
:1022C800F8EE666A9FED0A6A67EE867A76EEA77A76
:1022D800F7EE006A77EEA67A27EE277A92E70023D0
:1022E800036043608360BDE7004402580090D00358
:1022F800000000390024744C0024744A20BCBE4BF2
:1023080010B4794B9A6A9C6AC4F3055CD96AC1F324
:1023180000215B6CC3F3CC0301FB03F314F07C7F57
:1023280000F0DD8002F0030207EE903AF8EE677ADB
:10233800012A4BD0022A00F09880002A40F0B2808F
:10234800694B1B6813F0200F23D067490A68C2F352
:10235800C102664BD34007EE103AF8EE476A07EE23
:1023680010CAB8EE476A86EE867A0B6CC3F3080388
:1023780006EE903AF8EE666A9FED5D6A67EE867A39
:1023880076EEA77AF7EE006A77EEA67A27EE277A36
:1023980038E007EE10CAF8EE476A9FED566A86EEF7
:1023A800267A514B1B6CC3F3080306EE903AF8EEFD
:1023B800666A9FED4F6A67EE867A76EEA77AF7EE41
:1023C800006A77EEA67A27EE277A1BE007EE10CA96
:1023D800F8EE476A9FED486A86EE267A424B1B6CF8
:1023E800C3F3080306EE903AF8EE666A9FED406A7A
:1023F80067EE867A76EEA77AF7EE006A77EEA67A27
:1024080027EE277A384A136CC3F3462307EE903A2F
:10241800F8EE677AF7EE006A77EEA67A87EE276A13
:10242800BCEEC66A80ED006A136CC3F3064307EE80
:10243800903AF8EE677A77EEA67A87EE276ABCEECE
:10244800C66A80ED016A136CC3F3066307EE903A1F
:10245800F8EE677A77EEA67AC7EE276AFCEEE66AA8
:10246800C0ED026A5DF8044B704707EE10CAF8EE3B
:10247800476A9FED226A86EE267A1B4B1B6CC3F3D4
:10248800080306EE903AF8EE666A9FED196A67EE61
:10249800867A76EEA77AF7EE006A77EEA67A27EEC6
:1024A800277AAFE707EE10CAF8EE476A9FED126A7F
:1024B80086EE267A0C4B1B6CC3F3080306EE903AA3
:1024C800F8EE666A9FED0A6A67EE867A76EEA77A74
:1024D800F7EE006A77EEA67A27EE277A92E70023CE
:1024E800036043608360BDE7004402580090D00356
:1024F800000000390024744C0024744A20BCBE4BF0
:10250800F0B583B000236BE085685E000324B44017
:1025180025EA0405CC68B4402C438460456825EA64
:102528000C054C68C4F300149C402C43446069E0DB
:10253800DD08083550F8254003F0070C4FEA8C0CED
:102548004FF00F0E0EFA0CFE24EA0E0E0C6904FA78
:102558000CF444EA0E0440F825406BE0092400E03E
:10256800002404FA0EF42C430CF1020C694D45F8D2
:102578002C404FF0B0442568D44325EA02064F6842
:1025880017F4801F01D042EA05064FF0B0452E60CF
:102598006D6804EA05064F6817F4001F01D042EA87
:1025A80005064FF0B0456E60D5F8845004EA05067C
:1025B8004F6817F4003F01D042EA05064FF0B045D6
:1025C800C5F88460D5F880502C404E6816F4803FDA
:1025D80001D042EA05044FF0B042C2F8804001330E
:1025E8000A6832FA03F400F092804FF0010C0CFAFA
:1025F80003FC1CEA0202F2D04C6804F00304013C1C
:10260800012C81D94C6804F00304032C0CD0C46855
:102618005D004FF0030C0CFA05FC24EA0C0C8C68E6
:10262800AC4044EA0C04C4604C6804F00304022C77
:102638003FF47EAF04684FEA430E4FF0030C0CFAE8
:102648000EFC24EA0C0C4C6804F0030404FA0EF4A3
:1026580044EA0C0404604C6814F4403FBFD02E4C8C
:10266800D4F8F45045F00205C4F8F450D4F8F44016
:1026780004F002040194019C4FEA930C0CF102054A
:10268800244C54F8255003F0030E4FEA8E0E0F2405
:1026980004FA0EF425EA0405204CA0423FF460AF8A
:1026A80004F58064A04222D004F58064A04220D0C2
:1026B80004F58064A0421ED004F58064A0421CD0BA
:1026C80004F58064A0421AD004F58064A04218D0B2
:1026D80004F58064A04216D004F58064A04214D0AA
:1026E80004F58064A0423FF439AF0A2439E7012495
:1026F80037E7022435E7032433E7042431E70524C8
:102708002FE706242DE707242BE7082429E703B041
:10271800F0BD00BF000400580044025800000258F1
:102728000AB18161704709048161704770B5044638
:1027380000F05CFB002C00F08F81054694F83530E2
:10274800022B06D080236365002384F834300120EF
:1027580070BD23688B498C4A934218BF8B4230D096
:10276800183293422DD0183293422AD0183293420D
:1027780027D01832934224D01832934221D01832ED
:1027880093421ED002F5567293421AD018329342E1
:1027980017D01832934214D01832934211D01832FD
:1027A80093420ED0183293420BD01832934208D07D
:1027B8001832934205D01A6822F00E021A60266871
:1027C80009E01A6822F01E021A602268536923F091
:1027D80080035361266823686A496B4A934218BF8D
:1027E8008B4242D0183293423FD0183293423CD0A9
:1027F8001832934239D01832934236D01832934265
:1028080033D01832934230D002F5567293422CD00E
:102818001832934229D01832934226D01832934264
:1028280023D01832934220D0183293421DD0183248
:1028380093421AD01832934217D0544A934214D074
:102848001432934211D0143293420ED01432934270
:102858000BD01432934208D01432934205D014326C
:10286800934202D01432934204D1226E136823F4A7
:102878008073136023684349434A934218BF8B42CD
:102888002FD0183293422CD01832934229D01832C4
:10289800934226D01832934223D01832934220D044
:1028A800183293421DD002F55672934219D018324D
:1028B800934216D01832934213D01832934210D054
:1028C800183293420DD0183293420AD018329342EC
:1028D80007D01832934204D01A6822F001021A6015
:1028E80003E01A6822F001021A60336813F0010F3E
:1028F8000ED000F07BFA431B052BF6D92023636525
:10290800032384F83530002384F8343001201FE78E
:1029180023681C491C4A934218BF8B4238D018328E
:10292800934235D01832934232D0183293422FD086
:10293800183293422CD01832934229D0183293423D
:1029480026D002F55672934222D0183293421FD0F5
:10295800183293421CD01832934219D0183293423D
:1029680016D01832934213D01832934210D018322E
:1029780093420DD0A16DE36D03F01F020123934034
:102988004B600CE010000240280002400854025836
:10299800A16DE36D03F01F023F2393408B60236812
:1029A8002E492F4A934218BF8B4242D01832934285
:1029B8003FD0183293423CD01832934239D0183263
:1029C800934236D01832934233D01832934230D0E3
:1029D80002F5567293422CD01832934229D01832FD
:1029E800934226D01832934223D01832934220D0F3
:1029F800183293421DD0183293421AD0183293429B
:102A080017D0184A934214D01432934211D014327A
:102A180093420ED0143293420BD01432934208D012
:102A28001432934205D01432934202D014329342A6
:102A38000BD1636EA26E5A60E36E33B11A6822F44A
:102A480080721A60236F626F5A60012384F83530F0
:102A5800002084F834007BE6012079E6100002406B
:102A68002800024008540258002800F0278108B5C1
:102A7800024690F83530022B03D0802343650120AD
:102A880008BD03688F4890498B4218BF83420CBF2A
:102A98000120002065D018318B4262D018318B425A
:102AA8005FD018318B425CD018318B4259D0183125
:102AB8008B4256D018318B4253D001F556718B4258
:102AC8004FD018318B424CD018318B4249D0183135
:102AD8008B4246D018318B4243D018318B4240D0BC
:102AE80018318B423DD018318B423AD0196821F009
:102AF8000E0119601368734873498B4218BF8342EB
:102B08006AD072498B4267D018318B4264D0183131
:102B18008B4261D018318B425ED018318B425BD02A
:102B280018318B4258D001F556718B4254D0183168
:102B38008B4251D018318B424ED018318B424BD03A
:102B480018318B4248D018318B4245D018318B420E
:102B580042D018318B423FD0196821F00101196029
:102B68003EE0042182F8351080BB584A93422DD0AC
:102B7800183293422AD01832934227D018329342FF
:102B880024D01832934221D0183293421ED002F535
:102B9800567293421AD01832934217D01832934281
:102BA80014D01832934211D0183293420ED01832F2
:102BB80093420BD01832934208D01832934205D072
:102BC8001A6822F001021A60002059E71A6822F0F8
:102BD80001021A60002053E7196821F00101196009
:102BE8001368384838498B4218BF834242D018319D
:102BF8008B423FD018318B423CD018318B4239D0B0
:102C080018318B4236D018318B4233D018318B4271
:102C180030D001F556718B422CD018318B4229D017
:102C280018318B4226D018318B4223D018318B4271
:102C380020D018318B421DD018318B421AD0183150
:102C48008B4217D022498B4214D014318B4211D0B9
:102C580014318B420ED014318B420BD014318B427D
:102C680008D014318B4205D014318B4202D0143174
:102C78008B4217D1116E0B6823F480730B60906D33
:102C8800D36D03F01F0101238B404360536E916E97
:102C98005960D36E33B1196821F480711960136FCC
:102CA800516F5960012382F83530002382F834309F
:102CB800136D2BB1104698470020E1E601207047BC
:102CC8000020DDE6100002402800024040000240DB
:102CD80008540258134BDB6813F0040F07D1114B4B
:102CE800DB6803F0070383421AD00120704710B550
:102CF8000C4AD36823F007030343D36000F076F847
:102D08000446084B5B6813F4005F07D100F06EF8C7
:102D1800001BB0F57A7FF4D9012000E0002010BD37
:102D28000020704700480258104B1B780BB901204F
:102D3800704710B504464FF47A70B0FBF3F30C4AB1
:102D48001068B0FBF3F0FDF723FD68B90F2C01D92B
:102D580001200AE0002221464FF0FF30FDF704FD74
:102D6800044B1C60002000E0012010BD0000002082
:102D78000C0000200400002010B50320FDF7E2FC41
:102D8800FEF7BCF80F498B69C3F303230E4AD35CE3
:102D980003F01F03D8408B6903F00F03D35C03F0E3
:102DA8001F0320FA03F3094A1360094B18600F2028
:102DB800FFF7BAFF10B10124204610BD0446FDF705
:102DC8006FFCF9E700440258484E0008080000204C
:102DD8000C000020034B1B78034A11680B44136056
:102DE800704700BF0000002078000020014B1868E1
:102DF800704700BF78000020014B1868000C70472E
:102E08000010005CF0B4026A036A23F00103036255
:102E1800466884691E4B23400D681D4322F0020258
:102E28008B6813431B4A1C4CA04218BF90420CBF2E
:102E3800012200220CD004F58044A04214BF0024D3
:102E48000124164FB84203D014B9154CA04205D13D
:102E580023F00803CC68234323F004035AB9114A2A
:102E6800904214BF002201220C4CA04203D012B998
:102E78000B4A904205D126F440764A6932438E695E
:102E88001643466085614A6842630362F0BC704736
:102E98008CFFFEFF0000014000040140004001409B
:102EA800004801400044014070B4036A026A22F4F9
:102EB800807202624568C4691A4A22400E68164345
:102EC80023F400738A6843EA0223174A174CA04286
:102ED80018BF90420CBF0122002206D123F40063E0
:102EE800CC6843EA042323F480635AB9104A904219
:102EF80014BF002201220F4CA04203D012B90E4A7F
:102F0800904207D125F440524C6942EA04128C6978
:102F180042EA04154560C6614A68C263036270BC30
:102F2800704700BF8CFFFEFF000001400004014015
:102F380000440140004001400048014070B4036A69
:102F4800026A22F4805202624468C569144A2A401F
:102F58000D6842EA052223F400538D6843EA0533DD
:102F6800104E114DA84218BFB0420DD005F580454E
:102F7800A84214BF0025012506F58046B04203D0BB
:102F880015B90A4DA84204D124F480444D6944EA95
:102F980085144460C2614A680264036270BC704769
:102FA800FF8CFFFE00000140000401400048014082
:102FB80070B4036A026A22F4803202624268456D84
:102FC800144E2E400D682E4323F400338C6843EAD8
:102FD8000443114D114CA04218BFA8420DD004F56E
:102FE8008044A04214BF0024012405F58045A8426E
:102FF80003D014B90A4CA04204D122F480324C699F
:1030080042EA0422426046654A688265036270BCEF
:10301800704700BF8FFFFEFF000001400004014021
:103028000048014070B4036A026A22F48012026206
:103038004468456D144A2A400D6842EA052223F483
:1030480000138D6843EA0553104E114DA84218BF6E
:10305800B0420DD005F58045A84214BF00250125D2
:1030680006F58046B04203D015B90A4DA84204D1EE
:1030780024F480244D6944EA8524446042654A6802
:10308800C265036270BC7047FF8FFFFE00000140FD
:10309800000401400048014010B4036A046A24F0A7
:1030A80001040462846924F0F00C4CEA021223F053
:1030B8000A030B43826103625DF8044B704710B446
:1030C800036A046A24F010040462846924F4704CCE
:1030D8004CEA023223F0A00343EA0113826103623F
:1030E8005DF8044B704700008268034B13400B43A4
:1030F80043F00703836070478FFFCFFF70470000DE
:1031080070B40368394A904214BF00220122B0F11A
:10311800804F14BF144642F00104ACB9344DA842A4
:1031280014BF00250125334EB0420DD065B905F115
:10313800804505F58235A84214BF0025012506F50E
:103148000066B04200D01DB123F070034D682B43D8
:1031580014BB274CA04214BF00240124254DA842CB
:103168001AD0CCB904F1804404F58234A04214BFCB
:103178000024012405F50065A8420DD064B91E4C51
:10318800A04214BF0024012405F59A35A84203D0B3
:1031980014B91A4CA04203D123F44073CC682343DA
:1031A80023F080034C6923438C68C4620C688462F2
:1031B800134CA04208BF42F0010262B90E4A904285
:1031C80014BF0022012204F57054A04203D012B9A2
:1031D8000A4A904201D10A690263026842F0040275
:1031E800026001224261036070BC70470000014028
:1031F800000800400004004000440140004801402D
:103208000004014060B310B5044690F83D3013B394
:10321800022384F83D30214651F8040BFFF770FF74
:10322800012384F8483084F83E3084F83F3084F82D
:10323800403084F8413084F8423084F8433084F8D0
:10324800443084F8453084F8463084F8473084F8B0
:103258003D30002010BD80F83C30FDF73FF9D7E73E
:103268000120704760B310B5044690F83D3013B3A1
:10327800022384F83D30214651F8040BFFF740FF44
:10328800012384F8483084F83E3084F83F3084F8CD
:10329800403084F8413084F8423084F8433084F870
:1032A800443084F8453084F8463084F8473084F850
:1032B8003D30002010BD80F83C30FFF71FFFD7E7F6
:1032C8000120704770B4036A026A22F01002026299
:1032D800456884691A4E26400C6846EA042623F09D
:1032E80020038A6843EA0213164A174CA04218BF03
:1032F80090420CBF0122002206D123F08003CC6843
:1033080043EA041323F040035AB9104A904214BF09
:10331800002201220E4CA04203D012B90D4A90425D
:1033280007D125F4406C4A694CEA820C8A694CEA58
:103338008205456086614A688263036270BC704793
:10334800FF8CFFFE000001400004014000440140E2
:10335800004001400048014038B590F83C30012B4E
:1033680000F0958004460D46012380F83C30142A6D
:1033780000F28880DFE802F00B8686861F86868644
:1033880034868686488686865D86868671000068CD
:10339800FFF738FD2268936943F0080393612268B8
:1033A800936923F0040393612268936929690B43A5
:1033B8009361002067E00068FFF784FF2268936943
:1033C80043F4006393612268936923F480639361F3
:1033D80022689369296943EA01239361002052E036
:1033E8000068FFF761FD2268D36943F00803D361E1
:1033F8002268D36923F00403D3612268D369296959
:103408000B43D36100203EE00068FFF797FD226878
:10341800D36943F40063D3612268D36923F48063DA
:10342800D3612268D369296943EA0123D361002063
:1034380029E00068FFF7BCFD2268536D43F00803DC
:1034480053652268536D23F0040353652268536D56
:1034580029690B435365002015E00068FFF7E2FD7A
:103468002268536D43F4006353652268536D23F457
:10347800806353652268536D296943EA01235365C4
:10348800002000E00120002384F83C3038BD0220F1
:10349800FCE710B4846824F47F4C42EA03220A4310
:1034A80042EA0C0282605DF8044B704790F83C30A9
:1034B800012B00F08F8010B50446012380F83C30C2
:1034C800022380F83D3002689068434B03409360C4
:1034D8000B68702B55D031D8502B6CD01FD8402B8F
:1034E8000AD1CA6849682068FFF7D6FD40212068DC
:1034F800FFF7FAFD002029E068D8202B03D00AD86E
:103508000BB1102B05D119462068FFF7EDFD0020FF
:103518001CE001201AE0302BF5D0012016E0602BCA
:103528000AD1CA6849682068FFF7C9FD6021206888
:10353800FFF7DAFD002009E0012007E0B3F5005F9E
:103548002CD00AD8B3F5805F42D10020012384F83B
:103558003D30002384F83C3010BD204A9342D2D03D
:1035680007D8B3F5801FCED0B3F1101FCBD0012000
:10357800ECE71B4A9342C6D010329342C3D00120D5
:10358800E4E7CB684A6889682068FFF782FF226809
:10359800936843F0770393600020D7E7CB684A68C5
:1035A80089682068FFF775FF2268936843F48043B1
:1035B80093600020CAE7CA6849682068FFF76CFD75
:1035C80050212068FFF790FD0020BFE70120BDE7EC
:1035D8000120BBE7022070478800CEFF20001000C2
:1035E8003000100001F01F014FF0010C0CFA01FC33
:1035F800036A23EA0C030362036A8A4013430362E3
:103608007047000010B50446102928D8DFE801F0FB
:10361800092727270F272727152727271B27272786
:10362800210090F83E30013B18BF01231CE090F8C0
:103638003F30013B18BF012316E090F84030013BB2
:1036480018BF012310E090F84130013B18BF012357
:103658000AE090F84230013B18BF012304E090F8DB
:103668004330013B18BF0123002B71D110291ED80C
:10367800DFE801F0091D1D1D0D1D1D1D111D1D1D5E
:10368800151D1D1D1900022384F83E3012E0022387
:1036980084F83F300EE0022384F840300AE0022329
:1036A80084F8413006E0022384F8423002E0022325
:1036B80084F8433001222068FFF794FF23682649E5
:1036C800264A934218BF8B420BD002F570529342A0
:1036D80007D002F58062934203D002F580629342DC
:1036E80003D15A6C42F400425A6423681A4AB3F16F
:1036F800804F18BF93421DD0A2F57C42934219D047
:1037080002F58062934215D002F58062934211D08F
:1037180002F5784293420DD0A2F56C42934209D04B
:1037280002F59432934205D01A6842F001021A60F9
:1037380000200EE099680A4A0A40062A18BFB2F526
:10374800803F07D01A6842F001021A60002000E0AA
:10375800012010BD0020FCE70000014000040140EA
:103768000700010090F83C20012A45D070B40346B8
:10377800012280F83C20022280F83D20026850682F
:1037880094681E4E1E4DAA4218BFB24203D120F4BF
:1037980070004D68284320F070000D682843506081
:1037A8001A681648B2F1804F18BF824217D0A0F5A8
:1037B8007C40824213D000F5806082420FD000F531
:1037C800806082420BD000F57840824207D0A0F595
:1037D8006C40824203D000F59430824204D124F038
:1037E8008004896821439160012283F83D200020EC
:1037F80083F83C0070BC704702207047000001400D
:103808000004014090F83C30012B3CD030B4024613
:10381800012380F83C30CB6823F440738868034365
:1038280023F480634868034323F400630868034370
:1038380023F480530869034323F40053486903437E
:1038480023F48043886A034323F47023886943EA96
:10385800004310680D4D0E4CA04218BFA8420CD171
:1038680023F470034C6A43EA045323F08073CC6951
:10387800234323F00073096A0B434364002082F852
:103888003C0030BC70470220704700BF0000014078
:1038980000040140314AD2F8883043F47003C2F87A
:1038A80088302F4B1B6803F00F03062B06D82C4AD1
:1038B800136823F00F0343F007031360294B1A68BA
:1038C80042F001021A6000221A611968264A0A4069
:1038D8001A60234B1B6813F0080F06D0204A1368A0
:1038E80023F00F0343F0070313601E4B00229A6175
:1038F800DA611A621D4999621D49D9621D49196325
:103908005A639963DA6319645A64196821F4802147
:1039180019601A66184B1B686FF30F03B3F1005F49
:1039280003D2164B0122C3F808210E4BD3F8D4302A
:1039380013F4805F10D10B4BD3F8D42042F480529B
:10394800C3F8D4200E4A43F2D2011160D3F8D42030
:1039580022F48052C3F8D420704700BF00ED00E085
:1039680000200052004402587FEDF6EA00020202ED
:103978000000FF01800201010010005C008000517E
:1039880000400052054AD36843F00203D360034B5A
:103998005B6813F4005FFAD0704700BF0048025814
:1039A800002800DB70474042FCE7000070B50C4679
:1039B800051E2ADB002D36DD2E4E00224FF4007145
:1039C8003046FEF7ADFE01224FF480713046FEF717
:1039D800A7FE2846FFF7E4FF274B1B685863002C17
:1039E8002FDB002C39DD234D002280212846FEF7ED
:1039F80097FE012240212846FEF792FE2046FFF757
:103A0800CFFF1D4B1B68186470BD1A4E01224FF47E
:103A180000713046FEF784FE00224FF48071304674
:103A2800FEF77EFED5E7134E00224FF400713046B4
:103A3800FEF776FE00224FF480713046FEF770FEE6
:103A4800C7E70C4D012280212846FEF769FE0022B7
:103A580040212846FEF764FED0E7064D002280216B
:103A68002846FEF75DFE002240212846FEF758FE54
:103A7800C4E700BF000802582C00002008B517480A
:103A8800174B03604FF41653436000238360C360F1
:103A980003610C2242618361C361036243628362F2
:103AA80000F025FF70B900210C4800F09BFF60B9B9
:103AB80000210A4800F0BBFF50B9084800F073FF26
:103AC80048B908BDFCF747FCEDE7FCF744FCEFE715
:103AD800FCF741FCF1E7FCF73EFCF2E77C00002034
:103AE8000048004010B5B8B0044600213391349125
:103AF800359136913791C02202A800F0E8FF22687C
:103B08001F4B9A4201D038B010BD02220023CDE9E4
:103B1800022302A8FDF786FD78BB1A4BD3F8E820EC
:103B280042F48022C3F8E820D3F8E82002F4802287
:103B38000092009AD3F8E02042F00202C3F8E02095
:103B4800D3F8E03003F002030193019B4FF4406384
:103B58003393022334930024359436940723379300
:103B680033A90948FEF7CCFC224621462720FCF75A
:103B7800FBFD2720FCF708FEC5E7FCF7ECFBCCE7CC
:103B8800004800400044025800040258026852E805
:103B9800003F23F4907342E800310029F6D102680F
:103BA80002F1080353E8001F0D4B0B40083242E8AE
:103BB80000310029F3D1C36E012B06D02023C0F8B1
:103BC8008C300023C36643677047026852E8003FA1
:103BD80023F0100342E800310029F6D1EEE700BFD8
:103BE800FEFFFFEF704708B5026852E8003F23F078
:103BF800400342E800310029F6D12023C0F888307C
:103C080000238367FFF7EEFF08BD704708B5806B98
:103C18000023A0F85E30FFF7F8FF08BD70470000EA
:103C280070B504460268D3691068916840F60F0CB5
:103C380013EA0C0F0DD113F0200F10D010F0200F45
:103C480002D111F0805F0AD0636F93B32046984782
:103C58002FE0884D0D402DD1874E30422AD1E56E98
:103C6800012D00F0C08013F4801F03D011F4800FE1
:103C780040F0A28113F0800F07D010F0800F40F0C1
:103C8800A28111F4000F40F09E8113F0400F03D081
:103C980010F0400F40F09E8113F4000F03D010F095
:103CA800804F40F09B8113F0807F02D00028C0F243
:103CB800998170BD13F0010F09D010F4807F06D0F0
:103CC80001261662D4F890203243C4F8902013F0ED
:103CD800020F0BD011F0010F08D0226802261662DD
:103CE800D4F8902042F00402C4F8902013F0040F96
:103CF8000BD011F0010F08D0226804261662D4F800
:103D0800902042F00202C4F8902013F0080F0BD064
:103D180010F0200F00D13DB1226808251562D4F8B3
:103D280090202A43C4F8902013F4006F0CD010F0B0
:103D3800806F09D022684FF400651562D4F890208E
:103D480042F02002C4F89020D4F89020002AB0D085
:103D580013F0200F09D010F0200F02D111F0805F6E
:103D680003D0636F0BB120469847D4F8902023689E
:103D78009B6813F0400F02D112F0280F2CD0204678
:103D8800FFF704FF23689B6813F0400F20D02268D8
:103D980002F1080353E8003F23F04003083242E8E9
:103DA80000310029F3D1D4F880306BB1334A1A6559
:103DB800D4F88000FEF758FE00283FF47AAFD4F814
:103DC8008000036D984774E72046FFF71EFF70E7F1
:103DD8002046FFF71AFF6CE72046FFF716FF00237F
:103DE800C4F8903065E713F0100F3FF43CAF10F0C3
:103DF800100F3FF438AF1023136223689B6813F049
:103E0800400F00F09F80D4F8802013681C481D499B
:103E18008B4218BF834237D018318B4234D01831C7
:103E28008B4231D018318B422ED018318B422BD097
:103E380018318B4228D018318B4225D001F55671A4
:103E48008B4221D018318B421ED018318B421BD0A7
:103E580018318B4218D018318B4215D018318B424B
:103E680012D018318B420FD018318B420CD05B68BE
:103E78009BB20BE00100001020010004153C000873
:103E880010000240280002405B689BB2002B49D01A
:103E9800B4F85C10994245D9A4F85E30D369B3F5FB
:103EA800807F32D0226852E8003F23F4807342E8D2
:103EB80000310029F6D1226802F1080353E8003FD7
:103EC80023F00103083242E800310029F3D12268C7
:103ED80002F1080353E8003F23F04003083242E8A8
:103EE80000310029F3D12023C4F88C300023E36685
:103EF800226852E8003F23F0100342E8003100290D
:103F0800F6D1D4F88000FEF711FC02232367B4F839
:103F18005C10B4F85E309BB2C91A89B22046FFF72C
:103F28007DFEC6E6B4F85C1099427FF4C2AED36950
:103F3800B3F5807F7FF4BDAE022323672046FFF7E9
:103F48006DFEB6E6B4F85C10B4F85E309BB2C91AE0
:103F580089B2B4F85E309BB2002B3FF4AAAE0029B8
:103F68003FF4A7AE226852E8003F23F4907342E87A
:103F780000300028F6D1226802F1080353E8000F48
:103F88001A4B0340083242E800300028F3D12023BE
:103F9800C4F88C300023E3666367226852E8003F68
:103FA80023F0100342E800300028F6D102232367EB
:103FB8002046FFF733FE7CE64FF480131362204659
:103FC80000F0EEFC75E6A36F002B3FF472AE2046BE
:103FD80098476EE62046FFF706FE6AE6204600F0A0
:103FE800E1FC66E6204600F0DCFC62E6FEFFFFEF3F
:103FF80070B586B004468368026913434269134367
:10400800C269134301680868884A02401A430A6073
:104018002268536823F44053E1680B435360A16955
:104028002268834B9A4201D0236A19439068814BD6
:1040380003400B4393602268D36A23F00F03616A3D
:104048000B43D36223687C4A934221D07B4A934234
:1040580000F08C807A4A934200F0A280794A934219
:1040680000F0B580784A934200F0C880774A9342BE
:1040780000F0F480764A934200F01981754A934221
:1040880000F02C816A4A934200F03F8180223BE095
:10409800714A526D02F03802282A34D8DFE812F04B
:1040A800290033003300330033003300330033007A
:1040B8004D01330033003300330033003300330045
:1040C8002B00330033003300330033003300330058
:1040D8002D00330033003300330033003300330046
:1040E8002F00330033003300330033003300330034
:1040F8003100012208E0082206E0102204E0202214
:1041080002E0402200E0802249498B4200F02781EA
:10411800E069B0F5004F00F0A781202A00F2FF8186
:10412800202A00F24982DFE812F016021C02470238
:1041380047021F024702470247022402470247027A
:10414800470247024702470247022902470247023D
:10415800470247024702470247024702470247020F
:104168004702470247024702470235023A4A526D60
:1041780002F00702052A11D8DFE812F00600E10074
:1041880008000A000C000E000022BDE70822BBE769
:104198001022B9E72022B7E74022B5E78022B3E72B
:1041A8002D4A526D02F00702052A0ED8DFE802F008
:1041B80003C90507090B0022A6E70822A4E7102275
:1041C800A2E72022A0E740229EE780229CE7224A1D
:1041D800526D02F00702052A0ED8DFE802F003B498
:1041E8000507090B00228FE708228DE710228BE7CD
:1041F800202289E7402287E7802285E7164A526D08
:1042080002F00702052A0ED8DFE802F0039F05072F
:10421800090B002278E7082276E7102274E72022AB
:1042280072E7402270E780226EE700BFF369FFCF94
:10423800000C0058FFF4FF1100100140004400403A
:1042480000480040004C004000500040001401406D
:1042580000780040007C0040004402587D4A526DBE
:1042680002F03802282A20D8DFE802F0151F1F1FA5
:104278001F1F1F1F711F1F1F1F1F1F1F171F1F1FFC
:104288001F1F1F1F191F1F1F1F1F1F1F1B1F1F1F40
:104298001F1F1F1F1D00012236E7082234E71022C6
:1042A80032E7202230E740222EE780222CE7694AB5
:1042B800526D02F00702052A0ED8DFE802F0034A21
:1042C8000507090B00221FE708221DE710221BE73C
:1042D800202219E7402217E7802215E75D4A526D30
:1042E80002F00702052A0ED8DFE802F003350507B9
:1042F800090B002208E7082206E7102204E720221B
:1043080002E7402200E78022FEE602F50E32926DB7
:1043180002F00702052A0ED8DFE802F0031F05079E
:10432800090B0222F0E60822EEE61022ECE6202233
:10433800EAE64022E8E68022E6E60422E4E60422F1
:10434800E2E60422E0E60422DEE60422DCE60422B9
:10435800DAE60422D8E60422D6E60422D4E6202AA5
:1043680027D8022AC0F01A81023A1E2A00F21881C0
:10437800DFE812F05000160156001601160116016A
:104388005B00160116011601160116011601160129
:104398006000160116011601160116011601160114
:1043A800160116011601160116011601160116014D
:1043B8006C00402A2CD14FF40040626A264B33F837
:1043C8001220B0FBF2F3656805EB4501994200F253
:1043D800E980B3EB053F00F2E7800026334631461B
:1043E800FBF756FF090241EA106100026B08C0188A
:1043F8002A46334641F10001FBF74AFFA0F5407217
:10440800164B9A4200F2D2802368D8603046D4E036
:104418000120D2E0FDF762FE0028CED10020CCE0DA
:1044280003A8FDF76DFE0498F6E76846FDF768FFF8
:104438000198F1E7074B1B6813F0200F08D0054BD4
:104448001B68C3F3C1030648D840B6E70548B4E77C
:104458000348B2E700440258584E0008FFFC0F001A
:104468000090D00300093D00202A15D8202A00F228
:104478009F80DFE802F031379D9D3A9D9D9D3F9DCD
:104488009D9D9D9D9D9D449D9D9D9D9D9D9D9D9DAD
:104498009D9D9D9D9D9D5000402A1BD1626A4D4B5C
:1044A80033F81230B0FBF3F06268530803EB4003B3
:1044B800B3FBF2F3A3F110014FF6EF72914279D8F2
:1044C8009AB222F00F02C3F3420313432268D36067
:1044D800002072E0012070E0FCF778FF0028DDD1B1
:1044E80000206AE0FCF784FFF8E703A8FDF708FE60
:1044F8000498F3E76846FDF703FF0198EEE7364BAB
:104508001B6813F0200F08D0334B1B68C3F3C1039B
:104518003248D840C2E73248C0E73048BEE7402AB0
:1045280017D14FF40040626A2A4B33F81230B0FBBF
:10453800F3F0636800EB5300B0FBF3F0A0F1100256
:104548004FF6EF739A4242D8236880B2D8600020B1
:1045580033E0012031E0FCF739FF0028E3D10020E7
:104568002BE0FCF745FFF8E703A8FDF7C9FD049821
:10457800F3E76846FDF7C4FE0198EEE7164B1B68A3
:1045880013F0200F08D0144B1B68C3F3C103134862
:10459800D840C8E71248C6E71048C4E701200CE035
:1045A80001200AE0012008E0012006E0012004E0E3
:1045B800012002E0012000E001200123A4F86A3074
:1045C800A4F8683000236367A36706B070BD0120B4
:1045D800F3E700BF584E0008004402580090D0038B
:1045E80000093D00836A13F0080F06D0026853687B
:1045F80023F40043816B0B435360836A13F0010F6C
:1046080006D00268536823F40033C16A0B43536031
:10461800836A13F0020F06D00268536823F48033CC
:10462800016B0B435360836A13F0040F06D00268D2
:10463800536823F48023416B0B435360836A13F060
:10464800100F06D00268936823F48053C16B0B43A4
:104658009360836A13F0200F06D00268936823F4EE
:104668000053016C0B439360836A13F0400F0AD028
:104678000268536823F48013416C0B435360436C06
:10468800B3F5801F0BD0836A13F0800F06D0026841
:10469800536823F40023C16C0B43536070470268CE
:1046A800536823F4C003816C0B435360EBE72DE997
:1046B800F84305460E4617469946DDF820802B68D4
:1046C800DC6936EA04040CBF01240024BC423AD158
:1046D800B8F1FF3FF3D0FEF789FBA0EB0900404596
:1046E80034D8B8F1000F33D02B681A6812F0040FD1
:1046F800E5D0B6F1400218BF0122802EDFD0002A93
:10470800DDD0DA6912F0080F11D1DA6912F4006FFE
:10471800D5D04FF400621A622846FFF737FA2023F3
:10472800C5F89030002385F8843003200CE0082475
:104738001C622846FFF72AFAC5F89040002385F83E
:104748008430012000E00020BDE8F8830320FBE767
:104758000320F9E72DE9F04182B01E46D0F88830F1
:10476800202B5BD104460D469046002A18BF00292D
:1047780001D1012053E00023C0F890302123C0F874
:104788008830FEF733FB0746A4F85480A4F8568017
:10479800A368B3F5805F02D04FF0000816E02369E4
:1047A80043B34FF0000811E02023C4F888300320F9
:1047B80035E038F8023B2268C3F308039362B4F883
:1047C800562092B2013A92B2A4F85620B4F8563064
:1047D8009BB293B100963B46002280212046FFF70A
:1047E80066FF0028E0D1002DE3D015F8012B2368DF
:1047F8009A62E4E7A8460025E8E700963B460022CF
:1048080040212046FFF753FF18B92023C4F8883009
:1048180005E02023C4F88830032000E0022002B01D
:10482800BDE8F08130B583B004460023C0F890306D
:10483800FEF7DCFA05462268126812F0080F10D15C
:1048480023681B6813F0040F28D12023C4F888308C
:10485800C4F88C300020E066206784F8840003B038
:1048680030BD6FF07E430093034600224FF40011E1
:104878002046FFF71CFF0028E2D0226852E8003FDC
:1048880023F0800342E800310029F6D12023C4F840
:104898008830002384F884300320E0E76FF07E43FB
:1048A80000932B4600224FF480012046FFF7FFFEBD
:1048B8000028CAD0226852E8003F23F4907342E8E7
:1048C80000310029F6D1226802F1080353E8003FBD
:1048D80023F00103083242E800310029F3D12023F4
:1048E800C4F88C30002384F884300320B7E778B309
:1048F80010B50446D0F888300BB32423C4F88830A8
:104908002268136823F001031360A36AE3B9204601
:10491800FFF76EFB012811D02268536823F49043F7
:1049280053602268936823F02A039360226813680F
:1049380043F0010313602046FFF774FF10BD80F8B1
:104948008430FFF7CFF8D8E72046FFF74BFEDEE7C5
:1049580001207047436E2BB90123A0F86A30A0F8F4
:104968006830704730B403689A68C2F34262996845
:10497800490F094D6B5C1B01084C615C93FBF1F31B
:10498800A0F86A30AB5C1B01A25C93FBF2F3A0F8C1
:10499800683030BC704700BF784E0008704E000881
:1049A80070477047704790F88430012B18D0012366
:1049B80080F884302423C0F8883003681A6819689E
:1049C80021F00101196022F00052002343660168BA
:1049D8000A602022C0F8882080F884301846704782
:1049E8000220704738B590F88430012B1DD004465A
:1049F800012380F884302423C0F8883003681D68B8
:104A08001A6822F001021A600268936823F0604372
:104A180019439160FFF79EFF23681D602023C4F8A7
:104A28008830002084F8840038BD0220FCE738B5BF
:104A380090F88430012B1DD00446012380F884307F
:104A48002423C0F8883003681D681A6822F0010220
:104A58001A600268936823F0606319439160FFF756
:104A680079FF23681D602023C4F88830002084F86B
:104A7800840038BD0220FCE7DFF838D0FEF782FF5B
:104A8800FEF708FF0C480D490D4A002302E0D458F0
:104A9800C4500433C4188C42F9D30A4A0A4C002380
:104AA80001E013600432A242FBD300F019F8FBF7CF
:104AB800A7FC704700000220000000201000002022
:104AC800904E00081000002010010020FEE702446C
:104AD8000346934200D1704703F8011BF9E7000031
:104AE80070B50D4B0D4D5B1B9C100026A64209D1DD
:104AF80000F096F90A4D0B4B5B1B9C100026A64252
:104B080005D170BD55F8043B98470136EEE755F8D6
:104B1800043B98470136F2E7884E0008884E0008A3
:104B2800884E00088C4E00082DE9F047089D0F4676
:104B380004468C46002B48D18A42164661D9B2FAFF
:104B480082F34BB1C3F1200201FA03FC20FA02F20E
:104B58009E4042EA0C0C9C404FEA164EB7B2BCFB92
:104B6800FEF1220C0EFB11CC42EA0C4201FB07F0CD
:104B7800904209D9B21801F1FF3C80F0EE809042D2
:104B880040F2EB8002393244121AA4B2B2FBFEF0B2
:104B98000EFB102244EA024400FB07F7A74209D99A
:104BA800341900F1FF3280F0DA80A74240F2D78052
:104BB8003444023840EA0140E41B00211DB1DC40C6
:104BC8000023C5E90043BDE8F0878B4206D90DB143
:104BD800C5E9000100210846BDE8F087B3FA83F172
:104BE800002948D1BB4202D3824200F20781841ACD
:104BF80067EB030201209446002DE4D0C5E9004C80
:104C0800E1E7002A00F09280B2FA82F3002B40F02C
:104C1800A8808A1A4FEA164E1FFA86FC0121200C3A
:104C2800B2FBFEF70EFB172240EA02420CFB07F02C
:104C3800904207D9B21807F1FF3802D2904200F229
:104C4800E2804746121AA4B2B2FBFEF00EFB102215
:104C580044EA02440CFB00FCA44507D9341900F1CE
:104C6800FF3202D2A44500F2CB801046A4EB0C041C
:104C780040EA0740A2E7C1F120068B4022FA06FC71
:104C88004CEA030C07FA01F420FA06F3F7404FEA5E
:104C98001C49234300FA01F81FFA8CFEB7FBF9F010
:104CA8001C0C09FB107744EA074400FB0EF7A742E7
:104CB80002FA01F20AD91CEB040400F1FF3A80F071
:104CC8009B80A74240F2988002386444E41B9FB25C
:104CD800B4FBF9F309FB134447EA044403FB0EFE53
:104CE800A64509D91CEB040403F1FF3780F0828044
:104CF800A6457FD9023B644443EA0040A4EB0E0476
:104D0800A0FB02E7BC427346B94663D360D05DB1ED
:104D1800B8EB030264EB090404FA06F622FA01F37D
:104D28001E43CC40C5E9006400214CE762084808EE
:104D380042EAC1710B0C43EA00438AB242EA0342D9
:104D4800B3FBF6F1E407B4463746B6461F23B0FB7B
:104D5800F6F0D21B41EA004161E7614614E71046CC
:104D680028E7C3F1200120FA01F29E4027FA01F159
:104D78009F403A434FEA164E1FFA86FCB1FBFEF7F6
:104D88000EFB1710110C41EA004107FB0CF888458F
:104D980004FA03F43AD9711807F1FF3001D28845B3
:104DA8001FD8A1EB0801B1FBFEF808FB0CF70EFBBE
:104DB800181192B242EA0142BA422FD2B21808F14F
:104DC800FF31C6D2BA42C4D2A8F102013244C0E7C8
:104DD800F0459CD2BEEB020367EB0C070138B946DD
:104DE80095E7A6EB08084144B81EB1FBFEF808FB9E
:104DF8000CF7DCE73B467FE7504667E70846FBE6EB
:104E08003444023832E7023F32441BE7A1EB080181
:104E18003846B1FBFEF808FB0CF7C8E7414698E7AF
:104E2800F8B500BFF8BC08BC9E467047F8B500BF8F
:084E3800F8BC08BC9E4670475F
:104E400048656C6C6F0D0A0000000000010203044D
:104E5000010203040607080901000200040006001D
:104E600008000A000C001000200040008000000133
:104E70000804020408010101010101030701000007
:084E8000B0FCFF7F01000000FF
:044E8800F10200082B
:044E8C00CD0200084B
:104E900001000000100000000090D0030090D0033B
:0400000508004A8124
:00000001FF
